{
  "contractName": "VehicleSystemTwo",
  "abi": [
    {
      "inputs": [
        {
          "internalType": "uint256",
          "name": "",
          "type": "uint256"
        }
      ],
      "name": "licenses",
      "outputs": [
        {
          "internalType": "uint256",
          "name": "user_id",
          "type": "uint256"
        },
        {
          "internalType": "uint256",
          "name": "car_id",
          "type": "uint256"
        },
        {
          "internalType": "string",
          "name": "expire_at",
          "type": "string"
        }
      ],
      "stateMutability": "view",
      "type": "function"
    },
    {
      "inputs": [
        {
          "internalType": "uint256",
          "name": "",
          "type": "uint256"
        }
      ],
      "name": "licenses_requests",
      "outputs": [
        {
          "internalType": "uint256",
          "name": "user_id",
          "type": "uint256"
        },
        {
          "internalType": "uint256",
          "name": "car_id",
          "type": "uint256"
        },
        {
          "internalType": "enum VehicleSystemTwo.LicenseRequestType",
          "name": "license_request_type",
          "type": "uint8"
        },
        {
          "internalType": "enum VehicleSystemTwo.State",
          "name": "state",
          "type": "uint8"
        }
      ],
      "stateMutability": "view",
      "type": "function"
    },
    {
      "inputs": [
        {
          "internalType": "uint256",
          "name": "_user_id",
          "type": "uint256"
        },
        {
          "internalType": "uint256",
          "name": "_car_id",
          "type": "uint256"
        },
        {
          "internalType": "string",
          "name": "_expire_at",
          "type": "string"
        }
      ],
      "name": "add_license",
      "outputs": [],
      "stateMutability": "nonpayable",
      "type": "function"
    },
    {
      "inputs": [
        {
          "internalType": "uint256",
          "name": "_license_id",
          "type": "uint256"
        },
        {
          "internalType": "uint256",
          "name": "_user_id",
          "type": "uint256"
        }
      ],
      "name": "edit_license",
      "outputs": [],
      "stateMutability": "nonpayable",
      "type": "function"
    },
    {
      "inputs": [
        {
          "internalType": "uint256",
          "name": "_license_id",
          "type": "uint256"
        },
        {
          "internalType": "uint256",
          "name": "_car_id",
          "type": "uint256"
        },
        {
          "internalType": "uint256",
          "name": "_user_id",
          "type": "uint256"
        }
      ],
      "name": "request_to_renewal_licence",
      "outputs": [],
      "stateMutability": "nonpayable",
      "type": "function"
    },
    {
      "inputs": [
        {
          "internalType": "uint256",
          "name": "_car_id",
          "type": "uint256"
        },
        {
          "internalType": "uint256",
          "name": "_user_id",
          "type": "uint256"
        }
      ],
      "name": "request_to_first_time_licence",
      "outputs": [],
      "stateMutability": "nonpayable",
      "type": "function"
    },
    {
      "inputs": [
        {
          "internalType": "uint256",
          "name": "_license_request_id",
          "type": "uint256"
        },
        {
          "internalType": "uint256",
          "name": "_license_id",
          "type": "uint256"
        },
        {
          "internalType": "string",
          "name": "_expire_at",
          "type": "string"
        }
      ],
      "name": "accept_to_request_renewal_license",
      "outputs": [],
      "stateMutability": "nonpayable",
      "type": "function"
    },
    {
      "inputs": [
        {
          "internalType": "uint256",
          "name": "_license_request_id",
          "type": "uint256"
        },
        {
          "internalType": "string",
          "name": "_expire_at",
          "type": "string"
        }
      ],
      "name": "accept_to_request_first_time_license",
      "outputs": [],
      "stateMutability": "nonpayable",
      "type": "function"
    },
    {
      "inputs": [
        {
          "internalType": "uint256",
          "name": "_license_request_id",
          "type": "uint256"
        },
        {
          "internalType": "uint256",
          "name": "_license_id",
          "type": "uint256"
        },
        {
          "internalType": "string",
          "name": "_expire_at",
          "type": "string"
        }
      ],
      "name": "reject_to_request_renewal_license",
      "outputs": [],
      "stateMutability": "nonpayable",
      "type": "function"
    },
    {
      "inputs": [
        {
          "internalType": "uint256",
          "name": "_license_request_id",
          "type": "uint256"
        },
        {
          "internalType": "string",
          "name": "_expire_at",
          "type": "string"
        }
      ],
      "name": "reject_to_request_first_time_license",
      "outputs": [],
      "stateMutability": "nonpayable",
      "type": "function"
    },
    {
      "inputs": [],
      "name": "get_licenses",
      "outputs": [
        {
          "components": [
            {
              "internalType": "uint256",
              "name": "user_id",
              "type": "uint256"
            },
            {
              "internalType": "uint256",
              "name": "car_id",
              "type": "uint256"
            },
            {
              "internalType": "string",
              "name": "expire_at",
              "type": "string"
            }
          ],
          "internalType": "struct VehicleSystemTwo.license[]",
          "name": "",
          "type": "tuple[]"
        }
      ],
      "stateMutability": "view",
      "type": "function"
    },
    {
      "inputs": [
        {
          "internalType": "uint256",
          "name": "a",
          "type": "uint256"
        },
        {
          "internalType": "uint256",
          "name": "b",
          "type": "uint256"
        }
      ],
      "name": "compareUint",
      "outputs": [
        {
          "internalType": "bool",
          "name": "",
          "type": "bool"
        }
      ],
      "stateMutability": "pure",
      "type": "function"
    }
  ],
  "bytecode": "0x608060405234801561001057600080fd5b506117b5806100206000396000f3fe608060405234801561001057600080fd5b50600436106100b35760003560e01c80634079a6c0116100715780634079a6c0146101765780635367cb561461019257806390e8fc91146101c5578063b0a951c2146101e1578063b4e74eb8146101ff578063f5701cfe1461022f576100b3565b80627d43cd146100b8578063086ae1cf146100d45780631f0a3fa5146100f05780632ca052ce1461010c5780632e0ba53e146101285780633379084514610144575b600080fd5b6100d260048036038101906100cd9190610d52565b61024b565b005b6100ee60048036038101906100e99190610d52565b6102ad565b005b61010a60048036038101906101059190610ed8565b61039e565b005b61012660048036038101906101219190610f47565b61041b565b005b610142600480360381019061013d9190610f9a565b610540565b005b61015e60048036038101906101599190610ff6565b610708565b60405161016d939291906110ba565b60405180910390f35b610190600480360381019061018b9190610f9a565b6107ca565b005b6101ac60048036038101906101a79190610ff6565b610991565b6040516101bc94939291906111b7565b60405180910390f35b6101df60048036038101906101da9190610ed8565b6109eb565b005b6101e9610aa4565b6040516101f69190611367565b60405180910390f35b61021960048036038101906102149190610d52565b610ba9565b60405161022691906113a4565b60405180910390f35b61024960048036038101906102449190610ed8565b610c02565b005b60005b6000805490508110156102a8576102658184610ba9565b1561029557816000828154811061027f5761027e6113bf565b5b9060005260206000209060030201600001819055505b80806102a09061141d565b91505061024e565b505050565b60006040518060800160405280838152602001848152602001600060018111156102da576102d96110f8565b5b81526020016002808111156102f2576102f16110f8565b5b81525090506001819080600181540180825580915050600190039060005260206000209060030201600090919091909150600082015181600001556020820151816001015560408201518160020160006101000a81548160ff02191690836001811115610362576103616110f8565b5b021790555060608201518160020160016101000a81548160ff02191690836002811115610392576103916110f8565b5b02179055505050505050565b600060405180606001604052808581526020018481526020018381525090506000819080600181540180825580915050600190039060005260206000209060030201600090919091909150600082015181600001556020820151816001015560408201518160020190816104129190611671565b50505050505050565b60005b60008054905081101561053a576104358185610ba9565b156105275760006040518060800160405280848152602001858152602001600180811115610466576104656110f8565b5b815260200160028081111561047e5761047d6110f8565b5b81525090506001819080600181540180825580915050600190039060005260206000209060030201600090919091909150600082015181600001556020820151816001015560408201518160020160006101000a81548160ff021916908360018111156104ee576104ed6110f8565b5b021790555060608201518160020160016101000a81548160ff0219169083600281111561051e5761051d6110f8565b5b02179055505050505b80806105329061141d565b91505061041e565b50505050565b610548610cbc565b60005b600180549050811015610682576105628185610ba9565b1561066f576001818154811061057b5761057a6113bf565b5b906000526020600020906003020160405180608001604052908160008201548152602001600182015481526020016002820160009054906101000a900460ff1660018111156105cd576105cc6110f8565b5b60018111156105df576105de6110f8565b5b81526020016002820160019054906101000a900460ff166002811115610608576106076110f8565b5b600281111561061a576106196110f8565b5b815250509150600060018281548110610636576106356113bf565b5b906000526020600020906003020160020160016101000a81548160ff02191690836002811115610669576106686110f8565b5b02179055505b808061067a9061141d565b91505061054b565b506000604051806060016040528083600001518152602001836020015181526020018481525090506000819080600181540180825580915050600190039060005260206000209060030201600090919091909150600082015181600001556020820151816001015560408201518160020190816106ff9190611671565b50505050505050565b6000818154811061071857600080fd5b906000526020600020906003020160009150905080600001549080600101549080600201805461074790611494565b80601f016020809104026020016040519081016040528092919081815260200182805461077390611494565b80156107c05780601f10610795576101008083540402835291602001916107c0565b820191906000526020600020905b8154815290600101906020018083116107a357829003601f168201915b5050505050905083565b6107d2610cbc565b60005b60018054905081101561090b576107ec8185610ba9565b156108f85760018181548110610805576108046113bf565b5b906000526020600020906003020160405180608001604052908160008201548152602001600182015481526020016002820160009054906101000a900460ff166001811115610857576108566110f8565b5b6001811115610869576108686110f8565b5b81526020016002820160019054906101000a900460ff166002811115610892576108916110f8565b5b60028111156108a4576108a36110f8565b5b81525050915060018082815481106108bf576108be6113bf565b5b906000526020600020906003020160020160016101000a81548160ff021916908360028111156108f2576108f16110f8565b5b02179055505b80806109039061141d565b9150506107d5565b506000604051806060016040528083600001518152602001836020015181526020018481525090506000819080600181540180825580915050600190039060005260206000209060030201600090919091909150600082015181600001556020820151816001015560408201518160020190816109889190611671565b50505050505050565b600181815481106109a157600080fd5b90600052602060002090600302016000915090508060000154908060010154908060020160009054906101000a900460ff16908060020160019054906101000a900460ff16905084565b60005b600180549050811015610a6b57610a058185610ba9565b15610a58576001808281548110610a1f57610a1e6113bf565b5b906000526020600020906003020160020160016101000a81548160ff02191690836002811115610a5257610a516110f8565b5b02179055505b8080610a639061141d565b9150506109ee565b508060008381548110610a8157610a806113bf565b5b90600052602060002090600302016002019081610a9e9190611671565b50505050565b60606000805480602002602001604051908101604052809291908181526020016000905b82821015610ba057838290600052602060002090600302016040518060600160405290816000820154815260200160018201548152602001600282018054610b0f90611494565b80601f0160208091040260200160405190810160405280929190818152602001828054610b3b90611494565b8015610b885780601f10610b5d57610100808354040283529160200191610b88565b820191906000526020600020905b815481529060010190602001808311610b6b57829003601f168201915b50505050508152505081526020019060010190610ac8565b50505050905090565b600081604051602001610bbc9190611764565b6040516020818303038152906040528051906020012083604051602001610be39190611764565b6040516020818303038152906040528051906020012014905092915050565b60005b600180549050811015610c8357610c1c8185610ba9565b15610c7057600060018281548110610c3757610c366113bf565b5b906000526020600020906003020160020160016101000a81548160ff02191690836002811115610c6a57610c696110f8565b5b02179055505b8080610c7b9061141d565b915050610c05565b508060008381548110610c9957610c986113bf565b5b90600052602060002090600302016002019081610cb69190611671565b50505050565b6040518060800160405280600081526020016000815260200160006001811115610ce957610ce86110f8565b5b815260200160006002811115610d0257610d016110f8565b5b81525090565b6000604051905090565b600080fd5b600080fd5b6000819050919050565b610d2f81610d1c565b8114610d3a57600080fd5b50565b600081359050610d4c81610d26565b92915050565b60008060408385031215610d6957610d68610d12565b5b6000610d7785828601610d3d565b9250506020610d8885828601610d3d565b9150509250929050565b600080fd5b600080fd5b6000601f19601f8301169050919050565b7f4e487b7100000000000000000000000000000000000000000000000000000000600052604160045260246000fd5b610de582610d9c565b810181811067ffffffffffffffff82111715610e0457610e03610dad565b5b80604052505050565b6000610e17610d08565b9050610e238282610ddc565b919050565b600067ffffffffffffffff821115610e4357610e42610dad565b5b610e4c82610d9c565b9050602081019050919050565b82818337600083830152505050565b6000610e7b610e7684610e28565b610e0d565b905082815260208101848484011115610e9757610e96610d97565b5b610ea2848285610e59565b509392505050565b600082601f830112610ebf57610ebe610d92565b5b8135610ecf848260208601610e68565b91505092915050565b600080600060608486031215610ef157610ef0610d12565b5b6000610eff86828701610d3d565b9350506020610f1086828701610d3d565b925050604084013567ffffffffffffffff811115610f3157610f30610d17565b5b610f3d86828701610eaa565b9150509250925092565b600080600060608486031215610f6057610f5f610d12565b5b6000610f6e86828701610d3d565b9350506020610f7f86828701610d3d565b9250506040610f9086828701610d3d565b9150509250925092565b60008060408385031215610fb157610fb0610d12565b5b6000610fbf85828601610d3d565b925050602083013567ffffffffffffffff811115610fe057610fdf610d17565b5b610fec85828601610eaa565b9150509250929050565b60006020828403121561100c5761100b610d12565b5b600061101a84828501610d3d565b91505092915050565b61102c81610d1c565b82525050565b600081519050919050565b600082825260208201905092915050565b60005b8381101561106c578082015181840152602081019050611051565b8381111561107b576000848401525b50505050565b600061108c82611032565b611096818561103d565b93506110a681856020860161104e565b6110af81610d9c565b840191505092915050565b60006060820190506110cf6000830186611023565b6110dc6020830185611023565b81810360408301526110ee8184611081565b9050949350505050565b7f4e487b7100000000000000000000000000000000000000000000000000000000600052602160045260246000fd5b60028110611138576111376110f8565b5b50565b600081905061114982611127565b919050565b60006111598261113b565b9050919050565b6111698161114e565b82525050565b600381106111805761117f6110f8565b5b50565b60008190506111918261116f565b919050565b60006111a182611183565b9050919050565b6111b181611196565b82525050565b60006080820190506111cc6000830187611023565b6111d96020830186611023565b6111e66040830185611160565b6111f360608301846111a8565b95945050505050565b600081519050919050565b600082825260208201905092915050565b6000819050602082019050919050565b61123181610d1c565b82525050565b600082825260208201905092915050565b600061125382611032565b61125d8185611237565b935061126d81856020860161104e565b61127681610d9c565b840191505092915050565b60006060830160008301516112996000860182611228565b5060208301516112ac6020860182611228565b50604083015184820360408601526112c48282611248565b9150508091505092915050565b60006112dd8383611281565b905092915050565b6000602082019050919050565b60006112fd826111fc565b6113078185611207565b93508360208202850161131985611218565b8060005b85811015611355578484038952815161133685826112d1565b9450611341836112e5565b925060208a0199505060018101905061131d565b50829750879550505050505092915050565b6000602082019050818103600083015261138181846112f2565b905092915050565b60008115159050919050565b61139e81611389565b82525050565b60006020820190506113b96000830184611395565b92915050565b7f4e487b7100000000000000000000000000000000000000000000000000000000600052603260045260246000fd5b7f4e487b7100000000000000000000000000000000000000000000000000000000600052601160045260246000fd5b600061142882610d1c565b91507fffffffffffffffffffffffffffffffffffffffffffffffffffffffffffffffff820361145a576114596113ee565b5b600182019050919050565b7f4e487b7100000000000000000000000000000000000000000000000000000000600052602260045260246000fd5b600060028204905060018216806114ac57607f821691505b6020821081036114bf576114be611465565b5b50919050565b60008190508160005260206000209050919050565b60006020601f8301049050919050565b600082821b905092915050565b6000600883026115277fffffffffffffffffffffffffffffffffffffffffffffffffffffffffffffffff826114ea565b61153186836114ea565b95508019841693508086168417925050509392505050565b6000819050919050565b600061156e61156961156484610d1c565b611549565b610d1c565b9050919050565b6000819050919050565b61158883611553565b61159c61159482611575565b8484546114f7565b825550505050565b600090565b6115b16115a4565b6115bc81848461157f565b505050565b5b818110156115e0576115d56000826115a9565b6001810190506115c2565b5050565b601f821115611625576115f6816114c5565b6115ff846114da565b8101602085101561160e578190505b61162261161a856114da565b8301826115c1565b50505b505050565b600082821c905092915050565b60006116486000198460080261162a565b1980831691505092915050565b60006116618383611637565b9150826002028217905092915050565b61167a82611032565b67ffffffffffffffff81111561169357611692610dad565b5b61169d8254611494565b6116a88282856115e4565b600060209050601f8311600181146116db57600084156116c9578287015190505b6116d38582611655565b86555061173b565b601f1984166116e9866114c5565b60005b82811015611711578489015182556001820191506020850194506020810190506116ec565b8683101561172e578489015161172a601f891682611637565b8355505b6001600288020188555050505b505050505050565b6000819050919050565b61175e61175982610d1c565b611743565b82525050565b6000611770828461174d565b6020820191508190509291505056fea264697066735822122073784d959576f7a465ef343acc5b2699489e647daad449c0bad8e6acb3d1155664736f6c634300080f0033",
  "immutableReferences": {},
  "source": "//SPDX-License-Identifier: MIT\r\npragma solidity ^0.8.11;\r\n\r\ncontract VehicleSystemTwo {\r\n\r\n\r\n    enum LicenseRequestType{\r\n        FIRST_TIME_LICENSE,\r\n        RENEWAL_LICENSE\r\n    }\r\n\r\n    struct license\r\n    {\r\n        uint user_id;\r\n        uint car_id;\r\n        string expire_at;\r\n    }\r\n\r\n    struct license_request\r\n    {\r\n        uint user_id;\r\n        uint car_id;\r\n        LicenseRequestType license_request_type;\r\n        State state;\r\n    }\r\n\r\n    enum State {\r\n        ACCEPTED,\r\n        REJECTED,\r\n        PENDING\r\n    }\r\n\r\n    license[] public licenses;\r\n    license_request[] public licenses_requests;\r\n\r\n    function add_license(uint _user_id, uint _car_id, string memory _expire_at) public\r\n    {\r\n        license memory new_license = license(_user_id, _car_id, _expire_at);\r\n        licenses.push(new_license);\r\n    }\r\n\r\n    function edit_license(uint _license_id, uint _user_id) public\r\n    {\r\n        for (uint i = 0; i < licenses.length; i++)\r\n        {\r\n            if (compareUint(i, _license_id))\r\n            {\r\n                licenses[i].user_id = _user_id;\r\n            }\r\n        }\r\n    }\r\n\r\n    function request_to_renewal_licence(uint _license_id, uint _car_id, uint _user_id) public\r\n    {\r\n        for (uint i = 0; i < licenses.length; i++) {\r\n            if (compareUint(i, _license_id)) {\r\n                license_request memory new_license_request = license_request(_user_id, _car_id, LicenseRequestType.RENEWAL_LICENSE, State.PENDING);\r\n                licenses_requests.push(new_license_request);\r\n            }\r\n        }\r\n    }\r\n\r\n    function request_to_first_time_licence(uint _car_id, uint _user_id) public\r\n    {\r\n\r\n        license_request memory new_license_request = license_request(_user_id, _car_id, LicenseRequestType.FIRST_TIME_LICENSE, State.PENDING);\r\n        licenses_requests.push(new_license_request);\r\n    }\r\n\r\n    function accept_to_request_renewal_license(uint _license_request_id, uint _license_id, string memory _expire_at) public {\r\n        for (uint i = 0; i < licenses_requests.length; i++)\r\n        {\r\n            if (compareUint(i, _license_request_id))\r\n            {\r\n                licenses_requests[i].state = State.ACCEPTED;\r\n            }\r\n        }\r\n        licenses[_license_id].expire_at = _expire_at;\r\n    }\r\n\r\n    function accept_to_request_first_time_license(uint _license_request_id, string memory _expire_at) public {\r\n        license_request memory current_licenses_request;\r\n        for (uint i = 0; i < licenses_requests.length; i++)\r\n        {\r\n            if (compareUint(i, _license_request_id))\r\n            {\r\n                current_licenses_request = licenses_requests[i];\r\n                licenses_requests[i].state = State.ACCEPTED;\r\n            }\r\n        }\r\n        license memory new_license = license(current_licenses_request.user_id, current_licenses_request.car_id, _expire_at);\r\n        licenses.push(new_license);\r\n    }\r\n\r\n    function reject_to_request_renewal_license(uint _license_request_id, uint _license_id, string memory _expire_at) public {\r\n        for (uint i = 0; i < licenses_requests.length; i++)\r\n        {\r\n            if (compareUint(i, _license_request_id))\r\n            {\r\n                licenses_requests[i].state = State.REJECTED;\r\n            }\r\n        }\r\n        licenses[_license_id].expire_at = _expire_at;\r\n    }\r\n\r\n    function reject_to_request_first_time_license(uint _license_request_id, string memory _expire_at) public {\r\n        license_request memory current_licenses_request;\r\n        for (uint i = 0; i < licenses_requests.length; i++)\r\n        {\r\n            if (compareUint(i, _license_request_id))\r\n            {\r\n                current_licenses_request = licenses_requests[i];\r\n                licenses_requests[i].state = State.REJECTED;\r\n            }\r\n        }\r\n        license memory new_license = license(current_licenses_request.user_id, current_licenses_request.car_id, _expire_at);\r\n        licenses.push(new_license);\r\n    }\r\n\r\n    function get_licenses() public view returns (license[] memory){\r\n        return licenses;\r\n    }\r\n\r\n    function compareUint(uint a, uint b) public pure returns (bool) {\r\n        return (keccak256(abi.encodePacked((a))) == keccak256(abi.encodePacked((b))));\r\n    }\r\n}\r\n",
  "sourcePath": "C:\\Users\\Mina\\OneDrive\\Desktop\\blockchain-projects\\Back-end\\contracts\\VehicleSystemTwo.sol",
  "compiler": {
    "name": "solc",
    "version": "0.8.15+commit.e14f2714.Emscripten.clang"
  },
  "schemaVersion": "3.4.7",
  "updatedAt": "2022-06-15T21:22:26.681Z",
  "devdoc": {
    "kind": "dev",
    "methods": {},
    "version": 1
  },
  "userdoc": {
    "kind": "user",
    "methods": {},
    "version": 1
  }
}