{
  "contractName": "VehicleSystem",
  "abi": [
    {
      "inputs": [],
      "stateMutability": "nonpayable",
      "type": "constructor"
    },
    {
      "inputs": [
        {
          "internalType": "uint256",
          "name": "",
          "type": "uint256"
        }
      ],
      "name": "banks",
      "outputs": [
        {
          "internalType": "uint256",
          "name": "user_id",
          "type": "uint256"
        },
        {
          "internalType": "string",
          "name": "bank_name",
          "type": "string"
        }
      ],
      "stateMutability": "view",
      "type": "function",
      "constant": true
    },
    {
      "inputs": [
        {
          "internalType": "uint256",
          "name": "",
          "type": "uint256"
        }
      ],
      "name": "licenses",
      "outputs": [
        {
          "internalType": "uint256",
          "name": "user_id",
          "type": "uint256"
        },
        {
          "internalType": "uint256",
          "name": "car_id",
          "type": "uint256"
        },
        {
          "internalType": "string",
          "name": "status",
          "type": "string"
        },
        {
          "internalType": "string",
          "name": "expireat",
          "type": "string"
        },
        {
          "internalType": "uint256",
          "name": "security_directorate_id",
          "type": "uint256"
        },
        {
          "internalType": "enum VehicleSystem.State",
          "name": "state",
          "type": "uint8"
        }
      ],
      "stateMutability": "view",
      "type": "function",
      "constant": true
    },
    {
      "inputs": [
        {
          "internalType": "uint256",
          "name": "",
          "type": "uint256"
        }
      ],
      "name": "manufactures",
      "outputs": [
        {
          "internalType": "uint256",
          "name": "user_id",
          "type": "uint256"
        },
        {
          "internalType": "string",
          "name": "manufacture_name",
          "type": "string"
        }
      ],
      "stateMutability": "view",
      "type": "function",
      "constant": true
    },
    {
      "inputs": [
        {
          "internalType": "uint256",
          "name": "",
          "type": "uint256"
        }
      ],
      "name": "traffic_violations",
      "outputs": [
        {
          "internalType": "uint256",
          "name": "vehicle_id",
          "type": "uint256"
        },
        {
          "internalType": "string",
          "name": "violation_type",
          "type": "string"
        },
        {
          "internalType": "string",
          "name": "violation_description",
          "type": "string"
        },
        {
          "internalType": "string",
          "name": "violation_status",
          "type": "string"
        }
      ],
      "stateMutability": "view",
      "type": "function",
      "constant": true
    },
    {
      "inputs": [
        {
          "internalType": "uint256",
          "name": "",
          "type": "uint256"
        }
      ],
      "name": "transactions",
      "outputs": [
        {
          "internalType": "uint256",
          "name": "user_id",
          "type": "uint256"
        },
        {
          "internalType": "string",
          "name": "amount",
          "type": "string"
        },
        {
          "internalType": "string",
          "name": "status",
          "type": "string"
        },
        {
          "internalType": "uint256",
          "name": "bank_id",
          "type": "uint256"
        },
        {
          "internalType": "string",
          "name": "created_at",
          "type": "string"
        },
        {
          "internalType": "string",
          "name": "updated_at",
          "type": "string"
        }
      ],
      "stateMutability": "view",
      "type": "function",
      "constant": true
    },
    {
      "inputs": [
        {
          "internalType": "uint256",
          "name": "",
          "type": "uint256"
        }
      ],
      "name": "users",
      "outputs": [
        {
          "internalType": "address",
          "name": "user_address",
          "type": "address"
        },
        {
          "internalType": "string",
          "name": "user_name",
          "type": "string"
        },
        {
          "internalType": "string",
          "name": "user_email",
          "type": "string"
        },
        {
          "internalType": "string",
          "name": "user_password",
          "type": "string"
        },
        {
          "internalType": "string",
          "name": "user_phone",
          "type": "string"
        },
        {
          "internalType": "string",
          "name": "user_national_id",
          "type": "string"
        },
        {
          "internalType": "enum VehicleSystem.Role",
          "name": "role",
          "type": "uint8"
        }
      ],
      "stateMutability": "view",
      "type": "function",
      "constant": true
    },
    {
      "inputs": [
        {
          "internalType": "uint256",
          "name": "",
          "type": "uint256"
        }
      ],
      "name": "vehicles",
      "outputs": [
        {
          "internalType": "string",
          "name": "vehicle_name",
          "type": "string"
        },
        {
          "internalType": "string",
          "name": "vehicle_type",
          "type": "string"
        },
        {
          "internalType": "string",
          "name": "vehicle_model",
          "type": "string"
        },
        {
          "internalType": "string",
          "name": "vehicle_motor_number",
          "type": "string"
        },
        {
          "internalType": "string",
          "name": "vehicle_chase_number",
          "type": "string"
        },
        {
          "internalType": "uint256",
          "name": "vehicle_manufacture_id",
          "type": "uint256"
        },
        {
          "internalType": "string",
          "name": "vehicle_color",
          "type": "string"
        },
        {
          "internalType": "string",
          "name": "vehicle_production_Year",
          "type": "string"
        },
        {
          "internalType": "bool",
          "name": "isBlocked",
          "type": "bool"
        },
        {
          "internalType": "uint256",
          "name": "user_id",
          "type": "uint256"
        },
        {
          "internalType": "enum VehicleSystem.State",
          "name": "state",
          "type": "uint8"
        }
      ],
      "stateMutability": "view",
      "type": "function",
      "constant": true
    },
    {
      "inputs": [
        {
          "internalType": "address",
          "name": "_user_address",
          "type": "address"
        },
        {
          "internalType": "string",
          "name": "_user_name",
          "type": "string"
        },
        {
          "internalType": "string",
          "name": "_user_email",
          "type": "string"
        },
        {
          "internalType": "string",
          "name": "_user_phone",
          "type": "string"
        },
        {
          "internalType": "string",
          "name": "_user_password",
          "type": "string"
        },
        {
          "internalType": "string",
          "name": "_user_national_id",
          "type": "string"
        },
        {
          "internalType": "enum VehicleSystem.Role",
          "name": "role",
          "type": "uint8"
        }
      ],
      "name": "register",
      "outputs": [
        {
          "internalType": "bool",
          "name": "",
          "type": "bool"
        }
      ],
      "stateMutability": "nonpayable",
      "type": "function"
    },
    {
      "inputs": [
        {
          "internalType": "string",
          "name": "passed_user_email",
          "type": "string"
        },
        {
          "internalType": "string",
          "name": "passed_user_password",
          "type": "string"
        }
      ],
      "name": "login",
      "outputs": [
        {
          "internalType": "int256",
          "name": "",
          "type": "int256"
        }
      ],
      "stateMutability": "view",
      "type": "function",
      "constant": true
    },
    {
      "inputs": [
        {
          "internalType": "uint256",
          "name": "user_id",
          "type": "uint256"
        }
      ],
      "name": "get_user",
      "outputs": [
        {
          "components": [
            {
              "internalType": "address",
              "name": "user_address",
              "type": "address"
            },
            {
              "internalType": "string",
              "name": "user_name",
              "type": "string"
            },
            {
              "internalType": "string",
              "name": "user_email",
              "type": "string"
            },
            {
              "internalType": "string",
              "name": "user_password",
              "type": "string"
            },
            {
              "internalType": "string",
              "name": "user_phone",
              "type": "string"
            },
            {
              "internalType": "string",
              "name": "user_national_id",
              "type": "string"
            },
            {
              "internalType": "enum VehicleSystem.Role",
              "name": "role",
              "type": "uint8"
            }
          ],
          "internalType": "struct VehicleSystem.user",
          "name": "",
          "type": "tuple"
        }
      ],
      "stateMutability": "view",
      "type": "function",
      "constant": true
    },
    {
      "inputs": [
        {
          "internalType": "address",
          "name": "_user_address",
          "type": "address"
        }
      ],
      "name": "get_user_id_with_address",
      "outputs": [
        {
          "internalType": "int256",
          "name": "",
          "type": "int256"
        }
      ],
      "stateMutability": "view",
      "type": "function",
      "constant": true
    },
    {
      "inputs": [
        {
          "internalType": "uint256",
          "name": "_user_id",
          "type": "uint256"
        },
        {
          "internalType": "string",
          "name": "_user_phone",
          "type": "string"
        },
        {
          "internalType": "string",
          "name": "_user_password",
          "type": "string"
        }
      ],
      "name": "edit_user",
      "outputs": [
        {
          "internalType": "bool",
          "name": "",
          "type": "bool"
        }
      ],
      "stateMutability": "nonpayable",
      "type": "function"
    },
    {
      "inputs": [
        {
          "internalType": "uint256",
          "name": "_user_id",
          "type": "uint256"
        },
        {
          "internalType": "string",
          "name": "_manufacture_name",
          "type": "string"
        }
      ],
      "name": "add_manufacture",
      "outputs": [],
      "stateMutability": "nonpayable",
      "type": "function"
    },
    {
      "inputs": [
        {
          "internalType": "uint256",
          "name": "_manufacture_id",
          "type": "uint256"
        },
        {
          "internalType": "string",
          "name": "_manufacture_name",
          "type": "string"
        }
      ],
      "name": "edit_manufacture",
      "outputs": [
        {
          "internalType": "bool",
          "name": "",
          "type": "bool"
        }
      ],
      "stateMutability": "nonpayable",
      "type": "function"
    },
    {
      "inputs": [
        {
          "internalType": "uint256",
          "name": "user_id",
          "type": "uint256"
        },
        {
          "internalType": "string",
          "name": "name",
          "type": "string"
        }
      ],
      "name": "add_bank_data",
      "outputs": [],
      "stateMutability": "nonpayable",
      "type": "function"
    },
    {
      "inputs": [
        {
          "internalType": "uint256",
          "name": "bank_id",
          "type": "uint256"
        },
        {
          "internalType": "uint256",
          "name": "user_id",
          "type": "uint256"
        },
        {
          "internalType": "string",
          "name": "name",
          "type": "string"
        }
      ],
      "name": "edit_bank",
      "outputs": [
        {
          "internalType": "bool",
          "name": "",
          "type": "bool"
        }
      ],
      "stateMutability": "nonpayable",
      "type": "function"
    },
    {
      "inputs": [
        {
          "internalType": "uint256",
          "name": "manufacture_user_id",
          "type": "uint256"
        },
        {
          "internalType": "string",
          "name": "vehicle_name",
          "type": "string"
        },
        {
          "internalType": "string",
          "name": "vehicle_type",
          "type": "string"
        },
        {
          "internalType": "string",
          "name": "vehicle_model",
          "type": "string"
        },
        {
          "internalType": "string",
          "name": "vehicle_motor_number",
          "type": "string"
        },
        {
          "internalType": "string",
          "name": "vehicle_chase_number",
          "type": "string"
        },
        {
          "internalType": "string",
          "name": "vehicle_color",
          "type": "string"
        },
        {
          "internalType": "string",
          "name": "vehicle_production_Year",
          "type": "string"
        },
        {
          "internalType": "bool",
          "name": "isBlocked",
          "type": "bool"
        },
        {
          "internalType": "enum VehicleSystem.State",
          "name": "vehicle_state",
          "type": "uint8"
        },
        {
          "internalType": "uint256",
          "name": "owner_id",
          "type": "uint256"
        }
      ],
      "name": "add_vehicle",
      "outputs": [],
      "stateMutability": "nonpayable",
      "type": "function"
    },
    {
      "inputs": [
        {
          "internalType": "uint256",
          "name": "_manufacture_user_id",
          "type": "uint256"
        },
        {
          "internalType": "uint256",
          "name": "_vehicle_id",
          "type": "uint256"
        },
        {
          "internalType": "uint256",
          "name": "_owner_id",
          "type": "uint256"
        },
        {
          "internalType": "string",
          "name": "_vehicle_color",
          "type": "string"
        }
      ],
      "name": "edit_vehicle",
      "outputs": [
        {
          "internalType": "bool",
          "name": "",
          "type": "bool"
        }
      ],
      "stateMutability": "nonpayable",
      "type": "function"
    },
    {
      "inputs": [
        {
          "internalType": "uint256",
          "name": "vehicle_id",
          "type": "uint256"
        }
      ],
      "name": "get_vehicle",
      "outputs": [
        {
          "components": [
            {
              "internalType": "string",
              "name": "vehicle_name",
              "type": "string"
            },
            {
              "internalType": "string",
              "name": "vehicle_type",
              "type": "string"
            },
            {
              "internalType": "string",
              "name": "vehicle_model",
              "type": "string"
            },
            {
              "internalType": "string",
              "name": "vehicle_motor_number",
              "type": "string"
            },
            {
              "internalType": "string",
              "name": "vehicle_chase_number",
              "type": "string"
            },
            {
              "internalType": "uint256",
              "name": "vehicle_manufacture_id",
              "type": "uint256"
            },
            {
              "internalType": "string",
              "name": "vehicle_color",
              "type": "string"
            },
            {
              "internalType": "string",
              "name": "vehicle_production_Year",
              "type": "string"
            },
            {
              "internalType": "bool",
              "name": "isBlocked",
              "type": "bool"
            },
            {
              "internalType": "uint256",
              "name": "user_id",
              "type": "uint256"
            },
            {
              "internalType": "enum VehicleSystem.State",
              "name": "state",
              "type": "uint8"
            }
          ],
          "internalType": "struct VehicleSystem.vehicle",
          "name": "",
          "type": "tuple"
        }
      ],
      "stateMutability": "view",
      "type": "function",
      "constant": true
    },
    {
      "inputs": [],
      "name": "get_users",
      "outputs": [
        {
          "components": [
            {
              "internalType": "address",
              "name": "user_address",
              "type": "address"
            },
            {
              "internalType": "string",
              "name": "user_name",
              "type": "string"
            },
            {
              "internalType": "string",
              "name": "user_email",
              "type": "string"
            },
            {
              "internalType": "string",
              "name": "user_password",
              "type": "string"
            },
            {
              "internalType": "string",
              "name": "user_phone",
              "type": "string"
            },
            {
              "internalType": "string",
              "name": "user_national_id",
              "type": "string"
            },
            {
              "internalType": "enum VehicleSystem.Role",
              "name": "role",
              "type": "uint8"
            }
          ],
          "internalType": "struct VehicleSystem.user[]",
          "name": "",
          "type": "tuple[]"
        }
      ],
      "stateMutability": "view",
      "type": "function",
      "constant": true
    },
    {
      "inputs": [],
      "name": "get_vehicles",
      "outputs": [
        {
          "components": [
            {
              "internalType": "string",
              "name": "vehicle_name",
              "type": "string"
            },
            {
              "internalType": "string",
              "name": "vehicle_type",
              "type": "string"
            },
            {
              "internalType": "string",
              "name": "vehicle_model",
              "type": "string"
            },
            {
              "internalType": "string",
              "name": "vehicle_motor_number",
              "type": "string"
            },
            {
              "internalType": "string",
              "name": "vehicle_chase_number",
              "type": "string"
            },
            {
              "internalType": "uint256",
              "name": "vehicle_manufacture_id",
              "type": "uint256"
            },
            {
              "internalType": "string",
              "name": "vehicle_color",
              "type": "string"
            },
            {
              "internalType": "string",
              "name": "vehicle_production_Year",
              "type": "string"
            },
            {
              "internalType": "bool",
              "name": "isBlocked",
              "type": "bool"
            },
            {
              "internalType": "uint256",
              "name": "user_id",
              "type": "uint256"
            },
            {
              "internalType": "enum VehicleSystem.State",
              "name": "state",
              "type": "uint8"
            }
          ],
          "internalType": "struct VehicleSystem.vehicle[]",
          "name": "",
          "type": "tuple[]"
        }
      ],
      "stateMutability": "view",
      "type": "function",
      "constant": true
    },
    {
      "inputs": [],
      "name": "get_manufactures",
      "outputs": [
        {
          "components": [
            {
              "internalType": "uint256",
              "name": "user_id",
              "type": "uint256"
            },
            {
              "internalType": "string",
              "name": "manufacture_name",
              "type": "string"
            }
          ],
          "internalType": "struct VehicleSystem.manufacture[]",
          "name": "",
          "type": "tuple[]"
        }
      ],
      "stateMutability": "view",
      "type": "function",
      "constant": true
    },
    {
      "inputs": [],
      "name": "get_banks",
      "outputs": [
        {
          "components": [
            {
              "internalType": "uint256",
              "name": "user_id",
              "type": "uint256"
            },
            {
              "internalType": "string",
              "name": "bank_name",
              "type": "string"
            }
          ],
          "internalType": "struct VehicleSystem.bank[]",
          "name": "",
          "type": "tuple[]"
        }
      ],
      "stateMutability": "view",
      "type": "function",
      "constant": true
    },
    {
      "inputs": [],
      "name": "get_traffic_violations",
      "outputs": [
        {
          "components": [
            {
              "internalType": "uint256",
              "name": "vehicle_id",
              "type": "uint256"
            },
            {
              "internalType": "string",
              "name": "violation_type",
              "type": "string"
            },
            {
              "internalType": "string",
              "name": "violation_description",
              "type": "string"
            },
            {
              "internalType": "string",
              "name": "violation_status",
              "type": "string"
            }
          ],
          "internalType": "struct VehicleSystem.traffic_violation[]",
          "name": "",
          "type": "tuple[]"
        }
      ],
      "stateMutability": "view",
      "type": "function",
      "constant": true
    },
    {
      "inputs": [],
      "name": "get_licenses",
      "outputs": [
        {
          "components": [
            {
              "internalType": "uint256",
              "name": "user_id",
              "type": "uint256"
            },
            {
              "internalType": "uint256",
              "name": "car_id",
              "type": "uint256"
            },
            {
              "internalType": "string",
              "name": "status",
              "type": "string"
            },
            {
              "internalType": "string",
              "name": "expireat",
              "type": "string"
            },
            {
              "internalType": "uint256",
              "name": "security_directorate_id",
              "type": "uint256"
            },
            {
              "internalType": "enum VehicleSystem.State",
              "name": "state",
              "type": "uint8"
            }
          ],
          "internalType": "struct VehicleSystem.license[]",
          "name": "",
          "type": "tuple[]"
        }
      ],
      "stateMutability": "view",
      "type": "function",
      "constant": true
    },
    {
      "inputs": [],
      "name": "get_transactions",
      "outputs": [
        {
          "components": [
            {
              "internalType": "uint256",
              "name": "user_id",
              "type": "uint256"
            },
            {
              "internalType": "string",
              "name": "amount",
              "type": "string"
            },
            {
              "internalType": "string",
              "name": "status",
              "type": "string"
            },
            {
              "internalType": "uint256",
              "name": "bank_id",
              "type": "uint256"
            },
            {
              "internalType": "string",
              "name": "created_at",
              "type": "string"
            },
            {
              "internalType": "string",
              "name": "updated_at",
              "type": "string"
            }
          ],
          "internalType": "struct VehicleSystem.transaction[]",
          "name": "",
          "type": "tuple[]"
        }
      ],
      "stateMutability": "view",
      "type": "function",
      "constant": true
    },
    {
      "inputs": [],
      "name": "users_length",
      "outputs": [
        {
          "internalType": "uint256",
          "name": "",
          "type": "uint256"
        }
      ],
      "stateMutability": "view",
      "type": "function",
      "constant": true
    },
    {
      "inputs": [],
      "name": "vehicles_length",
      "outputs": [
        {
          "internalType": "uint256",
          "name": "",
          "type": "uint256"
        }
      ],
      "stateMutability": "view",
      "type": "function",
      "constant": true
    },
    {
      "inputs": [],
      "name": "banks_length",
      "outputs": [
        {
          "internalType": "uint256",
          "name": "",
          "type": "uint256"
        }
      ],
      "stateMutability": "view",
      "type": "function",
      "constant": true
    },
    {
      "inputs": [],
      "name": "traffic_violations_length",
      "outputs": [
        {
          "internalType": "uint256",
          "name": "",
          "type": "uint256"
        }
      ],
      "stateMutability": "view",
      "type": "function",
      "constant": true
    },
    {
      "inputs": [],
      "name": "manufactures_length",
      "outputs": [
        {
          "internalType": "uint256",
          "name": "",
          "type": "uint256"
        }
      ],
      "stateMutability": "view",
      "type": "function",
      "constant": true
    },
    {
      "inputs": [],
      "name": "transactions_length",
      "outputs": [
        {
          "internalType": "uint256",
          "name": "",
          "type": "uint256"
        }
      ],
      "stateMutability": "view",
      "type": "function",
      "constant": true
    },
    {
      "inputs": [],
      "name": "licenses_length",
      "outputs": [
        {
          "internalType": "uint256",
          "name": "",
          "type": "uint256"
        }
      ],
      "stateMutability": "view",
      "type": "function",
      "constant": true
    },
    {
      "inputs": [
        {
          "internalType": "address",
          "name": "a",
          "type": "address"
        },
        {
          "internalType": "address",
          "name": "b",
          "type": "address"
        }
      ],
      "name": "compareAddress",
      "outputs": [
        {
          "internalType": "bool",
          "name": "",
          "type": "bool"
        }
      ],
      "stateMutability": "pure",
      "type": "function",
      "constant": true
    },
    {
      "inputs": [
        {
          "internalType": "uint256",
          "name": "a",
          "type": "uint256"
        },
        {
          "internalType": "uint256",
          "name": "b",
          "type": "uint256"
        }
      ],
      "name": "compareUint",
      "outputs": [
        {
          "internalType": "bool",
          "name": "",
          "type": "bool"
        }
      ],
      "stateMutability": "pure",
      "type": "function",
      "constant": true
    },
    {
      "inputs": [
        {
          "internalType": "string",
          "name": "a",
          "type": "string"
        },
        {
          "internalType": "string",
          "name": "b",
          "type": "string"
        }
      ],
      "name": "compareStrings",
      "outputs": [
        {
          "internalType": "bool",
          "name": "",
          "type": "bool"
        }
      ],
      "stateMutability": "pure",
      "type": "function",
      "constant": true
    }
  ],
  "bytecode": "0x608060405234801561001057600080fd5b5033600760006101000a81548173ffffffffffffffffffffffffffffffffffffffff021916908373ffffffffffffffffffffffffffffffffffffffff160217905550615b7380620000626000396000f3fe608060405234801561001057600080fd5b506004361061021b5760003560e01c80639ace38c211610125578063c55cbaec116100ad578063e19507e81161007c578063e19507e81461070f578063e8de09c41461073f578063ed66aa1b1461075b578063f2611dc014610779578063fe813408146107a95761021b565b8063c55cbaec14610673578063cb7fdbaa14610691578063ce83f37f146106c1578063e0669ccd146106f15761021b565b8063b20d4d5b116100f4578063b20d4d5b1461059d578063b4e74eb8146105bb578063b72d755c146105eb578063b8ba95fa14610609578063bed34bba146106435761021b565b80639ace38c2146104fd578063a1f8959e14610532578063aabab9641461054e578063b0a951c21461057f5761021b565b806358467dbc116101a85780637cea8a33116101775780637cea8a33146104435780638859c8b1146104615780638c6ba8fc1461049157806395a2b0fb146104af57806395e885c0146104cd5761021b565b806358467dbc1461038057806364787341146103b05780636e290158146103e3578063700a6102146104135761021b565b806333790845116101ef57806333790845146102a9578063365b98b2146102de57806340b250f914610314578063446ca94c14610344578063451d6716146103625761021b565b806285ae2b146102205780630937e74114610251578063167f11981461026f578063305829781461028d575b600080fd5b61023a60048036038101906102359190613f10565b6107c7565b604051610248929190613fe5565b60405180910390f35b610259610883565b6040516102669190614015565b60405180910390f35b610277610890565b6040516102849190614015565b60405180910390f35b6102a760048036038101906102a29190614165565b61089d565b005b6102c360048036038101906102be9190613f10565b6109a0565b6040516102d596959493929190614238565b60405180910390f35b6102f860048036038101906102f39190613f10565b610b09565b60405161030b9796959493929190614330565b60405180910390f35b61032e600480360381019061032991906143ee565b610e30565b60405161033b9190614434565b60405180910390f35b61034c610edf565b60405161035991906145a7565b60405180910390f35b61036a610fda565b6040516103779190614015565b60405180910390f35b61039a600480360381019061039591906145c9565b610fe7565b6040516103a79190614434565b60405180910390f35b6103ca60048036038101906103c59190613f10565b6111ca565b6040516103da9493929190614641565b60405180910390f35b6103fd60048036038101906103f8919061469b565b6113a2565b60405161040a9190614725565b60405180910390f35b61042d60048036038101906104289190613f10565b6114e1565b60405161043a9190614877565b60405180910390f35b61044b611986565b60405161045891906149cc565b60405180910390f35b61047b600480360381019061047691906149ee565b611ba5565b6040516104889190614725565b60405180910390f35b610499611c67565b6040516104a69190614015565b60405180910390f35b6104b7611c74565b6040516104c49190614015565b60405180910390f35b6104e760048036038101906104e29190614a79565b611c81565b6040516104f49190614725565b60405180910390f35b61051760048036038101906105129190613f10565b611cda565b60405161052996959493929190614ab9565b60405180910390f35b61054c60048036038101906105479190614165565b611f46565b005b61056860048036038101906105639190613f10565b612049565b604051610576929190613fe5565b60405180910390f35b610587612105565b6040516105949190614c88565b60405180910390f35b6105a56122e1565b6040516105b29190614015565b60405180910390f35b6105d560048036038101906105d09190614caa565b6122ed565b6040516105e29190614725565b60405180910390f35b6105f3612346565b6040516106009190614de9565b60405180910390f35b610623600480360381019061061e9190613f10565b612441565b60405161063a9b9a99989796959493929190614e0b565b60405180910390f35b61065d600480360381019061065891906145c9565b61287d565b60405161066a9190614725565b60405180910390f35b61067b6128d6565b60405161068891906150c2565b60405180910390f35b6106ab60048036038101906106a69190614165565b612d9e565b6040516106b89190614725565b60405180910390f35b6106db60048036038101906106d691906150e4565b612e2c565b6040516106e89190614725565b60405180910390f35b6106f9612f40565b6040516107069190614015565b60405180910390f35b61072960048036038101906107249190613f10565b612f4d565b604051610736919061523d565b60405180910390f35b610759600480360381019061075491906152b0565b6132f4565b005b610763613525565b60405161077091906155e2565b60405180910390f35b610793600480360381019061078e9190615629565b6138ef565b6040516107a09190614725565b60405180910390f35b6107b1613a95565b6040516107be91906158b7565b60405180910390f35b600181815481106107d757600080fd5b906000526020600020906002020160009150905080600001549080600101805461080090615908565b80601f016020809104026020016040519081016040528092919081815260200182805461082c90615908565b80156108795780601f1061084e57610100808354040283529160200191610879565b820191906000526020600020905b81548152906001019060200180831161085c57829003601f168201915b5050505050905082565b6000600380549050905090565b6000600680549050905090565b600760009054906101000a900473ffffffffffffffffffffffffffffffffffffffff1673ffffffffffffffffffffffffffffffffffffffff163373ffffffffffffffffffffffffffffffffffffffff161461092d576040517f08c379a000000000000000000000000000000000000000000000000000000000815260040161092490615985565b60405180910390fd5b600060405180604001604052808481526020018381525090506000819080600181540180825580915050600190039060005260206000209060020201600090919091909150600082015181600001556020820151816001019080519060200190610998929190613d50565b505050505050565b600681815481106109b057600080fd5b90600052602060002090600602016000915090508060000154908060010154908060020180546109df90615908565b80601f0160208091040260200160405190810160405280929190818152602001828054610a0b90615908565b8015610a585780601f10610a2d57610100808354040283529160200191610a58565b820191906000526020600020905b815481529060010190602001808311610a3b57829003601f168201915b505050505090806003018054610a6d90615908565b80601f0160208091040260200160405190810160405280929190818152602001828054610a9990615908565b8015610ae65780601f10610abb57610100808354040283529160200191610ae6565b820191906000526020600020905b815481529060010190602001808311610ac957829003601f168201915b5050505050908060040154908060050160009054906101000a900460ff16905086565b60038181548110610b1957600080fd5b90600052602060002090600702016000915090508060000160009054906101000a900473ffffffffffffffffffffffffffffffffffffffff1690806001018054610b6290615908565b80601f0160208091040260200160405190810160405280929190818152602001828054610b8e90615908565b8015610bdb5780601f10610bb057610100808354040283529160200191610bdb565b820191906000526020600020905b815481529060010190602001808311610bbe57829003601f168201915b505050505090806002018054610bf090615908565b80601f0160208091040260200160405190810160405280929190818152602001828054610c1c90615908565b8015610c695780601f10610c3e57610100808354040283529160200191610c69565b820191906000526020600020905b815481529060010190602001808311610c4c57829003601f168201915b505050505090806003018054610c7e90615908565b80601f0160208091040260200160405190810160405280929190818152602001828054610caa90615908565b8015610cf75780601f10610ccc57610100808354040283529160200191610cf7565b820191906000526020600020905b815481529060010190602001808311610cda57829003601f168201915b505050505090806004018054610d0c90615908565b80601f0160208091040260200160405190810160405280929190818152602001828054610d3890615908565b8015610d855780601f10610d5a57610100808354040283529160200191610d85565b820191906000526020600020905b815481529060010190602001808311610d6857829003601f168201915b505050505090806005018054610d9a90615908565b80601f0160208091040260200160405190810160405280929190818152602001828054610dc690615908565b8015610e135780601f10610de857610100808354040283529160200191610e13565b820191906000526020600020905b815481529060010190602001808311610df657829003601f168201915b5050505050908060060160009054906101000a900460ff16905087565b600080600090505b600380549050811015610eb557610e948360038381548110610e5d57610e5c6159a5565b5b906000526020600020906007020160000160009054906101000a900473ffffffffffffffffffffffffffffffffffffffff16611c81565b15610ea25780915050610eda565b8080610ead90615a03565b915050610e38565b507fffffffffffffffffffffffffffffffffffffffffffffffffffffffffffffffff90505b919050565b60606001805480602002602001604051908101604052809291908181526020016000905b82821015610fd1578382906000526020600020906002020160405180604001604052908160008201548152602001600182018054610f4090615908565b80601f0160208091040260200160405190810160405280929190818152602001828054610f6c90615908565b8015610fb95780601f10610f8e57610100808354040283529160200191610fb9565b820191906000526020600020905b815481529060010190602001808311610f9c57829003601f168201915b50505050508152505081526020019060010190610f03565b50505050905090565b6000600480549050905090565b600080600090505b60038054905081101561119f57600060038281548110611012576110116159a5565b5b9060005260206000209060070201600201805461102e90615908565b80601f016020809104026020016040519081016040528092919081815260200182805461105a90615908565b80156110a75780601f1061107c576101008083540402835291602001916110a7565b820191906000526020600020905b81548152906001019060200180831161108a57829003601f168201915b505050505090506000600383815481106110c4576110c36159a5565b5b906000526020600020906007020160030180546110e090615908565b80601f016020809104026020016040519081016040528092919081815260200182805461110c90615908565b80156111595780601f1061112e57610100808354040283529160200191611159565b820191906000526020600020905b81548152906001019060200180831161113c57829003601f168201915b5050505050905061116a828761287d565b1561118a57611179818661287d565b15611189578293505050506111c4565b5b5050808061119790615a03565b915050610fef565b507fffffffffffffffffffffffffffffffffffffffffffffffffffffffffffffffff90505b92915050565b600481815481106111da57600080fd5b906000526020600020906004020160009150905080600001549080600101805461120390615908565b80601f016020809104026020016040519081016040528092919081815260200182805461122f90615908565b801561127c5780601f106112515761010080835404028352916020019161127c565b820191906000526020600020905b81548152906001019060200180831161125f57829003601f168201915b50505050509080600201805461129190615908565b80601f01602080910402602001604051908101604052809291908181526020018280546112bd90615908565b801561130a5780601f106112df5761010080835404028352916020019161130a565b820191906000526020600020905b8154815290600101906020018083116112ed57829003601f168201915b50505050509080600301805461131f90615908565b80601f016020809104026020016040519081016040528092919081815260200182805461134b90615908565b80156113985780601f1061136d57610100808354040283529160200191611398565b820191906000526020600020905b81548152906001019060200180831161137b57829003601f168201915b5050505050905084565b6000600760009054906101000a900473ffffffffffffffffffffffffffffffffffffffff1673ffffffffffffffffffffffffffffffffffffffff163373ffffffffffffffffffffffffffffffffffffffff1614611434576040517f08c379a000000000000000000000000000000000000000000000000000000000815260040161142b90615985565b60405180910390fd5b60005b6001805490508110156114d45761144e85826122ed565b156114c1578360018281548110611468576114676159a5565b5b9060005260206000209060020201600001819055508260018281548110611492576114916159a5565b5b906000526020600020906002020160010190805190602001906114b6929190613d50565b5060019150506114da565b80806114cc90615a03565b915050611437565b50600090505b9392505050565b6114e9613dd6565b600282815481106114fd576114fc6159a5565b5b90600052602060002090600b02016040518061016001604052908160008201805461152790615908565b80601f016020809104026020016040519081016040528092919081815260200182805461155390615908565b80156115a05780601f10611575576101008083540402835291602001916115a0565b820191906000526020600020905b81548152906001019060200180831161158357829003601f168201915b505050505081526020016001820180546115b990615908565b80601f01602080910402602001604051908101604052809291908181526020018280546115e590615908565b80156116325780601f1061160757610100808354040283529160200191611632565b820191906000526020600020905b81548152906001019060200180831161161557829003601f168201915b5050505050815260200160028201805461164b90615908565b80601f016020809104026020016040519081016040528092919081815260200182805461167790615908565b80156116c45780601f10611699576101008083540402835291602001916116c4565b820191906000526020600020905b8154815290600101906020018083116116a757829003601f168201915b505050505081526020016003820180546116dd90615908565b80601f016020809104026020016040519081016040528092919081815260200182805461170990615908565b80156117565780601f1061172b57610100808354040283529160200191611756565b820191906000526020600020905b81548152906001019060200180831161173957829003601f168201915b5050505050815260200160048201805461176f90615908565b80601f016020809104026020016040519081016040528092919081815260200182805461179b90615908565b80156117e85780601f106117bd576101008083540402835291602001916117e8565b820191906000526020600020905b8154815290600101906020018083116117cb57829003601f168201915b505050505081526020016005820154815260200160068201805461180b90615908565b80601f016020809104026020016040519081016040528092919081815260200182805461183790615908565b80156118845780601f1061185957610100808354040283529160200191611884565b820191906000526020600020905b81548152906001019060200180831161186757829003601f168201915b5050505050815260200160078201805461189d90615908565b80601f01602080910402602001604051908101604052809291908181526020018280546118c990615908565b80156119165780601f106118eb57610100808354040283529160200191611916565b820191906000526020600020905b8154815290600101906020018083116118f957829003601f168201915b505050505081526020016008820160009054906101000a900460ff1615151515815260200160098201548152602001600a820160009054906101000a900460ff166002811115611969576119686141c1565b5b600281111561197b5761197a6141c1565b5b815250509050919050565b60606004805480602002602001604051908101604052809291908181526020016000905b82821015611b9c5783829060005260206000209060040201604051806080016040529081600082015481526020016001820180546119e790615908565b80601f0160208091040260200160405190810160405280929190818152602001828054611a1390615908565b8015611a605780601f10611a3557610100808354040283529160200191611a60565b820191906000526020600020905b815481529060010190602001808311611a4357829003601f168201915b50505050508152602001600282018054611a7990615908565b80601f0160208091040260200160405190810160405280929190818152602001828054611aa590615908565b8015611af25780601f10611ac757610100808354040283529160200191611af2565b820191906000526020600020905b815481529060010190602001808311611ad557829003601f168201915b50505050508152602001600382018054611b0b90615908565b80601f0160208091040260200160405190810160405280929190818152602001828054611b3790615908565b8015611b845780601f10611b5957610100808354040283529160200191611b84565b820191906000526020600020905b815481529060010190602001808311611b6757829003601f168201915b505050505081525050815260200190600101906119aa565b50505050905090565b600080600090505b600380549050811015611c5a57611bc481866122ed565b15611c47578260038281548110611bde57611bdd6159a5565b5b90600052602060002090600702016003019080519060200190611c02929190613d50565b508360038281548110611c1857611c176159a5565b5b90600052602060002090600702016004019080519060200190611c3c929190613d50565b506001915050611c60565b8080611c5290615a03565b915050611bad565b50600090505b9392505050565b6000600180549050905090565b6000600280549050905090565b600081604051602001611c949190615a93565b6040516020818303038152906040528051906020012083604051602001611cbb9190615a93565b6040516020818303038152906040528051906020012014905092915050565b60058181548110611cea57600080fd5b9060005260206000209060060201600091509050806000015490806001018054611d1390615908565b80601f0160208091040260200160405190810160405280929190818152602001828054611d3f90615908565b8015611d8c5780601f10611d6157610100808354040283529160200191611d8c565b820191906000526020600020905b815481529060010190602001808311611d6f57829003601f168201915b505050505090806002018054611da190615908565b80601f0160208091040260200160405190810160405280929190818152602001828054611dcd90615908565b8015611e1a5780601f10611def57610100808354040283529160200191611e1a565b820191906000526020600020905b815481529060010190602001808311611dfd57829003601f168201915b505050505090806003015490806004018054611e3590615908565b80601f0160208091040260200160405190810160405280929190818152602001828054611e6190615908565b8015611eae5780601f10611e8357610100808354040283529160200191611eae565b820191906000526020600020905b815481529060010190602001808311611e9157829003601f168201915b505050505090806005018054611ec390615908565b80601f0160208091040260200160405190810160405280929190818152602001828054611eef90615908565b8015611f3c5780601f10611f1157610100808354040283529160200191611f3c565b820191906000526020600020905b815481529060010190602001808311611f1f57829003601f168201915b5050505050905086565b600760009054906101000a900473ffffffffffffffffffffffffffffffffffffffff1673ffffffffffffffffffffffffffffffffffffffff163373ffffffffffffffffffffffffffffffffffffffff1614611fd6576040517f08c379a0000000000000000000000000000000000000000000000000000000008152600401611fcd90615985565b60405180910390fd5b600060405180604001604052808481526020018381525090506001819080600181540180825580915050600190039060005260206000209060020201600090919091909150600082015181600001556020820151816001019080519060200190612041929190613d50565b505050505050565b6000818154811061205957600080fd5b906000526020600020906002020160009150905080600001549080600101805461208290615908565b80601f01602080910402602001604051908101604052809291908181526020018280546120ae90615908565b80156120fb5780601f106120d0576101008083540402835291602001916120fb565b820191906000526020600020905b8154815290600101906020018083116120de57829003601f168201915b5050505050905082565b60606006805480602002602001604051908101604052809291908181526020016000905b828210156122d857838290600052602060002090600602016040518060c0016040529081600082015481526020016001820154815260200160028201805461217090615908565b80601f016020809104026020016040519081016040528092919081815260200182805461219c90615908565b80156121e95780601f106121be576101008083540402835291602001916121e9565b820191906000526020600020905b8154815290600101906020018083116121cc57829003601f168201915b5050505050815260200160038201805461220290615908565b80601f016020809104026020016040519081016040528092919081815260200182805461222e90615908565b801561227b5780601f106122505761010080835404028352916020019161227b565b820191906000526020600020905b81548152906001019060200180831161225e57829003601f168201915b50505050508152602001600482015481526020016005820160009054906101000a900460ff1660028111156122b3576122b26141c1565b5b60028111156122c5576122c46141c1565b5b8152505081526020019060010190612129565b50505050905090565b60008080549050905090565b6000816040516020016123009190615acf565b60405160208183030381529060405280519060200120836040516020016123279190615acf565b6040516020818303038152906040528051906020012014905092915050565b60606000805480602002602001604051908101604052809291908181526020016000905b828210156124385783829060005260206000209060020201604051806040016040529081600082015481526020016001820180546123a790615908565b80601f01602080910402602001604051908101604052809291908181526020018280546123d390615908565b80156124205780601f106123f557610100808354040283529160200191612420565b820191906000526020600020905b81548152906001019060200180831161240357829003601f168201915b5050505050815250508152602001906001019061236a565b50505050905090565b6002818154811061245157600080fd5b90600052602060002090600b020160009150905080600001805461247490615908565b80601f01602080910402602001604051908101604052809291908181526020018280546124a090615908565b80156124ed5780601f106124c2576101008083540402835291602001916124ed565b820191906000526020600020905b8154815290600101906020018083116124d057829003601f168201915b50505050509080600101805461250290615908565b80601f016020809104026020016040519081016040528092919081815260200182805461252e90615908565b801561257b5780601f106125505761010080835404028352916020019161257b565b820191906000526020600020905b81548152906001019060200180831161255e57829003601f168201915b50505050509080600201805461259090615908565b80601f01602080910402602001604051908101604052809291908181526020018280546125bc90615908565b80156126095780601f106125de57610100808354040283529160200191612609565b820191906000526020600020905b8154815290600101906020018083116125ec57829003601f168201915b50505050509080600301805461261e90615908565b80601f016020809104026020016040519081016040528092919081815260200182805461264a90615908565b80156126975780601f1061266c57610100808354040283529160200191612697565b820191906000526020600020905b81548152906001019060200180831161267a57829003601f168201915b5050505050908060040180546126ac90615908565b80601f01602080910402602001604051908101604052809291908181526020018280546126d890615908565b80156127255780601f106126fa57610100808354040283529160200191612725565b820191906000526020600020905b81548152906001019060200180831161270857829003601f168201915b50505050509080600501549080600601805461274090615908565b80601f016020809104026020016040519081016040528092919081815260200182805461276c90615908565b80156127b95780601f1061278e576101008083540402835291602001916127b9565b820191906000526020600020905b81548152906001019060200180831161279c57829003601f168201915b5050505050908060070180546127ce90615908565b80601f01602080910402602001604051908101604052809291908181526020018280546127fa90615908565b80156128475780601f1061281c57610100808354040283529160200191612847565b820191906000526020600020905b81548152906001019060200180831161282a57829003601f168201915b5050505050908060080160009054906101000a900460ff169080600901549080600a0160009054906101000a900460ff1690508b565b6000816040516020016128909190615b26565b60405160208183030381529060405280519060200120836040516020016128b79190615b26565b6040516020818303038152906040528051906020012014905092915050565b60606002805480602002602001604051908101604052809291908181526020016000905b82821015612d9557838290600052602060002090600b02016040518061016001604052908160008201805461292e90615908565b80601f016020809104026020016040519081016040528092919081815260200182805461295a90615908565b80156129a75780601f1061297c576101008083540402835291602001916129a7565b820191906000526020600020905b81548152906001019060200180831161298a57829003601f168201915b505050505081526020016001820180546129c090615908565b80601f01602080910402602001604051908101604052809291908181526020018280546129ec90615908565b8015612a395780601f10612a0e57610100808354040283529160200191612a39565b820191906000526020600020905b815481529060010190602001808311612a1c57829003601f168201915b50505050508152602001600282018054612a5290615908565b80601f0160208091040260200160405190810160405280929190818152602001828054612a7e90615908565b8015612acb5780601f10612aa057610100808354040283529160200191612acb565b820191906000526020600020905b815481529060010190602001808311612aae57829003601f168201915b50505050508152602001600382018054612ae490615908565b80601f0160208091040260200160405190810160405280929190818152602001828054612b1090615908565b8015612b5d5780601f10612b3257610100808354040283529160200191612b5d565b820191906000526020600020905b815481529060010190602001808311612b4057829003601f168201915b50505050508152602001600482018054612b7690615908565b80601f0160208091040260200160405190810160405280929190818152602001828054612ba290615908565b8015612bef5780601f10612bc457610100808354040283529160200191612bef565b820191906000526020600020905b815481529060010190602001808311612bd257829003601f168201915b5050505050815260200160058201548152602001600682018054612c1290615908565b80601f0160208091040260200160405190810160405280929190818152602001828054612c3e90615908565b8015612c8b5780601f10612c6057610100808354040283529160200191612c8b565b820191906000526020600020905b815481529060010190602001808311612c6e57829003601f168201915b50505050508152602001600782018054612ca490615908565b80601f0160208091040260200160405190810160405280929190818152602001828054612cd090615908565b8015612d1d5780601f10612cf257610100808354040283529160200191612d1d565b820191906000526020600020905b815481529060010190602001808311612d0057829003601f168201915b505050505081526020016008820160009054906101000a900460ff1615151515815260200160098201548152602001600a820160009054906101000a900460ff166002811115612d7057612d6f6141c1565b5b6002811115612d8257612d816141c1565b5b81525050815260200190600101906128fa565b50505050905090565b600080600090505b600080549050811015612e20576000819050612dc281866122ed565b15612e0c578360008381548110612ddc57612ddb6159a5565b5b90600052602060002090600202016001019080519060200190612e00929190613d50565b50600192505050612e26565b508080612e1890615a03565b915050612da6565b50600090505b92915050565b6000806000905060005b600080549050811015612e8f57612e728760008381548110612e5b57612e5a6159a5565b5b9060005260206000209060020201600001546122ed565b15612e7c57600191505b8080612e8790615a03565b915050612e36565b5060005b600280549050811015612f3157612eaa86826122ed565b15612f1e578360028281548110612ec457612ec36159a5565b5b90600052602060002090600b02016006019080519060200190612ee8929190613d50565b508460028281548110612efe57612efd6159a5565b5b90600052602060002090600b020160090181905550600192505050612f38565b8080612f2990615a03565b915050612e93565b5060009150505b949350505050565b6000600580549050905090565b612f55613e44565b60038281548110612f6957612f686159a5565b5b90600052602060002090600702016040518060e00160405290816000820160009054906101000a900473ffffffffffffffffffffffffffffffffffffffff1673ffffffffffffffffffffffffffffffffffffffff1673ffffffffffffffffffffffffffffffffffffffff168152602001600182018054612fe890615908565b80601f016020809104026020016040519081016040528092919081815260200182805461301490615908565b80156130615780601f1061303657610100808354040283529160200191613061565b820191906000526020600020905b81548152906001019060200180831161304457829003601f168201915b5050505050815260200160028201805461307a90615908565b80601f01602080910402602001604051908101604052809291908181526020018280546130a690615908565b80156130f35780601f106130c8576101008083540402835291602001916130f3565b820191906000526020600020905b8154815290600101906020018083116130d657829003601f168201915b5050505050815260200160038201805461310c90615908565b80601f016020809104026020016040519081016040528092919081815260200182805461313890615908565b80156131855780601f1061315a57610100808354040283529160200191613185565b820191906000526020600020905b81548152906001019060200180831161316857829003601f168201915b5050505050815260200160048201805461319e90615908565b80601f01602080910402602001604051908101604052809291908181526020018280546131ca90615908565b80156132175780601f106131ec57610100808354040283529160200191613217565b820191906000526020600020905b8154815290600101906020018083116131fa57829003601f168201915b5050505050815260200160058201805461323090615908565b80601f016020809104026020016040519081016040528092919081815260200182805461325c90615908565b80156132a95780601f1061327e576101008083540402835291602001916132a9565b820191906000526020600020905b81548152906001019060200180831161328c57829003601f168201915b505050505081526020016006820160009054906101000a900460ff1660038111156132d7576132d66141c1565b5b60038111156132e9576132e86141c1565b5b815250509050919050565b6000805b600080549050811015613351576133348d6000838154811061331d5761331c6159a5565b5b9060005260206000209060020201600001546122ed565b1561333e57600191505b808061334990615a03565b9150506132f8565b5060006040518061016001604052808d81526020018c81526020018b81526020018a81526020018981526020018e815260200188815260200187815260200186151581526020018481526020018560028111156133b1576133b06141c1565b5b815250905060028190806001815401808255809150506001900390600052602060002090600b020160009091909190915060008201518160000190805190602001906133fe929190613d50565b50602082015181600101908051906020019061341b929190613d50565b506040820151816002019080519060200190613438929190613d50565b506060820151816003019080519060200190613455929190613d50565b506080820151816004019080519060200190613472929190613d50565b5060a0820151816005015560c0820151816006019080519060200190613499929190613d50565b5060e08201518160070190805190602001906134b6929190613d50565b506101008201518160080160006101000a81548160ff021916908315150217905550610120820151816009015561014082015181600a0160006101000a81548160ff0219169083600281111561350f5761350e6141c1565b5b0217905550505050505050505050505050505050565b60606003805480602002602001604051908101604052809291908181526020016000905b828210156138e657838290600052602060002090600702016040518060e00160405290816000820160009054906101000a900473ffffffffffffffffffffffffffffffffffffffff1673ffffffffffffffffffffffffffffffffffffffff1673ffffffffffffffffffffffffffffffffffffffff1681526020016001820180546135d290615908565b80601f01602080910402602001604051908101604052809291908181526020018280546135fe90615908565b801561364b5780601f106136205761010080835404028352916020019161364b565b820191906000526020600020905b81548152906001019060200180831161362e57829003601f168201915b5050505050815260200160028201805461366490615908565b80601f016020809104026020016040519081016040528092919081815260200182805461369090615908565b80156136dd5780601f106136b2576101008083540402835291602001916136dd565b820191906000526020600020905b8154815290600101906020018083116136c057829003601f168201915b505050505081526020016003820180546136f690615908565b80601f016020809104026020016040519081016040528092919081815260200182805461372290615908565b801561376f5780601f106137445761010080835404028352916020019161376f565b820191906000526020600020905b81548152906001019060200180831161375257829003601f168201915b5050505050815260200160048201805461378890615908565b80601f01602080910402602001604051908101604052809291908181526020018280546137b490615908565b80156138015780601f106137d657610100808354040283529160200191613801565b820191906000526020600020905b8154815290600101906020018083116137e457829003601f168201915b5050505050815260200160058201805461381a90615908565b80601f016020809104026020016040519081016040528092919081815260200182805461384690615908565b80156138935780601f1061386857610100808354040283529160200191613893565b820191906000526020600020905b81548152906001019060200180831161387657829003601f168201915b505050505081526020016006820160009054906101000a900460ff1660038111156138c1576138c06141c1565b5b60038111156138d3576138d26141c1565b5b8152505081526020019060010190613549565b50505050905090565b6000806040518060e001604052808a73ffffffffffffffffffffffffffffffffffffffff16815260200189815260200188815260200186815260200187815260200185815260200184600381111561394a576139496141c1565b5b8152509050600381908060018154018082558091505060019003906000526020600020906007020160009091909190915060008201518160000160006101000a81548173ffffffffffffffffffffffffffffffffffffffff021916908373ffffffffffffffffffffffffffffffffffffffff16021790555060208201518160010190805190602001906139de929190613d50565b5060408201518160020190805190602001906139fb929190613d50565b506060820151816003019080519060200190613a18929190613d50565b506080820151816004019080519060200190613a35929190613d50565b5060a0820151816005019080519060200190613a52929190613d50565b5060c08201518160060160006101000a81548160ff02191690836003811115613a7e57613a7d6141c1565b5b021790555050506001915050979650505050505050565b60606005805480602002602001604051908101604052809291908181526020016000905b82821015613d4757838290600052602060002090600602016040518060c001604052908160008201548152602001600182018054613af690615908565b80601f0160208091040260200160405190810160405280929190818152602001828054613b2290615908565b8015613b6f5780601f10613b4457610100808354040283529160200191613b6f565b820191906000526020600020905b815481529060010190602001808311613b5257829003601f168201915b50505050508152602001600282018054613b8890615908565b80601f0160208091040260200160405190810160405280929190818152602001828054613bb490615908565b8015613c015780601f10613bd657610100808354040283529160200191613c01565b820191906000526020600020905b815481529060010190602001808311613be457829003601f168201915b5050505050815260200160038201548152602001600482018054613c2490615908565b80601f0160208091040260200160405190810160405280929190818152602001828054613c5090615908565b8015613c9d5780601f10613c7257610100808354040283529160200191613c9d565b820191906000526020600020905b815481529060010190602001808311613c8057829003601f168201915b50505050508152602001600582018054613cb690615908565b80601f0160208091040260200160405190810160405280929190818152602001828054613ce290615908565b8015613d2f5780601f10613d0457610100808354040283529160200191613d2f565b820191906000526020600020905b815481529060010190602001808311613d1257829003601f168201915b50505050508152505081526020019060010190613ab9565b50505050905090565b828054613d5c90615908565b90600052602060002090601f016020900481019282613d7e5760008555613dc5565b82601f10613d9757805160ff1916838001178555613dc5565b82800160010185558215613dc5579182015b82811115613dc4578251825591602001919060010190613da9565b5b509050613dd29190613ea9565b5090565b60405180610160016040528060608152602001606081526020016060815260200160608152602001606081526020016000815260200160608152602001606081526020016000151581526020016000815260200160006002811115613e3e57613e3d6141c1565b5b81525090565b6040518060e00160405280600073ffffffffffffffffffffffffffffffffffffffff168152602001606081526020016060815260200160608152602001606081526020016060815260200160006003811115613ea357613ea26141c1565b5b81525090565b5b80821115613ec2576000816000905550600101613eaa565b5090565b6000604051905090565b600080fd5b600080fd5b6000819050919050565b613eed81613eda565b8114613ef857600080fd5b50565b600081359050613f0a81613ee4565b92915050565b600060208284031215613f2657613f25613ed0565b5b6000613f3484828501613efb565b91505092915050565b613f4681613eda565b82525050565b600081519050919050565b600082825260208201905092915050565b60005b83811015613f86578082015181840152602081019050613f6b565b83811115613f95576000848401525b50505050565b6000601f19601f8301169050919050565b6000613fb782613f4c565b613fc18185613f57565b9350613fd1818560208601613f68565b613fda81613f9b565b840191505092915050565b6000604082019050613ffa6000830185613f3d565b818103602083015261400c8184613fac565b90509392505050565b600060208201905061402a6000830184613f3d565b92915050565b600080fd5b600080fd5b7f4e487b7100000000000000000000000000000000000000000000000000000000600052604160045260246000fd5b61407282613f9b565b810181811067ffffffffffffffff821117156140915761409061403a565b5b80604052505050565b60006140a4613ec6565b90506140b08282614069565b919050565b600067ffffffffffffffff8211156140d0576140cf61403a565b5b6140d982613f9b565b9050602081019050919050565b82818337600083830152505050565b6000614108614103846140b5565b61409a565b90508281526020810184848401111561412457614123614035565b5b61412f8482856140e6565b509392505050565b600082601f83011261414c5761414b614030565b5b813561415c8482602086016140f5565b91505092915050565b6000806040838503121561417c5761417b613ed0565b5b600061418a85828601613efb565b925050602083013567ffffffffffffffff8111156141ab576141aa613ed5565b5b6141b785828601614137565b9150509250929050565b7f4e487b7100000000000000000000000000000000000000000000000000000000600052602160045260246000fd5b60038110614201576142006141c1565b5b50565b6000819050614212826141f0565b919050565b600061422282614204565b9050919050565b61423281614217565b82525050565b600060c08201905061424d6000830189613f3d565b61425a6020830188613f3d565b818103604083015261426c8187613fac565b905081810360608301526142808186613fac565b905061428f6080830185613f3d565b61429c60a0830184614229565b979650505050505050565b600073ffffffffffffffffffffffffffffffffffffffff82169050919050565b60006142d2826142a7565b9050919050565b6142e2816142c7565b82525050565b600481106142f9576142f86141c1565b5b50565b600081905061430a826142e8565b919050565b600061431a826142fc565b9050919050565b61432a8161430f565b82525050565b600060e082019050614345600083018a6142d9565b81810360208301526143578189613fac565b9050818103604083015261436b8188613fac565b9050818103606083015261437f8187613fac565b905081810360808301526143938186613fac565b905081810360a08301526143a78185613fac565b90506143b660c0830184614321565b98975050505050505050565b6143cb816142c7565b81146143d657600080fd5b50565b6000813590506143e8816143c2565b92915050565b60006020828403121561440457614403613ed0565b5b6000614412848285016143d9565b91505092915050565b6000819050919050565b61442e8161441b565b82525050565b60006020820190506144496000830184614425565b92915050565b600081519050919050565b600082825260208201905092915050565b6000819050602082019050919050565b61448481613eda565b82525050565b600082825260208201905092915050565b60006144a682613f4c565b6144b0818561448a565b93506144c0818560208601613f68565b6144c981613f9b565b840191505092915050565b60006040830160008301516144ec600086018261447b565b5060208301518482036020860152614504828261449b565b9150508091505092915050565b600061451d83836144d4565b905092915050565b6000602082019050919050565b600061453d8261444f565b614547818561445a565b9350836020820285016145598561446b565b8060005b8581101561459557848403895281516145768582614511565b945061458183614525565b925060208a0199505060018101905061455d565b50829750879550505050505092915050565b600060208201905081810360008301526145c18184614532565b905092915050565b600080604083850312156145e0576145df613ed0565b5b600083013567ffffffffffffffff8111156145fe576145fd613ed5565b5b61460a85828601614137565b925050602083013567ffffffffffffffff81111561462b5761462a613ed5565b5b61463785828601614137565b9150509250929050565b60006080820190506146566000830187613f3d565b81810360208301526146688186613fac565b9050818103604083015261467c8185613fac565b905081810360608301526146908184613fac565b905095945050505050565b6000806000606084860312156146b4576146b3613ed0565b5b60006146c286828701613efb565b93505060206146d386828701613efb565b925050604084013567ffffffffffffffff8111156146f4576146f3613ed5565b5b61470086828701614137565b9150509250925092565b60008115159050919050565b61471f8161470a565b82525050565b600060208201905061473a6000830184614716565b92915050565b6147498161470a565b82525050565b61475881614217565b82525050565b600061016083016000830151848203600086015261477c828261449b565b91505060208301518482036020860152614796828261449b565b915050604083015184820360408601526147b0828261449b565b915050606083015184820360608601526147ca828261449b565b915050608083015184820360808601526147e4828261449b565b91505060a08301516147f960a086018261447b565b5060c083015184820360c0860152614811828261449b565b91505060e083015184820360e086015261482b828261449b565b915050610100830151614842610100860182614740565b5061012083015161485761012086018261447b565b5061014083015161486c61014086018261474f565b508091505092915050565b60006020820190508181036000830152614891818461475e565b905092915050565b600081519050919050565b600082825260208201905092915050565b6000819050602082019050919050565b60006080830160008301516148dd600086018261447b565b50602083015184820360208601526148f5828261449b565b9150506040830151848203604086015261490f828261449b565b91505060608301518482036060860152614929828261449b565b9150508091505092915050565b600061494283836148c5565b905092915050565b6000602082019050919050565b600061496282614899565b61496c81856148a4565b93508360208202850161497e856148b5565b8060005b858110156149ba578484038952815161499b8582614936565b94506149a68361494a565b925060208a01995050600181019050614982565b50829750879550505050505092915050565b600060208201905081810360008301526149e68184614957565b905092915050565b600080600060608486031215614a0757614a06613ed0565b5b6000614a1586828701613efb565b935050602084013567ffffffffffffffff811115614a3657614a35613ed5565b5b614a4286828701614137565b925050604084013567ffffffffffffffff811115614a6357614a62613ed5565b5b614a6f86828701614137565b9150509250925092565b60008060408385031215614a9057614a8f613ed0565b5b6000614a9e858286016143d9565b9250506020614aaf858286016143d9565b9150509250929050565b600060c082019050614ace6000830189613f3d565b8181036020830152614ae08188613fac565b90508181036040830152614af48187613fac565b9050614b036060830186613f3d565b8181036080830152614b158185613fac565b905081810360a0830152614b298184613fac565b9050979650505050505050565b600081519050919050565b600082825260208201905092915050565b6000819050602082019050919050565b600060c083016000830151614b7a600086018261447b565b506020830151614b8d602086018261447b565b5060408301518482036040860152614ba5828261449b565b91505060608301518482036060860152614bbf828261449b565b9150506080830151614bd4608086018261447b565b5060a0830151614be760a086018261474f565b508091505092915050565b6000614bfe8383614b62565b905092915050565b6000602082019050919050565b6000614c1e82614b36565b614c288185614b41565b935083602082028501614c3a85614b52565b8060005b85811015614c765784840389528151614c578582614bf2565b9450614c6283614c06565b925060208a01995050600181019050614c3e565b50829750879550505050505092915050565b60006020820190508181036000830152614ca28184614c13565b905092915050565b60008060408385031215614cc157614cc0613ed0565b5b6000614ccf85828601613efb565b9250506020614ce085828601613efb565b9150509250929050565b600081519050919050565b600082825260208201905092915050565b6000819050602082019050919050565b6000604083016000830151614d2e600086018261447b565b5060208301518482036020860152614d46828261449b565b9150508091505092915050565b6000614d5f8383614d16565b905092915050565b6000602082019050919050565b6000614d7f82614cea565b614d898185614cf5565b935083602082028501614d9b85614d06565b8060005b85811015614dd75784840389528151614db88582614d53565b9450614dc383614d67565b925060208a01995050600181019050614d9f565b50829750879550505050505092915050565b60006020820190508181036000830152614e038184614d74565b905092915050565b6000610160820190508181036000830152614e26818e613fac565b90508181036020830152614e3a818d613fac565b90508181036040830152614e4e818c613fac565b90508181036060830152614e62818b613fac565b90508181036080830152614e76818a613fac565b9050614e8560a0830189613f3d565b81810360c0830152614e978188613fac565b905081810360e0830152614eab8187613fac565b9050614ebb610100830186614716565b614ec9610120830185613f3d565b614ed7610140830184614229565b9c9b505050505050505050505050565b600081519050919050565b600082825260208201905092915050565b6000819050602082019050919050565b6000610160830160008301518482036000860152614f31828261449b565b91505060208301518482036020860152614f4b828261449b565b91505060408301518482036040860152614f65828261449b565b91505060608301518482036060860152614f7f828261449b565b91505060808301518482036080860152614f99828261449b565b91505060a0830151614fae60a086018261447b565b5060c083015184820360c0860152614fc6828261449b565b91505060e083015184820360e0860152614fe0828261449b565b915050610100830151614ff7610100860182614740565b5061012083015161500c61012086018261447b565b5061014083015161502161014086018261474f565b508091505092915050565b60006150388383614f13565b905092915050565b6000602082019050919050565b600061505882614ee7565b6150628185614ef2565b93508360208202850161507485614f03565b8060005b858110156150b05784840389528151615091858261502c565b945061509c83615040565b925060208a01995050600181019050615078565b50829750879550505050505092915050565b600060208201905081810360008301526150dc818461504d565b905092915050565b600080600080608085870312156150fe576150fd613ed0565b5b600061510c87828801613efb565b945050602061511d87828801613efb565b935050604061512e87828801613efb565b925050606085013567ffffffffffffffff81111561514f5761514e613ed5565b5b61515b87828801614137565b91505092959194509250565b615170816142c7565b82525050565b61517f8161430f565b82525050565b600060e08301600083015161519d6000860182615167565b50602083015184820360208601526151b5828261449b565b915050604083015184820360408601526151cf828261449b565b915050606083015184820360608601526151e9828261449b565b91505060808301518482036080860152615203828261449b565b91505060a083015184820360a086015261521d828261449b565b91505060c083015161523260c0860182615176565b508091505092915050565b600060208201905081810360008301526152578184615185565b905092915050565b6152688161470a565b811461527357600080fd5b50565b6000813590506152858161525f565b92915050565b6003811061529857600080fd5b50565b6000813590506152aa8161528b565b92915050565b60008060008060008060008060008060006101608c8e0312156152d6576152d5613ed0565b5b60006152e48e828f01613efb565b9b505060208c013567ffffffffffffffff81111561530557615304613ed5565b5b6153118e828f01614137565b9a505060408c013567ffffffffffffffff81111561533257615331613ed5565b5b61533e8e828f01614137565b99505060608c013567ffffffffffffffff81111561535f5761535e613ed5565b5b61536b8e828f01614137565b98505060808c013567ffffffffffffffff81111561538c5761538b613ed5565b5b6153988e828f01614137565b97505060a08c013567ffffffffffffffff8111156153b9576153b8613ed5565b5b6153c58e828f01614137565b96505060c08c013567ffffffffffffffff8111156153e6576153e5613ed5565b5b6153f28e828f01614137565b95505060e08c013567ffffffffffffffff81111561541357615412613ed5565b5b61541f8e828f01614137565b9450506101006154318e828f01615276565b9350506101206154438e828f0161529b565b9250506101406154558e828f01613efb565b9150509295989b509295989b9093969950565b600081519050919050565b600082825260208201905092915050565b6000819050602082019050919050565b600060e0830160008301516154ac6000860182615167565b50602083015184820360208601526154c4828261449b565b915050604083015184820360408601526154de828261449b565b915050606083015184820360608601526154f8828261449b565b91505060808301518482036080860152615512828261449b565b91505060a083015184820360a086015261552c828261449b565b91505060c083015161554160c0860182615176565b508091505092915050565b60006155588383615494565b905092915050565b6000602082019050919050565b600061557882615468565b6155828185615473565b93508360208202850161559485615484565b8060005b858110156155d057848403895281516155b1858261554c565b94506155bc83615560565b925060208a01995050600181019050615598565b50829750879550505050505092915050565b600060208201905081810360008301526155fc818461556d565b905092915050565b6004811061561157600080fd5b50565b60008135905061562381615604565b92915050565b600080600080600080600060e0888a03121561564857615647613ed0565b5b60006156568a828b016143d9565b975050602088013567ffffffffffffffff81111561567757615676613ed5565b5b6156838a828b01614137565b965050604088013567ffffffffffffffff8111156156a4576156a3613ed5565b5b6156b08a828b01614137565b955050606088013567ffffffffffffffff8111156156d1576156d0613ed5565b5b6156dd8a828b01614137565b945050608088013567ffffffffffffffff8111156156fe576156fd613ed5565b5b61570a8a828b01614137565b93505060a088013567ffffffffffffffff81111561572b5761572a613ed5565b5b6157378a828b01614137565b92505060c06157488a828b01615614565b91505092959891949750929550565b600081519050919050565b600082825260208201905092915050565b6000819050602082019050919050565b600060c08301600083015161579b600086018261447b565b50602083015184820360208601526157b3828261449b565b915050604083015184820360408601526157cd828261449b565b91505060608301516157e2606086018261447b565b50608083015184820360808601526157fa828261449b565b91505060a083015184820360a0860152615814828261449b565b9150508091505092915050565b600061582d8383615783565b905092915050565b6000602082019050919050565b600061584d82615757565b6158578185615762565b93508360208202850161586985615773565b8060005b858110156158a557848403895281516158868582615821565b945061589183615835565b925060208a0199505060018101905061586d565b50829750879550505050505092915050565b600060208201905081810360008301526158d18184615842565b905092915050565b7f4e487b7100000000000000000000000000000000000000000000000000000000600052602260045260246000fd5b6000600282049050600182168061592057607f821691505b602082108103615933576159326158d9565b5b50919050565b7f4163636573732064656e69656421000000000000000000000000000000000000600082015250565b600061596f600e83613f57565b915061597a82615939565b602082019050919050565b6000602082019050818103600083015261599e81615962565b9050919050565b7f4e487b7100000000000000000000000000000000000000000000000000000000600052603260045260246000fd5b7f4e487b7100000000000000000000000000000000000000000000000000000000600052601160045260246000fd5b6000615a0e82613eda565b91507fffffffffffffffffffffffffffffffffffffffffffffffffffffffffffffffff8203615a4057615a3f6159d4565b5b600182019050919050565b60008160601b9050919050565b6000615a6382615a4b565b9050919050565b6000615a7582615a58565b9050919050565b615a8d615a88826142c7565b615a6a565b82525050565b6000615a9f8284615a7c565b60148201915081905092915050565b6000819050919050565b615ac9615ac482613eda565b615aae565b82525050565b6000615adb8284615ab8565b60208201915081905092915050565b600081905092915050565b6000615b0082613f4c565b615b0a8185615aea565b9350615b1a818560208601613f68565b80840191505092915050565b6000615b328284615af5565b91508190509291505056fea2646970667358221220d0253ac0c206038b2e8647088e6003d5a7b3e829f55b28f934d6cd49d07c934a64736f6c634300080e0033",
  "immutableReferences": {},
  "source": "//SPDX-License-Identifier: MIT\r\npragma solidity ^0.8.11;\r\n\r\ncontract VehicleSystem\r\n{\r\n\r\n    // struct for traffic violations\r\n    // struct for transications\r\n    // struct for licenses and make a relation with users and cars\r\n    // enum for status pending_payment, compelete, failed\r\n    // enum types of trffic violations like (Skip the top speed, etc..) | can add a custom one if not any of other we store?\r\n    // struct for users reuqests to remove block on cars\r\n\r\n    enum Role{\r\n        CUSTOMER,\r\n        MANUFACTURE,\r\n        BANK,\r\n        ADMIN\r\n    }\r\n\r\n    enum State {\r\n        ACCEPTED,\r\n        REJECTED,\r\n        PENDING\r\n    }\r\n\r\n    struct manufacture\r\n    {\r\n        uint user_id;\r\n        string manufacture_name;\r\n    }\r\n\r\n    struct vehicle\r\n    {\r\n        string vehicle_name;\r\n        string vehicle_type;\r\n        string vehicle_model;\r\n        string vehicle_motor_number;\r\n        string vehicle_chase_number;\r\n        uint vehicle_manufacture_id;\r\n        string vehicle_color;\r\n        string vehicle_production_Year;\r\n        bool isBlocked;\r\n        uint user_id;\r\n        State state;\r\n    }\r\n\r\n    struct user\r\n    {\r\n        address user_address;\r\n        string user_name;\r\n        string user_email;\r\n        string user_password;\r\n        string user_phone;\r\n        string user_national_id;\r\n        Role role;\r\n    }\r\n\r\n    struct bank\r\n    {\r\n        uint user_id;\r\n        string bank_name;\r\n    }\r\n\r\n    // Traffic Violation\r\n    struct traffic_violation\r\n    {\r\n        uint vehicle_id;\r\n        string violation_type;\r\n        string violation_description;\r\n        string violation_status;\r\n    }\r\n\r\n    //Transactions struct\r\n    struct transaction\r\n    {\r\n        uint user_id;\r\n        string amount; // there is no floating point must bo string\r\n        string status;\r\n        uint bank_id;\r\n        string created_at;\r\n        string updated_at;\r\n        // no updated at -> tranactions is only one time\r\n    }\r\n\r\n    struct license\r\n    {\r\n        uint user_id;\r\n        uint car_id;\r\n        string status;\r\n        string expireat;\r\n        uint security_directorate_id;\r\n        State state;\r\n    }\r\n\r\n    manufacture[] public manufactures;\r\n    bank[] public banks;\r\n    vehicle[] public vehicles;\r\n    user[] public users;\r\n    traffic_violation[] public traffic_violations;\r\n    transaction[] public transactions;\r\n    license[] public licenses;\r\n\r\n    address private deployer;\r\n\r\n    constructor() {\r\n        deployer = msg.sender;\r\n    }\r\n\r\n    function register(address _user_address, string memory _user_name, string memory _user_email, string memory _user_phone, string memory _user_password, string memory _user_national_id, Role role) public returns (bool)\r\n    {\r\n        user memory temp_hold_user = user(_user_address, _user_name, _user_email, _user_password, _user_phone, _user_national_id, role);\r\n        users.push(temp_hold_user);\r\n        return true;\r\n    }\r\n\r\n    function login(string memory passed_user_email, string memory passed_user_password) public view returns (int)\r\n    {\r\n        for (uint i = 0; i < users.length; i++)\r\n        {\r\n            string memory user_name = users[i].user_email;\r\n            string memory user_password = users[i].user_password;\r\n            if (compareStrings(user_name, passed_user_email))\r\n            {\r\n                if (compareStrings(user_password, passed_user_password))\r\n                {\r\n                    return int(i);\r\n                }\r\n            }\r\n        }\r\n        return - 1;\r\n    }\r\n\r\n    function get_user(uint user_id) public view returns (user memory){\r\n        return users[user_id];\r\n    }\r\n\r\n    function get_user_id_with_address(address _user_address) public view returns (int){\r\n        for (uint i = 0; i < users.length; i++)\r\n        {\r\n            if (compareAddress(_user_address, users[i].user_address))\r\n            {\r\n                return int(i);\r\n            }\r\n        }\r\n        return -1;\r\n    }\r\n\r\n    function edit_user(uint _user_id, string memory _user_phone, string memory _user_password) public returns (bool)\r\n    {\r\n        for (uint i = 0; i < users.length; i++)\r\n        {\r\n            if (compareUint(i, _user_id))\r\n            {\r\n                users[i].user_password = _user_password;\r\n                users[i].user_phone = _user_phone;\r\n                return true;\r\n            }\r\n        }\r\n        return false;\r\n    }\r\n\r\n\r\n    function add_manufacture(uint _user_id, string memory _manufacture_name) public onlyDeployer {\r\n        manufacture memory _manufacture = manufacture(_user_id, _manufacture_name);\r\n        manufactures.push(_manufacture);\r\n    }\r\n\r\n    function edit_manufacture(uint _manufacture_id, string memory _manufacture_name) public returns (bool)\r\n    {\r\n        for (uint i = 0; i < manufactures.length; i++)\r\n        {\r\n            uint current_manufacture_id = i;\r\n            if (compareUint(current_manufacture_id, _manufacture_id))\r\n            {\r\n                manufactures[i].manufacture_name = _manufacture_name;\r\n                return true;\r\n            }\r\n        }\r\n        return false;\r\n    }\r\n\r\n    function add_bank_data(uint user_id, string memory name) public onlyDeployer {\r\n        bank memory bank_1 = bank(user_id, name);\r\n        banks.push(bank_1);\r\n    }\r\n\r\n    function edit_bank(uint bank_id, uint user_id, string memory name) public onlyDeployer returns (bool)\r\n    {\r\n        for (uint i = 0; i < banks.length; i++) {\r\n            if (compareUint(bank_id, i)) {\r\n                banks[i].user_id = user_id;\r\n                banks[i].bank_name = name;\r\n                return true;\r\n            }\r\n        }\r\n        return false;\r\n    }\r\n\r\n    function add_vehicle(\r\n        uint manufacture_user_id,\r\n        string memory vehicle_name,\r\n        string memory vehicle_type,\r\n        string memory vehicle_model,\r\n        string memory vehicle_motor_number,\r\n        string memory vehicle_chase_number,\r\n        string memory vehicle_color,\r\n        string memory vehicle_production_Year,\r\n        bool isBlocked,\r\n        State vehicle_state,\r\n        uint owner_id\r\n    ) public {\r\n        bool ok = false;\r\n        for (uint i = 0; i < manufactures.length; i++) {\r\n            if (compareUint(manufacture_user_id, manufactures[i].user_id)) {\r\n                ok = true;\r\n            }\r\n        }\r\n        //        require(ok == true, \"Sorry Only A Manufacture Can Add vehicle !\");\r\n        vehicle memory vehicle_1 = vehicle(\r\n            vehicle_name,\r\n            vehicle_type,\r\n            vehicle_model,\r\n            vehicle_motor_number,\r\n            vehicle_chase_number,\r\n            manufacture_user_id,\r\n            vehicle_color,\r\n            vehicle_production_Year,\r\n            isBlocked,\r\n            owner_id,\r\n            vehicle_state);\r\n        vehicles.push(vehicle_1);\r\n    }\r\n\r\n    function edit_vehicle(\r\n        uint _manufacture_user_id,\r\n        uint _vehicle_id,\r\n        uint _owner_id,\r\n        string memory _vehicle_color\r\n    ) public returns (bool)\r\n    {\r\n        bool ok = false;\r\n        for (uint i = 0; i < manufactures.length; i++) {\r\n            if (compareUint(_manufacture_user_id, manufactures[i].user_id)) {\r\n                ok = true;\r\n            }\r\n        }\r\n        //        require(ok == true, \"Sorry Only A Manufacture Can Edit A vehicle !\");\r\n        for (uint i = 0; i < vehicles.length; i++) {\r\n            if (compareUint(_vehicle_id, i)) {\r\n                vehicles[i].vehicle_color = _vehicle_color;\r\n                vehicles[i].user_id = _owner_id;\r\n                return true;\r\n            }\r\n        }\r\n        return false;\r\n    }\r\n\r\n    function get_vehicle(uint vehicle_id) public view returns (vehicle memory){\r\n        return vehicles[vehicle_id];\r\n    }\r\n\r\n    //    function add_license(uint passed_user_id, uint passed_car_id, string memory passed_status, string memory passed_expireat, uint passed_security_directorate_id) public returns (bool)\r\n    //    {\r\n    //        license memory temp_license = license(passed_user_id, passed_car_id, passed_status, passed_expireat, passed_security_directorate_id, State.ACCEPTED);\r\n    //        licenses.push(temp_license);\r\n    //        return true;\r\n    //    }\r\n    //\r\n    //    function edit_license(uint passed_license_id, uint passed_car_id, string memory passed_status, uint passed_security_directorate_id) public returns (bool)\r\n    //    {\r\n    //        for (uint i = 0; i < licenses.length; i++)\r\n    //        {\r\n    //            uint license_id = i;\r\n    //            if (compareUint(license_id, passed_license_id))\r\n    //            {\r\n    //                //found license | edit\r\n    //                //edit only car and status\r\n    //                licenses[i].car_id = passed_car_id;\r\n    //                licenses[i].status = passed_status;\r\n    //                licenses[i].security_directorate_id = passed_security_directorate_id;\r\n    //                return true;\r\n    //            }\r\n    //        }\r\n    //        return false;\r\n    //    }\r\n    //\r\n    //    function request_to_renewal_licence(uint L_id) public view returns (bool)\r\n    //    {\r\n    //        for (uint i = 0; i < licenses.length; i++) {\r\n    //            if (compareUint(L_id, i)) {\r\n    //                add_transaction;\r\n    //                return true;\r\n    //            }\r\n    //        }\r\n    //        return false;\r\n    //    }\r\n    //\r\n    //    function accept_to_renewal_license(uint L_id) public returns (bool) {\r\n    //        for (uint i = 0; i < licenses.length; i++)\r\n    //        {\r\n    //            uint license_id = i;\r\n    //            if (compareUint(license_id, L_id))\r\n    //            {\r\n    //                licenses[i].state = State.ACCEPTED;\r\n    //                return true;\r\n    //            }\r\n    //        }\r\n    //        return false;\r\n    //    }\r\n    //\r\n    //    function reject_to_renewal_license(uint L_id) public returns (bool) {\r\n    //        for (uint i = 0; i < licenses.length; i++)\r\n    //        {\r\n    //            uint license_id = i;\r\n    //            if (compareUint(license_id, L_id))\r\n    //            {\r\n    //                licenses[i].state = State.REJECTED;\r\n    //                return true;\r\n    //            }\r\n    //        }\r\n    //        return false;\r\n    //    }\r\n    //\r\n    //    function pending_to_renewal_license(uint L_id) public returns (bool) {\r\n    //        for (uint i = 0; i < licenses.length; i++)\r\n    //        {\r\n    //            uint license_id = i;\r\n    //            if (compareUint(license_id, L_id))\r\n    //            {\r\n    //                licenses[i].state = State.PENDING;\r\n    //                return true;\r\n    //            }\r\n    //        }\r\n    //        return false;\r\n    //    }\r\n    //\r\n    //    function renewal_license(uint passed_license_id, string memory exp) public returns (bool)\r\n    //    {\r\n    //        for (uint i = 0; i < licenses.length; i++)\r\n    //        {\r\n    //            uint license_id = i;\r\n    //            if (compareUint(license_id, passed_license_id))\r\n    //            {\r\n    //                //found license | edit\r\n    //                //edit only car and status\r\n    //                licenses[i].expireat = exp;\r\n    //                return true;\r\n    //            }\r\n    //        }\r\n    //        return false;\r\n    //    }\r\n    //\r\n    //\r\n    //    function add_traffic_violation(uint passed_vehicle_id, string memory vio_type, string memory vio_des, string memory vio_status) public returns (bool)\r\n    //    {\r\n    //        traffic_violation memory temp_violation = traffic_violation(passed_vehicle_id, vio_type, vio_des, vio_status);\r\n    //        traffic_violations.push(temp_violation);\r\n    //        return true;\r\n    //    }\r\n    //\r\n    //    function edit_traffic_violation(uint vio_id, /*uint passed_vehicle_id, */string memory vio_type, string memory vio_des, string memory vio_status) public returns (bool)\r\n    //    {\r\n    //        for (uint i = 0; i < traffic_violations.length; i++)\r\n    //        {\r\n    //            uint vio = i;\r\n    //            if (compareUint(vio, vio_id))\r\n    //            {\r\n    //                //found vio | edit\r\n    //                traffic_violations[i].violation_type = vio_type;\r\n    //                traffic_violations[i].violation_description = vio_des;\r\n    //                traffic_violations[i].violation_status = vio_status;\r\n    //                return true;\r\n    //            }\r\n    //        }\r\n    //        return false;\r\n    //    }\r\n    //\r\n    //    function add_transaction(uint passed_user_id, string memory passed_amount, string memory passed_status, uint passed_bank_id, string memory passed_created_at, string memory passed_updated_at) public returns (bool)\r\n    //    {\r\n    //        transaction memory temp_transaction = transaction(passed_user_id, passed_amount, passed_status, passed_bank_id, passed_created_at, passed_updated_at);\r\n    //        transactions.push(temp_transaction);\r\n    //        return true;\r\n    //    }\r\n    //\r\n    //    function edit_transaction(uint passed_trx_id, string memory passed_status, string memory passed_updated_at) public returns (bool)\r\n    //    {\r\n    //        for (uint i = 0; i < transactions.length; i++)\r\n    //        {\r\n    //            uint trx_id = i;\r\n    //            if (compareUint(trx_id, passed_trx_id))\r\n    //            {\r\n    //                //found -> edit\r\n    //                transactions[i].status = passed_status;\r\n    //                transactions[i].updated_at = passed_updated_at;\r\n    //                return true;\r\n    //            }\r\n    //        }\r\n    //        return false;\r\n    //    }\r\n    //\r\n    //    function request_to_remove_block(uint v_id) public view returns (bool)\r\n    //    {\r\n    //        for (uint i = 0; i < vehicles.length; i++) {\r\n    //            if (compareUint(v_id, i)) {\r\n    //                add_transaction;\r\n    //                return true;\r\n    //            }\r\n    //        }\r\n    //        return false;\r\n    //    }\r\n    //\r\n    //    function accept_to_remove_block(uint v_id, uint user_id) public returns (bool) {\r\n    //        bool ok = false;\r\n    //        for (uint i = 0; i < banks.length; i++) {\r\n    //            if (compareUint(user_id, banks[i].user_id)) {\r\n    //                ok = true;\r\n    //            }\r\n    //        }\r\n    //        require(ok == true, \"Sorry Only A Bank Can Accept A Request !\");\r\n    //        for (uint i = 0; i < vehicles.length; i++) {\r\n    //            if (compareUint(v_id, i)) {\r\n    //                vehicles[i].state = State.ACCEPTED;\r\n    //                return true;\r\n    //            }\r\n    //        }\r\n    //        return false;\r\n    //    }\r\n    //\r\n    //    function reject_to_remove_block(uint v_id, uint user_id) public returns (bool) {\r\n    //        bool ok = false;\r\n    //        for (uint i = 0; i < banks.length; i++) {\r\n    //            if (compareUint(user_id, banks[i].user_id)) {\r\n    //                ok = true;\r\n    //            }\r\n    //        }\r\n    //        require(ok == true, \"Sorry Only A Bank Can Reject A Request !\");\r\n    //        for (uint i = 0; i < vehicles.length; i++) {\r\n    //            if (compareUint(v_id, i)) {\r\n    //                vehicles[i].state = State.REJECTED;\r\n    //                return true;\r\n    //            }\r\n    //        }\r\n    //        return false;\r\n    //    }\r\n    //\r\n    //    function pending_to_remove_block(uint v_id, uint user_id) public returns (bool) {\r\n    //        bool ok = false;\r\n    //        for (uint i = 0; i < banks.length; i++) {\r\n    //            if (compareUint(user_id, banks[i].user_id)) {\r\n    //                ok = true;\r\n    //            }\r\n    //        }\r\n    //        require(ok == true, \"Sorry Only A Bank Can Pending A Request !\");\r\n    //        for (uint i = 0; i < vehicles.length; i++) {\r\n    //            if (compareUint(v_id, i)) {\r\n    //                vehicles[i].state = State.PENDING;\r\n    //                return true;\r\n    //            }\r\n    //        }\r\n    //        return false;\r\n    //    }\r\n    //\r\n    //    function change_ownership(uint new_owner_user_id, uint old_owner_user_id, uint vehicle_id) public {\r\n    //        for (uint i = 0; i < vehicles.length; i++) {\r\n    //            if (compareUint(vehicle_id, i)) {\r\n    //                if (compareUint(old_owner_user_id, vehicles[i].user_id)) {\r\n    //                    vehicles[i].user_id = new_owner_user_id;\r\n    //                }\r\n    //            }\r\n    //        }\r\n    //    }\r\n    //\r\n    //    function car_change_block_status(uint bank_user_id, uint vehicle_id, bool blocked) public {\r\n    //        bool ok = false;\r\n    //        for (uint i = 0; i < banks.length; i++) {\r\n    //            if (compareUint(bank_user_id, banks[i].user_id)) {\r\n    //                ok = true;\r\n    //            }\r\n    //        }\r\n    //        require(ok == true, \"Sorry Only A Bank Can block A Car !\");\r\n    //        for (uint i = 0; i < vehicles.length; i++) {\r\n    //            if (compareUint(vehicle_id, i)) {\r\n    //                vehicles[i].isBlocked = blocked;\r\n    //            }\r\n    //        }\r\n    //    }\r\n\r\n    function get_users() public view returns (user[] memory){\r\n        return users;\r\n    }\r\n\r\n    function get_vehicles() public view returns (vehicle[] memory){\r\n        return vehicles;\r\n    }\r\n\r\n    function get_manufactures() public view returns (manufacture[] memory){\r\n        return manufactures;\r\n    }\r\n\r\n    function get_banks() public view returns (bank[] memory){\r\n        return banks;\r\n    }\r\n\r\n    function get_traffic_violations() public view returns (traffic_violation[] memory){\r\n        return traffic_violations;\r\n    }\r\n\r\n    function get_licenses() public view returns (license[] memory){\r\n        return licenses;\r\n    }\r\n\r\n    function get_transactions() public view returns (transaction[] memory){\r\n        return transactions;\r\n    }\r\n\r\n\r\n    function users_length() public view returns (uint){\r\n        return users.length;\r\n    }\r\n\r\n    function vehicles_length() public view returns (uint){\r\n        return vehicles.length;\r\n    }\r\n\r\n    function banks_length() public view returns (uint){\r\n        return banks.length;\r\n    }\r\n\r\n    function traffic_violations_length() public view returns (uint){\r\n        return traffic_violations.length;\r\n    }\r\n\r\n    function manufactures_length() public view returns (uint){\r\n        return manufactures.length;\r\n    }\r\n\r\n    function transactions_length() public view returns (uint){\r\n        return transactions.length;\r\n    }\r\n\r\n    function licenses_length() public view returns (uint){\r\n        return licenses.length;\r\n    }\r\n\r\n    modifier onlyDeployer() {\r\n        require(msg.sender == deployer, \"Access denied!\");\r\n        _;\r\n    }\r\n    function compareAddress(address a, address b) public pure returns (bool) {\r\n        return (keccak256(abi.encodePacked((a))) == keccak256(abi.encodePacked((b))));\r\n    }\r\n\r\n    function compareUint(uint a, uint b) public pure returns (bool) {\r\n        return (keccak256(abi.encodePacked((a))) == keccak256(abi.encodePacked((b))));\r\n    }\r\n\r\n    function compareStrings(string memory a, string memory b) public pure returns (bool) {\r\n        return (keccak256(abi.encodePacked((a))) == keccak256(abi.encodePacked((b))));}\r\n}\r\n",
  "sourcePath": "C:\\Users\\Mina\\OneDrive\\Desktop\\blockchain-projects\\Back-end\\contracts\\VehicleSystem.sol",
  "compiler": {
    "name": "solc",
    "version": "0.8.14+commit.80d49f37.Emscripten.clang"
  },
  "schemaVersion": "3.4.7",
  "updatedAt": "2022-06-14T06:14:06.052Z",
  "networkType": "ethereum",
  "devdoc": {
    "kind": "dev",
    "methods": {},
    "version": 1
  },
  "userdoc": {
    "kind": "user",
    "methods": {},
    "version": 1
  }
}