{
  "contractName": "VehicleSystem",
  "abi": [
    {
      "inputs": [],
      "stateMutability": "nonpayable",
      "type": "constructor"
    },
    {
      "inputs": [
        {
          "internalType": "string",
          "name": "",
          "type": "string"
        }
      ],
      "name": "xx",
      "outputs": [
        {
          "internalType": "string",
          "name": "",
          "type": "string"
        }
      ],
      "stateMutability": "view",
      "type": "function",
      "constant": true
    },
    {
      "inputs": [
        {
          "internalType": "string",
          "name": "_s",
          "type": "string"
        },
        {
          "internalType": "string",
          "name": "_sx",
          "type": "string"
        }
      ],
      "name": "set_status",
      "outputs": [],
      "stateMutability": "nonpayable",
      "type": "function"
    },
    {
      "inputs": [
        {
          "internalType": "string",
          "name": "_s",
          "type": "string"
        },
        {
          "internalType": "string",
          "name": "_ss",
          "type": "string"
        }
      ],
      "name": "get_status",
      "outputs": [
        {
          "internalType": "string",
          "name": "",
          "type": "string"
        }
      ],
      "stateMutability": "view",
      "type": "function",
      "constant": true
    },
    {
      "inputs": [],
      "name": "testPrint",
      "outputs": [
        {
          "internalType": "string",
          "name": "",
          "type": "string"
        }
      ],
      "stateMutability": "view",
      "type": "function",
      "constant": true
    },
    {
      "inputs": [
        {
          "internalType": "uint256",
          "name": "passed_id",
          "type": "uint256"
        },
        {
          "internalType": "string",
          "name": "passed_name",
          "type": "string"
        }
      ],
      "name": "add_security_directorate",
      "outputs": [
        {
          "internalType": "bool",
          "name": "",
          "type": "bool"
        }
      ],
      "stateMutability": "nonpayable",
      "type": "function"
    },
    {
      "inputs": [
        {
          "internalType": "address",
          "name": "_user_address",
          "type": "address"
        },
        {
          "internalType": "uint256",
          "name": "_user_id",
          "type": "uint256"
        },
        {
          "internalType": "string",
          "name": "_user_name",
          "type": "string"
        },
        {
          "internalType": "string",
          "name": "_user_email",
          "type": "string"
        },
        {
          "internalType": "string",
          "name": "_user_password",
          "type": "string"
        },
        {
          "internalType": "string",
          "name": "_user_gender",
          "type": "string"
        },
        {
          "internalType": "string",
          "name": "_user_birthday",
          "type": "string"
        },
        {
          "internalType": "string",
          "name": "_user_living_address",
          "type": "string"
        },
        {
          "internalType": "string",
          "name": "_user_national_id",
          "type": "string"
        },
        {
          "internalType": "uint256",
          "name": "_user_bank_id",
          "type": "uint256"
        },
        {
          "internalType": "string",
          "name": "_user_bank_account",
          "type": "string"
        }
      ],
      "name": "register",
      "outputs": [
        {
          "internalType": "bool",
          "name": "",
          "type": "bool"
        }
      ],
      "stateMutability": "nonpayable",
      "type": "function"
    },
    {
      "inputs": [
        {
          "internalType": "string",
          "name": "passed_user_name",
          "type": "string"
        },
        {
          "internalType": "string",
          "name": "passed_user_password",
          "type": "string"
        }
      ],
      "name": "login",
      "outputs": [
        {
          "internalType": "bool",
          "name": "",
          "type": "bool"
        }
      ],
      "stateMutability": "view",
      "type": "function",
      "constant": true
    },
    {
      "inputs": [
        {
          "internalType": "uint256",
          "name": "_user_id",
          "type": "uint256"
        },
        {
          "internalType": "string",
          "name": "_user_email",
          "type": "string"
        },
        {
          "internalType": "string",
          "name": "_user_password",
          "type": "string"
        },
        {
          "internalType": "string",
          "name": "_user_gender",
          "type": "string"
        },
        {
          "internalType": "string",
          "name": "_user_birthday",
          "type": "string"
        },
        {
          "internalType": "string",
          "name": "_user_living_address",
          "type": "string"
        },
        {
          "internalType": "uint256",
          "name": "_user_bank_id",
          "type": "uint256"
        },
        {
          "internalType": "string",
          "name": "_user_bank_account",
          "type": "string"
        }
      ],
      "name": "edit_user",
      "outputs": [
        {
          "internalType": "bool",
          "name": "",
          "type": "bool"
        }
      ],
      "stateMutability": "nonpayable",
      "type": "function"
    },
    {
      "inputs": [
        {
          "internalType": "address",
          "name": "add",
          "type": "address"
        },
        {
          "internalType": "uint256",
          "name": "id",
          "type": "uint256"
        },
        {
          "internalType": "string",
          "name": "name",
          "type": "string"
        }
      ],
      "name": "add_manufacture_data",
      "outputs": [],
      "stateMutability": "nonpayable",
      "type": "function"
    },
    {
      "inputs": [
        {
          "internalType": "address",
          "name": "passed_manufacture_address",
          "type": "address"
        },
        {
          "internalType": "uint256",
          "name": "passed_manufacture_id",
          "type": "uint256"
        },
        {
          "internalType": "string",
          "name": "passed_manufacture_name",
          "type": "string"
        }
      ],
      "name": "edit_manufacture",
      "outputs": [
        {
          "internalType": "bool",
          "name": "",
          "type": "bool"
        }
      ],
      "stateMutability": "nonpayable",
      "type": "function"
    },
    {
      "inputs": [
        {
          "internalType": "uint256",
          "name": "passed_manufacture_id",
          "type": "uint256"
        }
      ],
      "name": "delete_manufature",
      "outputs": [
        {
          "internalType": "bool",
          "name": "",
          "type": "bool"
        }
      ],
      "stateMutability": "nonpayable",
      "type": "function"
    },
    {
      "inputs": [
        {
          "internalType": "uint256",
          "name": "passed_license_id",
          "type": "uint256"
        },
        {
          "internalType": "uint256",
          "name": "passed_user_id",
          "type": "uint256"
        },
        {
          "internalType": "uint256",
          "name": "passed_car_id",
          "type": "uint256"
        },
        {
          "internalType": "string",
          "name": "passed_status",
          "type": "string"
        },
        {
          "internalType": "string",
          "name": "passed_expireat",
          "type": "string"
        },
        {
          "internalType": "uint256",
          "name": "passed_security_directorate_id",
          "type": "uint256"
        }
      ],
      "name": "add_license",
      "outputs": [
        {
          "internalType": "bool",
          "name": "",
          "type": "bool"
        }
      ],
      "stateMutability": "nonpayable",
      "type": "function"
    },
    {
      "inputs": [
        {
          "internalType": "uint256",
          "name": "passed_license_id",
          "type": "uint256"
        },
        {
          "internalType": "uint256",
          "name": "passed_car_id",
          "type": "uint256"
        },
        {
          "internalType": "string",
          "name": "passed_status",
          "type": "string"
        },
        {
          "internalType": "uint256",
          "name": "passed_security_directorate_id",
          "type": "uint256"
        }
      ],
      "name": "edit_license",
      "outputs": [
        {
          "internalType": "bool",
          "name": "",
          "type": "bool"
        }
      ],
      "stateMutability": "nonpayable",
      "type": "function"
    },
    {
      "inputs": [
        {
          "internalType": "uint256",
          "name": "passed_license_id",
          "type": "uint256"
        }
      ],
      "name": "delete_license",
      "outputs": [
        {
          "internalType": "bool",
          "name": "",
          "type": "bool"
        }
      ],
      "stateMutability": "nonpayable",
      "type": "function"
    },
    {
      "inputs": [
        {
          "internalType": "uint256",
          "name": "L_id",
          "type": "uint256"
        }
      ],
      "name": "request_to_renewal_licence",
      "outputs": [
        {
          "internalType": "bool",
          "name": "",
          "type": "bool"
        }
      ],
      "stateMutability": "view",
      "type": "function",
      "constant": true
    },
    {
      "inputs": [
        {
          "internalType": "uint256",
          "name": "L_id",
          "type": "uint256"
        }
      ],
      "name": "accept_to_renewal_license",
      "outputs": [
        {
          "internalType": "bool",
          "name": "",
          "type": "bool"
        }
      ],
      "stateMutability": "nonpayable",
      "type": "function"
    },
    {
      "inputs": [
        {
          "internalType": "uint256",
          "name": "L_id",
          "type": "uint256"
        }
      ],
      "name": "reject_to_renewal_license",
      "outputs": [
        {
          "internalType": "bool",
          "name": "",
          "type": "bool"
        }
      ],
      "stateMutability": "nonpayable",
      "type": "function"
    },
    {
      "inputs": [
        {
          "internalType": "uint256",
          "name": "L_id",
          "type": "uint256"
        }
      ],
      "name": "pending_to_renewal_license",
      "outputs": [
        {
          "internalType": "bool",
          "name": "",
          "type": "bool"
        }
      ],
      "stateMutability": "nonpayable",
      "type": "function"
    },
    {
      "inputs": [
        {
          "internalType": "uint256",
          "name": "passed_license_id",
          "type": "uint256"
        },
        {
          "internalType": "string",
          "name": "exp",
          "type": "string"
        }
      ],
      "name": "renewal_license",
      "outputs": [
        {
          "internalType": "bool",
          "name": "",
          "type": "bool"
        }
      ],
      "stateMutability": "nonpayable",
      "type": "function"
    },
    {
      "inputs": [
        {
          "internalType": "uint256",
          "name": "id",
          "type": "uint256"
        },
        {
          "internalType": "uint256",
          "name": "passed_vehicle_id",
          "type": "uint256"
        },
        {
          "internalType": "string",
          "name": "vio_type",
          "type": "string"
        },
        {
          "internalType": "string",
          "name": "vio_des",
          "type": "string"
        },
        {
          "internalType": "string",
          "name": "vio_status",
          "type": "string"
        }
      ],
      "name": "add_traffic_violation",
      "outputs": [
        {
          "internalType": "bool",
          "name": "",
          "type": "bool"
        }
      ],
      "stateMutability": "nonpayable",
      "type": "function"
    },
    {
      "inputs": [
        {
          "internalType": "uint256",
          "name": "vio_id",
          "type": "uint256"
        },
        {
          "internalType": "string",
          "name": "vio_type",
          "type": "string"
        },
        {
          "internalType": "string",
          "name": "vio_des",
          "type": "string"
        },
        {
          "internalType": "string",
          "name": "vio_status",
          "type": "string"
        }
      ],
      "name": "edit_traffic_violation",
      "outputs": [
        {
          "internalType": "bool",
          "name": "",
          "type": "bool"
        }
      ],
      "stateMutability": "nonpayable",
      "type": "function"
    },
    {
      "inputs": [
        {
          "internalType": "uint256",
          "name": "vio_id",
          "type": "uint256"
        }
      ],
      "name": "delete_traffic_violation",
      "outputs": [
        {
          "internalType": "bool",
          "name": "",
          "type": "bool"
        }
      ],
      "stateMutability": "nonpayable",
      "type": "function"
    },
    {
      "inputs": [
        {
          "internalType": "uint256",
          "name": "passed_trx_id",
          "type": "uint256"
        },
        {
          "internalType": "uint256",
          "name": "passed_user_id",
          "type": "uint256"
        },
        {
          "internalType": "string",
          "name": "passed_amount",
          "type": "string"
        },
        {
          "internalType": "string",
          "name": "passed_status",
          "type": "string"
        },
        {
          "internalType": "uint256",
          "name": "passed_bank_id",
          "type": "uint256"
        },
        {
          "internalType": "string",
          "name": "passed_created_at",
          "type": "string"
        },
        {
          "internalType": "string",
          "name": "passed_updated_at",
          "type": "string"
        }
      ],
      "name": "add_transaction",
      "outputs": [
        {
          "internalType": "bool",
          "name": "",
          "type": "bool"
        }
      ],
      "stateMutability": "nonpayable",
      "type": "function"
    },
    {
      "inputs": [
        {
          "internalType": "uint256",
          "name": "passed_trx_id",
          "type": "uint256"
        },
        {
          "internalType": "string",
          "name": "passed_status",
          "type": "string"
        },
        {
          "internalType": "string",
          "name": "passed_updated_at",
          "type": "string"
        }
      ],
      "name": "edit_transaction",
      "outputs": [
        {
          "internalType": "bool",
          "name": "",
          "type": "bool"
        }
      ],
      "stateMutability": "nonpayable",
      "type": "function"
    },
    {
      "inputs": [
        {
          "internalType": "uint256",
          "name": "v_id",
          "type": "uint256"
        }
      ],
      "name": "request_to_remove_block",
      "outputs": [
        {
          "internalType": "bool",
          "name": "",
          "type": "bool"
        }
      ],
      "stateMutability": "view",
      "type": "function",
      "constant": true
    },
    {
      "inputs": [
        {
          "internalType": "uint256",
          "name": "v_id",
          "type": "uint256"
        }
      ],
      "name": "accept_to_remove_block",
      "outputs": [
        {
          "internalType": "bool",
          "name": "",
          "type": "bool"
        }
      ],
      "stateMutability": "nonpayable",
      "type": "function"
    },
    {
      "inputs": [
        {
          "internalType": "uint256",
          "name": "v_id",
          "type": "uint256"
        }
      ],
      "name": "reject_to_remove_block",
      "outputs": [
        {
          "internalType": "bool",
          "name": "",
          "type": "bool"
        }
      ],
      "stateMutability": "nonpayable",
      "type": "function"
    },
    {
      "inputs": [
        {
          "internalType": "uint256",
          "name": "v_id",
          "type": "uint256"
        }
      ],
      "name": "pending_to_remove_block",
      "outputs": [
        {
          "internalType": "bool",
          "name": "",
          "type": "bool"
        }
      ],
      "stateMutability": "nonpayable",
      "type": "function"
    },
    {
      "inputs": [
        {
          "internalType": "address",
          "name": "add",
          "type": "address"
        },
        {
          "internalType": "uint256",
          "name": "id",
          "type": "uint256"
        },
        {
          "internalType": "string",
          "name": "name",
          "type": "string"
        }
      ],
      "name": "add_bank_data",
      "outputs": [],
      "stateMutability": "nonpayable",
      "type": "function"
    },
    {
      "inputs": [
        {
          "internalType": "address",
          "name": "add",
          "type": "address"
        },
        {
          "internalType": "uint256",
          "name": "id",
          "type": "uint256"
        },
        {
          "internalType": "string",
          "name": "name",
          "type": "string"
        }
      ],
      "name": "edit_bank",
      "outputs": [
        {
          "internalType": "bool",
          "name": "",
          "type": "bool"
        }
      ],
      "stateMutability": "nonpayable",
      "type": "function"
    },
    {
      "inputs": [
        {
          "internalType": "uint256",
          "name": "id",
          "type": "uint256"
        }
      ],
      "name": "delete_bank",
      "outputs": [
        {
          "internalType": "bool",
          "name": "",
          "type": "bool"
        }
      ],
      "stateMutability": "nonpayable",
      "type": "function"
    },
    {
      "inputs": [
        {
          "internalType": "address",
          "name": "add",
          "type": "address"
        },
        {
          "internalType": "uint256",
          "name": "id",
          "type": "uint256"
        },
        {
          "internalType": "uint256",
          "name": "manufacture_id",
          "type": "uint256"
        },
        {
          "internalType": "string",
          "name": "model",
          "type": "string"
        },
        {
          "internalType": "string",
          "name": "motornum",
          "type": "string"
        },
        {
          "internalType": "string",
          "name": "chasea",
          "type": "string"
        },
        {
          "internalType": "string",
          "name": "color",
          "type": "string"
        }
      ],
      "name": "add_vehicle",
      "outputs": [],
      "stateMutability": "nonpayable",
      "type": "function"
    },
    {
      "inputs": [
        {
          "internalType": "address",
          "name": "add",
          "type": "address"
        },
        {
          "internalType": "uint256",
          "name": "id",
          "type": "uint256"
        },
        {
          "internalType": "uint256",
          "name": "manufacture_id",
          "type": "uint256"
        },
        {
          "internalType": "string",
          "name": "model",
          "type": "string"
        },
        {
          "internalType": "string",
          "name": "motornum",
          "type": "string"
        },
        {
          "internalType": "string",
          "name": "chasea",
          "type": "string"
        },
        {
          "internalType": "string",
          "name": "color",
          "type": "string"
        }
      ],
      "name": "edit_vehicle",
      "outputs": [
        {
          "internalType": "bool",
          "name": "",
          "type": "bool"
        }
      ],
      "stateMutability": "nonpayable",
      "type": "function"
    },
    {
      "inputs": [
        {
          "internalType": "uint256",
          "name": "id",
          "type": "uint256"
        }
      ],
      "name": "delete_vehicle",
      "outputs": [
        {
          "internalType": "bool",
          "name": "",
          "type": "bool"
        }
      ],
      "stateMutability": "nonpayable",
      "type": "function"
    },
    {
      "inputs": [
        {
          "internalType": "address",
          "name": "new_owner",
          "type": "address"
        },
        {
          "internalType": "uint256",
          "name": "id",
          "type": "uint256"
        }
      ],
      "name": "change_ownership",
      "outputs": [],
      "stateMutability": "nonpayable",
      "type": "function"
    },
    {
      "inputs": [
        {
          "internalType": "uint256",
          "name": "id",
          "type": "uint256"
        },
        {
          "internalType": "bool",
          "name": "blocked",
          "type": "bool"
        }
      ],
      "name": "car_change_block_status",
      "outputs": [],
      "stateMutability": "nonpayable",
      "type": "function"
    },
    {
      "inputs": [
        {
          "internalType": "address",
          "name": "a",
          "type": "address"
        },
        {
          "internalType": "address",
          "name": "b",
          "type": "address"
        }
      ],
      "name": "compareAdresses",
      "outputs": [
        {
          "internalType": "bool",
          "name": "",
          "type": "bool"
        }
      ],
      "stateMutability": "pure",
      "type": "function",
      "constant": true
    },
    {
      "inputs": [
        {
          "internalType": "uint256",
          "name": "a",
          "type": "uint256"
        },
        {
          "internalType": "uint256",
          "name": "b",
          "type": "uint256"
        }
      ],
      "name": "compareUint",
      "outputs": [
        {
          "internalType": "bool",
          "name": "",
          "type": "bool"
        }
      ],
      "stateMutability": "pure",
      "type": "function",
      "constant": true
    },
    {
      "inputs": [
        {
          "internalType": "string",
          "name": "a",
          "type": "string"
        },
        {
          "internalType": "string",
          "name": "b",
          "type": "string"
        }
      ],
      "name": "compareStrings",
      "outputs": [
        {
          "internalType": "bool",
          "name": "",
          "type": "bool"
        }
      ],
      "stateMutability": "pure",
      "type": "function",
      "constant": true
    }
  ],
  "bytecode": "0x60806040526040518060400160405280600a81526020017f4d696e612053616d6568000000000000000000000000000000000000000000008152506000908051906020019062000051929190620000a7565b503480156200005f57600080fd5b5033600960006101000a81548173ffffffffffffffffffffffffffffffffffffffff021916908373ffffffffffffffffffffffffffffffffffffffff160217905550620001bb565b828054620000b59062000186565b90600052602060002090601f016020900481019282620000d9576000855562000125565b82601f10620000f457805160ff191683800117855562000125565b8280016001018555821562000125579182015b828111156200012457825182559160200191906001019062000107565b5b50905062000134919062000138565b5090565b5b808211156200015357600081600090555060010162000139565b5090565b7f4e487b7100000000000000000000000000000000000000000000000000000000600052602260045260246000fd5b600060028204905060018216806200019f57607f821691505b602082108103620001b557620001b462000157565b5b50919050565b615b4e80620001cb6000396000f3fe608060405234801561001057600080fd5b506004361061023d5760003560e01c806391935f3e1161013b578063cd94e89d116100b8578063ed0ce73a1161007c578063ed0ce73a14610840578063f09257fa14610870578063f4828bf8146108a0578063f7659248146108d0578063fdfae2a4146108ec5761023d565b8063cd94e89d14610764578063ce08998514610794578063d5964793146107b0578063dcfbb398146107e0578063e465c0b7146108105761023d565b8063b4e74eb8116100ff578063b4e74eb814610674578063bed34bba146106a4578063c1e285a4146106d4578063c388cf0114610704578063c71aa932146107345761023d565b806391935f3e146105aa57806399485944146105da578063a0c4bc4b146105f6578063a94d95ce14610614578063b40ca106146106445761023d565b80633ba0d40c116101c957806358467dbc1161018d57806358467dbc146104ba5780636e29881b146104ea5780637edc14871461051a5780638a447ef81461054a5780638fbd2d441461057a5761023d565b80633ba0d40c146103ca5780633ca27a25146103fa578063478ca2551461042a578063489dc25b1461045a5780634bd1297c1461048a5761023d565b806320a71a681161021057806320a71a68146102ee578063222884041461031e57806329c3c2951461034e5780632cb3c45c1461036a5780632e001d741461039a5761023d565b806301bedbfb1461024257806310badf79146102725780631c907b85146102a25780631f58f112146102d2575b600080fd5b61025c600480360381019061025791906145b3565b610908565b60405161026991906146b3565b60405180910390f35b61028c6004803603810190610287919061470b565b610951565b6040516102999190614753565b60405180910390f35b6102bc60048036038101906102b7919061470b565b610fe5565b6040516102c99190614753565b60405180910390f35b6102ec60048036038101906102e791906147cc565b6110ab565b005b6103086004803603810190610303919061470b565b611230565b6040516103159190614753565b60405180910390f35b610338600480360381019061033391906147cc565b611455565b6040516103459190614753565b60405180910390f35b610368600480360381019061036391906145b3565b61161d565b005b610384600480360381019061037f919061483b565b611654565b60405161039191906146b3565b60405180910390f35b6103b460048036038101906103af9190614884565b61170a565b6040516103c19190614753565b60405180910390f35b6103e460048036038101906103df91906148e0565b6117bd565b6040516103f19190614753565b60405180910390f35b610414600480360381019061040f91906149f2565b611a9c565b6040516104219190614753565b60405180910390f35b610444600480360381019061043f9190614a7d565b611b8a565b6040516104519190614753565b60405180910390f35b610474600480360381019061046f9190614b8f565b611c92565b6040516104819190614753565b60405180910390f35b6104a4600480360381019061049f919061470b565b611d9b565b6040516104b19190614753565b60405180910390f35b6104d460048036038101906104cf91906145b3565b61212a565b6040516104e19190614753565b60405180910390f35b61050460048036038101906104ff91906147cc565b6122ef565b6040516105119190614753565b60405180910390f35b610534600480360381019061052f919061470b565b612407565b6040516105419190614753565b60405180910390f35b610564600480360381019061055f9190614c12565b6124cd565b6040516105719190614753565b60405180910390f35b610594600480360381019061058f9190614c52565b612526565b6040516105a19190614753565b60405180910390f35b6105c460048036038101906105bf919061470b565b612640565b6040516105d19190614753565b60405180910390f35b6105f460048036038101906105ef91906148e0565b6127c7565b005b6105fe612ab8565b60405161060b91906146b3565b60405180910390f35b61062e6004803603810190610629919061470b565b612b4a565b60405161063b9190614753565b60405180910390f35b61065e6004803603810190610659919061470b565b612ede565b60405161066b9190614753565b60405180910390f35b61068e60048036038101906106899190614d17565b612f4f565b60405161069b9190614753565b60405180910390f35b6106be60048036038101906106b991906145b3565b612fa8565b6040516106cb9190614753565b60405180910390f35b6106ee60048036038101906106e9919061470b565b613001565b6040516106fb9190614753565b60405180910390f35b61071e6004803603810190610719919061470b565b613072565b60405161072b9190614753565b60405180910390f35b61074e60048036038101906107499190614884565b6131f9565b60405161075b9190614753565b60405180910390f35b61077e60048036038101906107799190614d57565b613273565b60405161078b9190614753565b60405180910390f35b6107ae60048036038101906107a991906147cc565b613462565b005b6107ca60048036038101906107c5919061470b565b6135e7565b6040516107d79190614753565b60405180910390f35b6107fa60048036038101906107f59190614f2b565b6136ad565b6040516108079190614753565b60405180910390f35b61082a60048036038101906108259190614ffa565b613780565b6040516108379190614753565b60405180910390f35b61085a600480360381019061085591906150b5565b6138a9565b6040516108679190614753565b60405180910390f35b61088a6004803603810190610885919061470b565b613ae8565b6040516108979190614753565b60405180910390f35b6108ba60048036038101906108b5919061470b565b613d66565b6040516108c79190614753565b60405180910390f35b6108ea60048036038101906108e59190615213565b613eed565b005b6109066004803603810190610901919061527f565b614003565b005b6060600a8360405161091a91906152fb565b90815260200160405180910390208260405160200161093a929190615452565b604051602081830303815290604052905092915050565b6000806000905060005b6001805490508110156109d4576109b733600183815481106109805761097f615481565b5b906000526020600020906003020160000160009054906101000a900473ffffffffffffffffffffffffffffffffffffffff166124cd565b156109c157600191505b80806109cc906154df565b91505061095b565b506001151581151514610a1c576040517f08c379a0000000000000000000000000000000000000000000000000000000008152600401610a1390615599565b60405180910390fd5b60005b600380549050811015610fd957610a5b8460038381548110610a4457610a43615481565b5b90600052602060002090600b020160000154612f4f565b15610fc657600081905060008190505b6001600380549050610a7d91906155b9565b811015610dba576003600182610a9391906155ed565b81548110610aa457610aa3615481565b5b90600052602060002090600b02016000015460038281548110610aca57610ac9615481565b5b90600052602060002090600b0201600001819055506003600182610aee91906155ed565b81548110610aff57610afe615481565b5b90600052602060002090600b020160030160038281548110610b2457610b23615481565b5b90600052602060002090600b0201600301908054610b4190615341565b610b4c929190614163565b506003600182610b5c91906155ed565b81548110610b6d57610b6c615481565b5b90600052602060002090600b020160040160038281548110610b9257610b91615481565b5b90600052602060002090600b0201600401908054610baf90615341565b610bba929190614163565b506003600182610bca91906155ed565b81548110610bdb57610bda615481565b5b90600052602060002090600b020160050160038281548110610c0057610bff615481565b5b90600052602060002090600b0201600501908054610c1d90615341565b610c28929190614163565b506003600182610c3891906155ed565b81548110610c4957610c48615481565b5b90600052602060002090600b02016006015460038281548110610c6f57610c6e615481565b5b90600052602060002090600b0201600601819055506003600182610c9391906155ed565b81548110610ca457610ca3615481565b5b90600052602060002090600b020160070160009054906101000a900473ffffffffffffffffffffffffffffffffffffffff1660038281548110610cea57610ce9615481565b5b90600052602060002090600b020160070160006101000a81548173ffffffffffffffffffffffffffffffffffffffff021916908373ffffffffffffffffffffffffffffffffffffffff1602179055506003600182610d4891906155ed565b81548110610d5957610d58615481565b5b90600052602060002090600b020160080160038281548110610d7e57610d7d615481565b5b90600052602060002090600b0201600801908054610d9b90615341565b610da6929190614163565b508080610db2906154df565b915050610a6b565b5060036001600380549050610dcf91906155b9565b81548110610de057610ddf615481565b5b90600052602060002090600b0201600080820160009055600182016000610e0791906141f0565b600282016000610e1791906141f0565b600382016000610e2791906141f0565b600482016000610e3791906141f0565b600582016000610e4791906141f0565b60068201600090556007820160006101000a81549073ffffffffffffffffffffffffffffffffffffffff0219169055600882016000610e8691906141f0565b600982016000610e9691906141f0565b600a820160006101000a81549060ff0219169055600a820160016101000a81549060ff021916905550506003805480610ed257610ed1615643565b5b60019003818190600052602060002090600b0201600080820160009055600182016000610eff91906141f0565b600282016000610f0f91906141f0565b600382016000610f1f91906141f0565b600482016000610f2f91906141f0565b600582016000610f3f91906141f0565b60068201600090556007820160006101000a81549073ffffffffffffffffffffffffffffffffffffffff0219169055600882016000610f7e91906141f0565b600982016000610f8e91906141f0565b600a820160006101000a81549060ff0219169055600a820160016101000a81549060ff02191690555050905560019350505050610fe0565b8080610fd1906154df565b915050610a1f565b5060009150505b919050565b600080600090505b6007805490508110156110a0576000600782815481106110105761100f615481565b5b906000526020600020906007020160000154905061102e8185612f4f565b1561108c5760016007838154811061104957611048615481565b5b906000526020600020906007020160060160006101000a81548160ff0219169083600281111561107c5761107b615672565b5b02179055506001925050506110a6565b508080611098906154df565b915050610fed565b50600090505b919050565b600960009054906101000a900473ffffffffffffffffffffffffffffffffffffffff1673ffffffffffffffffffffffffffffffffffffffff163373ffffffffffffffffffffffffffffffffffffffff161461113b576040517f08c379a0000000000000000000000000000000000000000000000000000000008152600401611132906156ed565b60405180910390fd5b611143614230565b83816000019073ffffffffffffffffffffffffffffffffffffffff16908173ffffffffffffffffffffffffffffffffffffffff168152505082816020018181525050818160400181905250600181908060018154018082558091505060019003906000526020600020906003020160009091909190915060008201518160000160006101000a81548173ffffffffffffffffffffffffffffffffffffffff021916908373ffffffffffffffffffffffffffffffffffffffff160217905550602082015181600101556040820151816002019080519060200190611227929190614267565b50505050505050565b600080600090505b60058054905081101561144a5760006005828154811061125b5761125a615481565b5b90600052602060002090600502016000015490506112798185612f4f565b15611436576005600160058054905061129291906155b9565b815481106112a3576112a2615481565b5b9060005260206000209060050201600583815481106112c5576112c4615481565b5b9060005260206000209060050201600082015481600001556001820154816001015560028201816002019080546112fb90615341565b6113069291906142ed565b50600382018160030190805461131b90615341565b6113269291906142ed565b50600482018160040190805461133b90615341565b6113469291906142ed565b509050506005600160058054905061135e91906155b9565b8154811061136f5761136e615481565b5b9060005260206000209060050201600080820160009055600182016000905560028201600061139e91906141f0565b6003820160006113ae91906141f0565b6004820160006113be91906141f0565b505060058054806113d2576113d1615643565b5b6001900381819060005260206000209060050201600080820160009055600182016000905560028201600061140791906141f0565b60038201600061141791906141f0565b60048201600061142791906141f0565b50509055600192505050611450565b508080611442906154df565b915050611238565b50600090505b919050565b6000600960009054906101000a900473ffffffffffffffffffffffffffffffffffffffff1673ffffffffffffffffffffffffffffffffffffffff163373ffffffffffffffffffffffffffffffffffffffff16146114e7576040517f08c379a00000000000000000000000000000000000000000000000000000000081526004016114de906156ed565b60405180910390fd5b60005b60028054905081101561161057611526846002838154811061150f5761150e615481565b5b906000526020600020906003020160010154612f4f565b156115fd5784600282815481106115405761153f615481565b5b906000526020600020906003020160000160006101000a81548173ffffffffffffffffffffffffffffffffffffffff021916908373ffffffffffffffffffffffffffffffffffffffff16021790555083600282815481106115a4576115a3615481565b5b90600052602060002090600302016001018190555082600282815481106115ce576115cd615481565b5b906000526020600020906003020160020190805190602001906115f2929190614267565b506001915050611616565b8080611608906154df565b9150506114ea565b50600090505b9392505050565b80600a8360405161162e91906152fb565b9081526020016040518091039020908051906020019061164f929190614267565b505050565b600a81805160208101820180518482526020830160208501208183528095505050505050600091509050805461168990615341565b80601f01602080910402602001604051908101604052809291908181526020018280546116b590615341565b80156117025780601f106116d757610100808354040283529160200191611702565b820191906000526020600020905b8154815290600101906020018083116116e557829003601f168201915b505050505081565b600080600090505b6007805490508110156117b15760006007828154811061173557611734615481565b5b90600052602060002090600702016000015490506117538186612f4f565b1561179d57836007838154811061176d5761176c615481565b5b90600052602060002090600702016004019080519060200190611791929190614267565b506001925050506117b7565b5080806117a9906154df565b915050611712565b50600090505b92915050565b6000806000905060005b6001805490508110156118405761182333600183815481106117ec576117eb615481565b5b906000526020600020906003020160000160009054906101000a900473ffffffffffffffffffffffffffffffffffffffff166124cd565b1561182d57600191505b8080611838906154df565b9150506117c7565b506001151581151514611888576040517f08c379a000000000000000000000000000000000000000000000000000000000815260040161187f9061577f565b60405180910390fd5b60005b600380549050811015611a8a576118c789600383815481106118b0576118af615481565b5b90600052602060002090600b020160000154612f4f565b15611a775788600382815481106118e1576118e0615481565b5b90600052602060002090600b020160000181905550866003828154811061190b5761190a615481565b5b90600052602060002090600b0201600301908051906020019061192f929190614267565b50856003828154811061194557611944615481565b5b90600052602060002090600b02016004019080519060200190611969929190614267565b50846003828154811061197f5761197e615481565b5b90600052602060002090600b020160050190805190602001906119a3929190614267565b5087600382815481106119b9576119b8615481565b5b90600052602060002090600b02016006018190555089600382815481106119e3576119e2615481565b5b90600052602060002090600b020160070160006101000a81548173ffffffffffffffffffffffffffffffffffffffff021916908373ffffffffffffffffffffffffffffffffffffffff1602179055508360038281548110611a4757611a46615481565b5b90600052602060002090600b02016008019080519060200190611a6b929190614267565b50600192505050611a91565b8080611a82906154df565b91505061188b565b5060009150505b979650505050505050565b600080600090505b600680549050811015611b7d57600060068281548110611ac757611ac6615481565b5b9060005260206000209060070201600001549050611ae58187612f4f565b15611b69578460068381548110611aff57611afe615481565b5b90600052602060002090600702016003019080519060200190611b23929190614267565b508360068381548110611b3957611b38615481565b5b90600052602060002090600702016006019080519060200190611b5d929190614267565b50600192505050611b83565b508080611b75906154df565b915050611aa4565b50600090505b9392505050565b6000806040518060e001604052808a8152602001898152602001888152602001878152602001868152602001858152602001848152509050600681908060018154018082558091505060019003906000526020600020906007020160009091909190915060008201518160000155602082015181600101556040820151816002019080519060200190611c1e929190614267565b506060820151816003019080519060200190611c3b929190614267565b506080820151816004015560a0820151816005019080519060200190611c62929190614267565b5060c0820151816006019080519060200190611c7f929190614267565b5050506001915050979650505050505050565b600080600090505b600780549050811015611d8d57600060078281548110611cbd57611cbc615481565b5b9060005260206000209060070201600001549050611cdb8188612f4f565b15611d79578560078381548110611cf557611cf4615481565b5b9060005260206000209060070201600201819055508460078381548110611d1f57611d1e615481565b5b90600052602060002090600702016003019080519060200190611d43929190614267565b508360078381548110611d5957611d58615481565b5b906000526020600020906007020160050181905550600192505050611d93565b508080611d85906154df565b915050611c9a565b50600090505b949350505050565b6000600960009054906101000a900473ffffffffffffffffffffffffffffffffffffffff1673ffffffffffffffffffffffffffffffffffffffff163373ffffffffffffffffffffffffffffffffffffffff1614611e2d576040517f08c379a0000000000000000000000000000000000000000000000000000000008152600401611e24906156ed565b60405180910390fd5b60005b60018054905081101561211f57611e6c8360018381548110611e5557611e54615481565b5b906000526020600020906003020160010154612f4f565b1561210c57600081905060008190505b6001600280549050611e8e91906155b9565b8110156120235760018082611ea391906155ed565b81548110611eb457611eb3615481565b5b906000526020600020906003020160000160009054906101000a900473ffffffffffffffffffffffffffffffffffffffff1660018281548110611efa57611ef9615481565b5b906000526020600020906003020160000160006101000a81548173ffffffffffffffffffffffffffffffffffffffff021916908373ffffffffffffffffffffffffffffffffffffffff16021790555060018082611f5791906155ed565b81548110611f6857611f67615481565b5b90600052602060002090600302016001015460018281548110611f8e57611f8d615481565b5b90600052602060002090600302016001018190555060018082611fb191906155ed565b81548110611fc257611fc1615481565b5b906000526020600020906003020160020160018281548110611fe757611fe6615481565b5b906000526020600020906003020160020190805461200490615341565b61200f929190614163565b50808061201b906154df565b915050611e7c565b50600180808054905061203691906155b9565b8154811061204757612046615481565b5b9060005260206000209060030201600080820160006101000a81549073ffffffffffffffffffffffffffffffffffffffff0219169055600182016000905560028201600061209591906141f0565b505060018054806120a9576120a8615643565b5b6001900381819060005260206000209060030201600080820160006101000a81549073ffffffffffffffffffffffffffffffffffffffff021916905560018201600090556002820160006120fd91906141f0565b50509055600192505050612125565b8080612117906154df565b915050611e30565b50600090505b919050565b600080600090505b6004805490508110156122e35760006004828154811061215557612154615481565b5b90600052602060002090600b0201600201805461217190615341565b80601f016020809104026020016040519081016040528092919081815260200182805461219d90615341565b80156121ea5780601f106121bf576101008083540402835291602001916121ea565b820191906000526020600020905b8154815290600101906020018083116121cd57829003601f168201915b5050505050905060006004838154811061220757612206615481565b5b90600052602060002090600b0201600401805461222390615341565b80601f016020809104026020016040519081016040528092919081815260200182805461224f90615341565b801561229c5780601f106122715761010080835404028352916020019161229c565b820191906000526020600020905b81548152906001019060200180831161227f57829003601f168201915b505050505090506122ad8287612fa8565b156122ce576122bc8186612fa8565b156122cd57600193505050506122e9565b5b505080806122db906154df565b915050612132565b50600090505b92915050565b600080600090505b6001805490508110156123fa5760006001828154811061231a57612319615481565b5b90600052602060002090600302016001015490506123388186612f4f565b156123e657856001838154811061235257612351615481565b5b906000526020600020906003020160000160006101000a81548173ffffffffffffffffffffffffffffffffffffffff021916908373ffffffffffffffffffffffffffffffffffffffff16021790555083600183815481106123b6576123b5615481565b5b906000526020600020906003020160020190805190602001906123da929190614267565b50600192505050612400565b5080806123f2906154df565b9150506122f7565b50600090505b9392505050565b600080600090505b6007805490508110156124c25760006007828154811061243257612431615481565b5b90600052602060002090600702016000015490506124508185612f4f565b156124ae5760026007838154811061246b5761246a615481565b5b906000526020600020906007020160060160006101000a81548160ff0219169083600281111561249e5761249d615672565b5b02179055506001925050506124c8565b5080806124ba906154df565b91505061240f565b50600090505b919050565b6000816040516020016124e091906157e7565b604051602081830303815290604052805190602001208360405160200161250791906157e7565b6040516020818303038152906040528051906020012014905092915050565b6000806040518060e001604052808981526020018881526020018781526020018681526020018581526020018481526020016000600281111561256c5761256b615672565b5b8152509050600781908060018154018082558091505060019003906000526020600020906007020160009091909190915060008201518160000155602082015181600101556040820151816002015560608201518160030190805190602001906125d7929190614267565b5060808201518160040190805190602001906125f4929190614267565b5060a0820151816005015560c08201518160060160006101000a81548160ff0219169083600281111561262a57612629615672565b5b0217905550505060019150509695505050505050565b6000806000905060005b6002805490508110156126c3576126a6336002838154811061266f5761266e615481565b5b906000526020600020906003020160000160009054906101000a900473ffffffffffffffffffffffffffffffffffffffff166124cd565b156126b057600191505b80806126bb906154df565b91505061264a565b50600115158115151461270b576040517f08c379a000000000000000000000000000000000000000000000000000000000815260040161270290615874565b60405180910390fd5b60005b6003805490508110156127bb5761274a846003838154811061273357612732615481565b5b90600052602060002090600b020160000154612f4f565b156127a85760006003828154811061276557612764615481565b5b90600052602060002090600b0201600a0160016101000a81548160ff0219169083600281111561279857612797615672565b5b02179055506001925050506127c2565b80806127b3906154df565b91505061270e565b5060009150505b919050565b6000805b6001805490508110156128445761282733600183815481106127f0576127ef615481565b5b906000526020600020906003020160000160009054906101000a900473ffffffffffffffffffffffffffffffffffffffff166124cd565b1561283157600191505b808061283c906154df565b9150506127cb565b50600115158115151461288c576040517f08c379a000000000000000000000000000000000000000000000000000000000815260040161288390615906565b60405180910390fd5b61289461437a565b87816000018181525050858160600181905250848160800181905250838160a00181905250868160c0018181525050888160e0019073ffffffffffffffffffffffffffffffffffffffff16908173ffffffffffffffffffffffffffffffffffffffff16815250508281610100018190525060038190806001815401808255809150506001900390600052602060002090600b0201600090919091909150600082015181600001556020820151816001019080519060200190612957929190614267565b506040820151816002019080519060200190612974929190614267565b506060820151816003019080519060200190612991929190614267565b5060808201518160040190805190602001906129ae929190614267565b5060a08201518160050190805190602001906129cb929190614267565b5060c0820151816006015560e08201518160070160006101000a81548173ffffffffffffffffffffffffffffffffffffffff021916908373ffffffffffffffffffffffffffffffffffffffff160217905550610100820151816008019080519060200190612a3a929190614267565b50610120820151816009019080519060200190612a58929190614267565b5061014082015181600a0160006101000a81548160ff02191690831515021790555061016082015181600a0160016101000a81548160ff02191690836002811115612aa657612aa5615672565b5b02179055505050505050505050505050565b606060008054612ac790615341565b80601f0160208091040260200160405190810160405280929190818152602001828054612af390615341565b8015612b405780601f10612b1557610100808354040283529160200191612b40565b820191906000526020600020905b815481529060010190602001808311612b2357829003601f168201915b5050505050905090565b6000600960009054906101000a900473ffffffffffffffffffffffffffffffffffffffff1673ffffffffffffffffffffffffffffffffffffffff163373ffffffffffffffffffffffffffffffffffffffff1614612bdc576040517f08c379a0000000000000000000000000000000000000000000000000000000008152600401612bd3906156ed565b60405180910390fd5b60005b600280549050811015612ed357612c1b8360028381548110612c0457612c03615481565b5b906000526020600020906003020160010154612f4f565b15612ec057600081905060008190505b6001600280549050612c3d91906155b9565b811015612dd5576002600182612c5391906155ed565b81548110612c6457612c63615481565b5b906000526020600020906003020160000160009054906101000a900473ffffffffffffffffffffffffffffffffffffffff1660028281548110612caa57612ca9615481565b5b906000526020600020906003020160000160006101000a81548173ffffffffffffffffffffffffffffffffffffffff021916908373ffffffffffffffffffffffffffffffffffffffff1602179055506002600182612d0891906155ed565b81548110612d1957612d18615481565b5b90600052602060002090600302016001015460028281548110612d3f57612d3e615481565b5b9060005260206000209060030201600101819055506002600182612d6391906155ed565b81548110612d7457612d73615481565b5b906000526020600020906003020160020160028281548110612d9957612d98615481565b5b9060005260206000209060030201600201908054612db690615341565b612dc1929190614163565b508080612dcd906154df565b915050612c2b565b5060026001600280549050612dea91906155b9565b81548110612dfb57612dfa615481565b5b9060005260206000209060030201600080820160006101000a81549073ffffffffffffffffffffffffffffffffffffffff02191690556001820160009055600282016000612e4991906141f0565b50506002805480612e5d57612e5c615643565b5b6001900381819060005260206000209060030201600080820160006101000a81549073ffffffffffffffffffffffffffffffffffffffff02191690556001820160009055600282016000612eb191906141f0565b50509055600192505050612ed9565b8080612ecb906154df565b915050612bdf565b50600090505b919050565b600080600090505b600780549050811015612f4457612f228360078381548110612f0b57612f0a615481565b5b906000526020600020906007020160000154612f4f565b15612f31576001915050612f4a565b8080612f3c906154df565b915050612ee6565b50600090505b919050565b600081604051602001612f629190615947565b6040516020818303038152906040528051906020012083604051602001612f899190615947565b6040516020818303038152906040528051906020012014905092915050565b600081604051602001612fbb91906152fb565b6040516020818303038152906040528051906020012083604051602001612fe291906152fb565b6040516020818303038152906040528051906020012014905092915050565b600080600090505b60038054905081101561306757613045836003838154811061302e5761302d615481565b5b90600052602060002090600b020160000154612f4f565b1561305457600191505061306d565b808061305f906154df565b915050613009565b50600090505b919050565b6000806000905060005b6002805490508110156130f5576130d833600283815481106130a1576130a0615481565b5b906000526020600020906003020160000160009054906101000a900473ffffffffffffffffffffffffffffffffffffffff166124cd565b156130e257600191505b80806130ed906154df565b91505061307c565b50600115158115151461313d576040517f08c379a0000000000000000000000000000000000000000000000000000000008152600401613134906159d4565b60405180910390fd5b60005b6003805490508110156131ed5761317c846003838154811061316557613164615481565b5b90600052602060002090600b020160000154612f4f565b156131da5760026003828154811061319757613196615481565b5b90600052602060002090600b0201600a0160016101000a81548160ff021916908360028111156131ca576131c9615672565b5b02179055506001925050506131f4565b80806131e5906154df565b915050613140565b5060009150505b919050565b60008060405180604001604052808581526020018481525090506008819080600181540180825580915050600190039060005260206000209060020201600090919091909150600082015181600001556020820151816001019080519060200190613265929190614267565b505050600191505092915050565b6000806040518061016001604052808e73ffffffffffffffffffffffffffffffffffffffff1681526020018d81526020018c81526020018b81526020018a815260200189815260200188815260200187815260200186815260200185815260200184815250905060048190806001815401808255809150506001900390600052602060002090600b020160009091909190915060008201518160000160006101000a81548173ffffffffffffffffffffffffffffffffffffffff021916908373ffffffffffffffffffffffffffffffffffffffff160217905550602082015181600101556040820151816002019080519060200190613373929190614267565b506060820151816003019080519060200190613390929190614267565b5060808201518160040190805190602001906133ad929190614267565b5060a08201518160050190805190602001906133ca929190614267565b5060c08201518160060190805190602001906133e7929190614267565b5060e0820151816007019080519060200190613404929190614267565b50610100820151816008019080519060200190613422929190614267565b50610120820151816009015561014082015181600a01908051906020019061344b929190614267565b50505060019150509b9a5050505050505050505050565b600960009054906101000a900473ffffffffffffffffffffffffffffffffffffffff1673ffffffffffffffffffffffffffffffffffffffff163373ffffffffffffffffffffffffffffffffffffffff16146134f2576040517f08c379a00000000000000000000000000000000000000000000000000000000081526004016134e9906156ed565b60405180910390fd5b6134fa614405565b83816000019073ffffffffffffffffffffffffffffffffffffffff16908173ffffffffffffffffffffffffffffffffffffffff168152505082816020018181525050818160400181905250600281908060018154018082558091505060019003906000526020600020906003020160009091909190915060008201518160000160006101000a81548173ffffffffffffffffffffffffffffffffffffffff021916908373ffffffffffffffffffffffffffffffffffffffff1602179055506020820151816001015560408201518160020190805190602001906135de929190614267565b50505050505050565b600080600090505b6007805490508110156136a25760006007828154811061361257613611615481565b5b90600052602060002090600702016000015490506136308185612f4f565b1561368e5760006007838154811061364b5761364a615481565b5b906000526020600020906007020160060160006101000a81548160ff0219169083600281111561367e5761367d615672565b5b02179055506001925050506136a8565b50808061369a906154df565b9150506135ef565b50600090505b919050565b6000806040518060a00160405280888152602001878152602001868152602001858152602001848152509050600581908060018154018082558091505060019003906000526020600020906005020160009091909190915060008201518160000155602082015181600101556040820151816002019080519060200190613735929190614267565b506060820151816003019080519060200190613752929190614267565b50608082015181600401908051906020019061376f929190614267565b505050600191505095945050505050565b600080600090505b60058054905081101561389b576000600582815481106137ab576137aa615481565b5b90600052602060002090600502016000015490506137c98188612f4f565b156138875785600583815481106137e3576137e2615481565b5b90600052602060002090600502016002019080519060200190613807929190614267565b50846005838154811061381d5761381c615481565b5b90600052602060002090600502016003019080519060200190613841929190614267565b50836005838154811061385757613856615481565b5b9060005260206000209060050201600401908051906020019061387b929190614267565b506001925050506138a1565b508080613893906154df565b915050613788565b50600090505b949350505050565b600080600090505b600480549050811015613ad6576000600482815481106138d4576138d3615481565b5b90600052602060002090600b02016001015490506138f2818c612f4f565b15613ac257896004838154811061390c5761390b615481565b5b90600052602060002090600b02016003019080519060200190613930929190614267565b50886004838154811061394657613945615481565b5b90600052602060002090600b0201600401908051906020019061396a929190614267565b5087600483815481106139805761397f615481565b5b90600052602060002090600b020160050190805190602001906139a4929190614267565b5086600483815481106139ba576139b9615481565b5b90600052602060002090600b020160060190805190602001906139de929190614267565b5085600483815481106139f4576139f3615481565b5b90600052602060002090600b02016007019080519060200190613a18929190614267565b508560048381548110613a2e57613a2d615481565b5b90600052602060002090600b02016008019080519060200190613a52929190614267565b508460048381548110613a6857613a67615481565b5b90600052602060002090600b0201600901819055508360048381548110613a9257613a91615481565b5b90600052602060002090600b0201600a019080519060200190613ab6929190614267565b50600192505050613adc565b508080613ace906154df565b9150506138b1565b50600090505b98975050505050505050565b600080600090505b600780549050811015613d5b57600060078281548110613b1357613b12615481565b5b9060005260206000209060070201600001549050613b318185612f4f565b15613d475760076001600780549050613b4a91906155b9565b81548110613b5b57613b5a615481565b5b906000526020600020906007020160078381548110613b7d57613b7c615481565b5b90600052602060002090600702016000820154816000015560018201548160010155600282015481600201556003820181600301908054613bbd90615341565b613bc89291906142ed565b506004820181600401908054613bdd90615341565b613be89291906142ed565b50600582015481600501556006820160009054906101000a900460ff168160060160006101000a81548160ff02191690836002811115613c2b57613c2a615672565b5b021790555090505060076001600780549050613c4791906155b9565b81548110613c5857613c57615481565b5b906000526020600020906007020160008082016000905560018201600090556002820160009055600382016000613c8f91906141f0565b600482016000613c9f91906141f0565b60058201600090556006820160006101000a81549060ff021916905550506007805480613ccf57613cce615643565b5b600190038181906000526020600020906007020160008082016000905560018201600090556002820160009055600382016000613d0c91906141f0565b600482016000613d1c91906141f0565b60058201600090556006820160006101000a81549060ff021916905550509055600192505050613d61565b508080613d53906154df565b915050613af0565b50600090505b919050565b6000806000905060005b600280549050811015613de957613dcc3360028381548110613d9557613d94615481565b5b906000526020600020906003020160000160009054906101000a900473ffffffffffffffffffffffffffffffffffffffff166124cd565b15613dd657600191505b8080613de1906154df565b915050613d70565b506001151581151514613e31576040517f08c379a0000000000000000000000000000000000000000000000000000000008152600401613e2890615a66565b60405180910390fd5b60005b600380549050811015613ee157613e708460038381548110613e5957613e58615481565b5b90600052602060002090600b020160000154612f4f565b15613ece57600160038281548110613e8b57613e8a615481565b5b90600052602060002090600b0201600a0160016101000a81548160ff02191690836002811115613ebe57613ebd615672565b5b0217905550600192505050613ee8565b8080613ed9906154df565b915050613e34565b5060009150505b919050565b60005b600380549050811015613ffe57613f2c8260038381548110613f1557613f14615481565b5b90600052602060002090600b020160000154612f4f565b15613feb57613f803360038381548110613f4957613f48615481565b5b90600052602060002090600b020160070160009054906101000a900473ffffffffffffffffffffffffffffffffffffffff166124cd565b15613fea578260038281548110613f9a57613f99615481565b5b90600052602060002090600b020160070160006101000a81548173ffffffffffffffffffffffffffffffffffffffff021916908373ffffffffffffffffffffffffffffffffffffffff1602179055505b5b8080613ff6906154df565b915050613ef0565b505050565b6000805b60028054905081101561408057614063336002838154811061402c5761402b615481565b5b906000526020600020906003020160000160009054906101000a900473ffffffffffffffffffffffffffffffffffffffff166124cd565b1561406d57600191505b8080614078906154df565b915050614007565b5060011515811515146140c8576040517f08c379a00000000000000000000000000000000000000000000000000000000081526004016140bf90615af8565b60405180910390fd5b60005b60038054905081101561415d5761410784600383815481106140f0576140ef615481565b5b90600052602060002090600b020160000154612f4f565b1561414a57826003828154811061412157614120615481565b5b90600052602060002090600b0201600a0160006101000a81548160ff0219169083151502179055505b8080614155906154df565b9150506140cb565b50505050565b82805461416f90615341565b90600052602060002090601f01602090048101928261419157600085556141df565b82601f106141a257805485556141df565b828001600101855582156141df57600052602060002091601f016020900482015b828111156141de5782548255916001019190600101906141c3565b5b5090506141ec919061443c565b5090565b5080546141fc90615341565b6000825580601f1061420e575061422d565b601f01602090049060005260206000209081019061422c919061443c565b5b50565b6040518060600160405280600073ffffffffffffffffffffffffffffffffffffffff16815260200160008152602001606081525090565b82805461427390615341565b90600052602060002090601f01602090048101928261429557600085556142dc565b82601f106142ae57805160ff19168380011785556142dc565b828001600101855582156142dc579182015b828111156142db5782518255916020019190600101906142c0565b5b5090506142e9919061443c565b5090565b8280546142f990615341565b90600052602060002090601f01602090048101928261431b5760008555614369565b82601f1061432c5780548555614369565b8280016001018555821561436957600052602060002091601f016020900482015b8281111561436857825482559160010191906001019061434d565b5b509050614376919061443c565b5090565b60405180610180016040528060008152602001606081526020016060815260200160608152602001606081526020016060815260200160008152602001600073ffffffffffffffffffffffffffffffffffffffff1681526020016060815260200160608152602001600015158152602001600060028111156143ff576143fe615672565b5b81525090565b6040518060600160405280600073ffffffffffffffffffffffffffffffffffffffff16815260200160008152602001606081525090565b5b8082111561445557600081600090555060010161443d565b5090565b6000604051905090565b600080fd5b600080fd5b600080fd5b600080fd5b6000601f19601f8301169050919050565b7f4e487b7100000000000000000000000000000000000000000000000000000000600052604160045260246000fd5b6144c082614477565b810181811067ffffffffffffffff821117156144df576144de614488565b5b80604052505050565b60006144f2614459565b90506144fe82826144b7565b919050565b600067ffffffffffffffff82111561451e5761451d614488565b5b61452782614477565b9050602081019050919050565b82818337600083830152505050565b600061455661455184614503565b6144e8565b90508281526020810184848401111561457257614571614472565b5b61457d848285614534565b509392505050565b600082601f83011261459a5761459961446d565b5b81356145aa848260208601614543565b91505092915050565b600080604083850312156145ca576145c9614463565b5b600083013567ffffffffffffffff8111156145e8576145e7614468565b5b6145f485828601614585565b925050602083013567ffffffffffffffff81111561461557614614614468565b5b61462185828601614585565b9150509250929050565b600081519050919050565b600082825260208201905092915050565b60005b8381101561466557808201518184015260208101905061464a565b83811115614674576000848401525b50505050565b60006146858261462b565b61468f8185614636565b935061469f818560208601614647565b6146a881614477565b840191505092915050565b600060208201905081810360008301526146cd818461467a565b905092915050565b6000819050919050565b6146e8816146d5565b81146146f357600080fd5b50565b600081359050614705816146df565b92915050565b60006020828403121561472157614720614463565b5b600061472f848285016146f6565b91505092915050565b60008115159050919050565b61474d81614738565b82525050565b60006020820190506147686000830184614744565b92915050565b600073ffffffffffffffffffffffffffffffffffffffff82169050919050565b60006147998261476e565b9050919050565b6147a98161478e565b81146147b457600080fd5b50565b6000813590506147c6816147a0565b92915050565b6000806000606084860312156147e5576147e4614463565b5b60006147f3868287016147b7565b9350506020614804868287016146f6565b925050604084013567ffffffffffffffff81111561482557614824614468565b5b61483186828701614585565b9150509250925092565b60006020828403121561485157614850614463565b5b600082013567ffffffffffffffff81111561486f5761486e614468565b5b61487b84828501614585565b91505092915050565b6000806040838503121561489b5761489a614463565b5b60006148a9858286016146f6565b925050602083013567ffffffffffffffff8111156148ca576148c9614468565b5b6148d685828601614585565b9150509250929050565b600080600080600080600060e0888a0312156148ff576148fe614463565b5b600061490d8a828b016147b7565b975050602061491e8a828b016146f6565b965050604061492f8a828b016146f6565b955050606088013567ffffffffffffffff8111156149505761494f614468565b5b61495c8a828b01614585565b945050608088013567ffffffffffffffff81111561497d5761497c614468565b5b6149898a828b01614585565b93505060a088013567ffffffffffffffff8111156149aa576149a9614468565b5b6149b68a828b01614585565b92505060c088013567ffffffffffffffff8111156149d7576149d6614468565b5b6149e38a828b01614585565b91505092959891949750929550565b600080600060608486031215614a0b57614a0a614463565b5b6000614a19868287016146f6565b935050602084013567ffffffffffffffff811115614a3a57614a39614468565b5b614a4686828701614585565b925050604084013567ffffffffffffffff811115614a6757614a66614468565b5b614a7386828701614585565b9150509250925092565b600080600080600080600060e0888a031215614a9c57614a9b614463565b5b6000614aaa8a828b016146f6565b9750506020614abb8a828b016146f6565b965050604088013567ffffffffffffffff811115614adc57614adb614468565b5b614ae88a828b01614585565b955050606088013567ffffffffffffffff811115614b0957614b08614468565b5b614b158a828b01614585565b9450506080614b268a828b016146f6565b93505060a088013567ffffffffffffffff811115614b4757614b46614468565b5b614b538a828b01614585565b92505060c088013567ffffffffffffffff811115614b7457614b73614468565b5b614b808a828b01614585565b91505092959891949750929550565b60008060008060808587031215614ba957614ba8614463565b5b6000614bb7878288016146f6565b9450506020614bc8878288016146f6565b935050604085013567ffffffffffffffff811115614be957614be8614468565b5b614bf587828801614585565b9250506060614c06878288016146f6565b91505092959194509250565b60008060408385031215614c2957614c28614463565b5b6000614c37858286016147b7565b9250506020614c48858286016147b7565b9150509250929050565b60008060008060008060c08789031215614c6f57614c6e614463565b5b6000614c7d89828a016146f6565b9650506020614c8e89828a016146f6565b9550506040614c9f89828a016146f6565b945050606087013567ffffffffffffffff811115614cc057614cbf614468565b5b614ccc89828a01614585565b935050608087013567ffffffffffffffff811115614ced57614cec614468565b5b614cf989828a01614585565b92505060a0614d0a89828a016146f6565b9150509295509295509295565b60008060408385031215614d2e57614d2d614463565b5b6000614d3c858286016146f6565b9250506020614d4d858286016146f6565b9150509250929050565b60008060008060008060008060008060006101608c8e031215614d7d57614d7c614463565b5b6000614d8b8e828f016147b7565b9b50506020614d9c8e828f016146f6565b9a505060408c013567ffffffffffffffff811115614dbd57614dbc614468565b5b614dc98e828f01614585565b99505060608c013567ffffffffffffffff811115614dea57614de9614468565b5b614df68e828f01614585565b98505060808c013567ffffffffffffffff811115614e1757614e16614468565b5b614e238e828f01614585565b97505060a08c013567ffffffffffffffff811115614e4457614e43614468565b5b614e508e828f01614585565b96505060c08c013567ffffffffffffffff811115614e7157614e70614468565b5b614e7d8e828f01614585565b95505060e08c013567ffffffffffffffff811115614e9e57614e9d614468565b5b614eaa8e828f01614585565b9450506101008c013567ffffffffffffffff811115614ecc57614ecb614468565b5b614ed88e828f01614585565b935050610120614eea8e828f016146f6565b9250506101408c013567ffffffffffffffff811115614f0c57614f0b614468565b5b614f188e828f01614585565b9150509295989b509295989b9093969950565b600080600080600060a08688031215614f4757614f46614463565b5b6000614f55888289016146f6565b9550506020614f66888289016146f6565b945050604086013567ffffffffffffffff811115614f8757614f86614468565b5b614f9388828901614585565b935050606086013567ffffffffffffffff811115614fb457614fb3614468565b5b614fc088828901614585565b925050608086013567ffffffffffffffff811115614fe157614fe0614468565b5b614fed88828901614585565b9150509295509295909350565b6000806000806080858703121561501457615013614463565b5b6000615022878288016146f6565b945050602085013567ffffffffffffffff81111561504357615042614468565b5b61504f87828801614585565b935050604085013567ffffffffffffffff8111156150705761506f614468565b5b61507c87828801614585565b925050606085013567ffffffffffffffff81111561509d5761509c614468565b5b6150a987828801614585565b91505092959194509250565b600080600080600080600080610100898b0312156150d6576150d5614463565b5b60006150e48b828c016146f6565b985050602089013567ffffffffffffffff81111561510557615104614468565b5b6151118b828c01614585565b975050604089013567ffffffffffffffff81111561513257615131614468565b5b61513e8b828c01614585565b965050606089013567ffffffffffffffff81111561515f5761515e614468565b5b61516b8b828c01614585565b955050608089013567ffffffffffffffff81111561518c5761518b614468565b5b6151988b828c01614585565b94505060a089013567ffffffffffffffff8111156151b9576151b8614468565b5b6151c58b828c01614585565b93505060c06151d68b828c016146f6565b92505060e089013567ffffffffffffffff8111156151f7576151f6614468565b5b6152038b828c01614585565b9150509295985092959890939650565b6000806040838503121561522a57615229614463565b5b6000615238858286016147b7565b9250506020615249858286016146f6565b9150509250929050565b61525c81614738565b811461526757600080fd5b50565b60008135905061527981615253565b92915050565b6000806040838503121561529657615295614463565b5b60006152a4858286016146f6565b92505060206152b58582860161526a565b9150509250929050565b600081905092915050565b60006152d58261462b565b6152df81856152bf565b93506152ef818560208601614647565b80840191505092915050565b600061530782846152ca565b915081905092915050565b7f4e487b7100000000000000000000000000000000000000000000000000000000600052602260045260246000fd5b6000600282049050600182168061535957607f821691505b60208210810361536c5761536b615312565b5b50919050565b60008190508160005260206000209050919050565b6000815461539481615341565b61539e81866152bf565b945060018216600081146153b957600181146153ca576153fd565b60ff198316865281860193506153fd565b6153d385615372565b60005b838110156153f5578154818901526001820191506020810190506153d6565b838801955050505b50505092915050565b7f2000000000000000000000000000000000000000000000000000000000000000600082015250565b600061543c6001836152bf565b915061544782615406565b600182019050919050565b600061545e8285615387565b91506154698261542f565b915061547582846152ca565b91508190509392505050565b7f4e487b7100000000000000000000000000000000000000000000000000000000600052603260045260246000fd5b7f4e487b7100000000000000000000000000000000000000000000000000000000600052601160045260246000fd5b60006154ea826146d5565b91507fffffffffffffffffffffffffffffffffffffffffffffffffffffffffffffffff820361551c5761551b6154b0565b5b600182019050919050565b7f536f727279204f6e6c792041204d616e75666163747572652043616e2044656c60008201527f6574652041207665636869616c20210000000000000000000000000000000000602082015250565b6000615583602f83614636565b915061558e82615527565b604082019050919050565b600060208201905081810360008301526155b281615576565b9050919050565b60006155c4826146d5565b91506155cf836146d5565b9250828210156155e2576155e16154b0565b5b828203905092915050565b60006155f8826146d5565b9150615603836146d5565b9250827fffffffffffffffffffffffffffffffffffffffffffffffffffffffffffffffff03821115615638576156376154b0565b5b828201905092915050565b7f4e487b7100000000000000000000000000000000000000000000000000000000600052603160045260246000fd5b7f4e487b7100000000000000000000000000000000000000000000000000000000600052602160045260246000fd5b7f4163636573732064656e69656421000000000000000000000000000000000000600082015250565b60006156d7600e83614636565b91506156e2826156a1565b602082019050919050565b60006020820190508181036000830152615706816156ca565b9050919050565b7f536f727279204f6e6c792041204d616e75666163747572652043616e2045646960008201527f742041207665636869616c202100000000000000000000000000000000000000602082015250565b6000615769602d83614636565b91506157748261570d565b604082019050919050565b600060208201905081810360008301526157988161575c565b9050919050565b60008160601b9050919050565b60006157b78261579f565b9050919050565b60006157c9826157ac565b9050919050565b6157e16157dc8261478e565b6157be565b82525050565b60006157f382846157d0565b60148201915081905092915050565b7f536f727279204f6e6c7920412042616e6b2043616e204163636570742041205260008201527f6571756573742021000000000000000000000000000000000000000000000000602082015250565b600061585e602883614636565b915061586982615802565b604082019050919050565b6000602082019050818103600083015261588d81615851565b9050919050565b7f536f727279204f6e6c792041204d616e75666163747572652043616e2041646460008201527f207665636869616c202100000000000000000000000000000000000000000000602082015250565b60006158f0602a83614636565b91506158fb82615894565b604082019050919050565b6000602082019050818103600083015261591f816158e3565b9050919050565b6000819050919050565b61594161593c826146d5565b615926565b82525050565b60006159538284615930565b60208201915081905092915050565b7f536f727279204f6e6c7920412042616e6b2043616e2050656e64696e6720412060008201527f5265717565737420210000000000000000000000000000000000000000000000602082015250565b60006159be602983614636565b91506159c982615962565b604082019050919050565b600060208201905081810360008301526159ed816159b1565b9050919050565b7f536f727279204f6e6c7920412042616e6b2043616e2052656a6563742041205260008201527f6571756573742021000000000000000000000000000000000000000000000000602082015250565b6000615a50602883614636565b9150615a5b826159f4565b604082019050919050565b60006020820190508181036000830152615a7f81615a43565b9050919050565b7f536f727279204f6e6c7920412042616e6b2043616e20626c6f636b204120436160008201527f7220210000000000000000000000000000000000000000000000000000000000602082015250565b6000615ae2602383614636565b9150615aed82615a86565b604082019050919050565b60006020820190508181036000830152615b1181615ad5565b905091905056fea2646970667358221220a1aea7001fbeed3e35470da2710c90a19cb61a93e56c488aa60143f5f944cb4364736f6c634300080e0033",
  "immutableReferences": {},
  "source": "//SPDX-License-Identifier: MIT\r\npragma solidity ^0.8.11;\r\n\r\ncontract VehicleSystem\r\n{\r\n\r\n    // struct for traffic violations\r\n    // struct for transications\r\n    // struct for licenses and make a relation with users and cars\r\n    // enum for status pending_payment, compelete, failed\r\n    // enum types of trffic violations like (Skip the top speed, etc..) | can add a custom one if not any of other we store?\r\n    // struct for users reuqests to remove block on cars\r\n\r\n    enum STATE {\r\n        ACCEPTED,\r\n        REJECTED,\r\n        PENDING\r\n    }\r\n\r\n    struct manufacture\r\n    {\r\n        address manufacture_address;\r\n        uint manufacture_id;\r\n        string manufacture_name;\r\n    }\r\n\r\n    struct vehicle_data\r\n    {\r\n        uint vehicle_id;\r\n        string vehicle_name;\r\n        string vehicle_type;\r\n        string vehicle_model;\r\n        string vehicle_motornumber;\r\n        string vehicle_chasea_number;\r\n        uint vehicle_manufacture_id;\r\n        address vehicle_owner;\r\n        string vehicle_color;\r\n        string vehicle_production_Year;\r\n        bool isBlocked;\r\n        STATE state;\r\n    }\r\n\r\n    struct user\r\n    {\r\n        address user_address;\r\n        uint user_id;\r\n        string user_name;\r\n        string user_email;\r\n        // hash password when register with any encrypt on solidity\r\n        // and when try to login hash the password user enterd to equals with password stored.\r\n        string user_password;\r\n        //string user_phone;\r\n        string user_gender;\r\n        string user_birthday;\r\n        string user_living_address;\r\n        string user_national_id;\r\n        uint user_bank_id;\r\n        string user_bank_account;\r\n    }\r\n\r\n    struct bank\r\n    {\r\n        address bank_address;\r\n        uint bank_id;\r\n        string bank_name;\r\n    }\r\n\r\n\r\n    // Traffic Violation\r\n    struct traffic_violation\r\n    {\r\n        uint id;\r\n        uint vehicle_id;\r\n        string violation_type;\r\n        string violation_description;\r\n        string violation_status;\r\n    }\r\n\r\n    //Transactions struct\r\n    struct transaction\r\n    {\r\n        uint trx_id;\r\n        uint user_id;\r\n        string amount; // there is no floating point must bo string\r\n        string status;\r\n        uint bank_id;\r\n        string created_at;\r\n        string updated_at;\r\n        // no updated at -> tranactions is only one time\r\n    }\r\n\r\n    struct license\r\n    {\r\n        uint license_id;\r\n        uint user_id;\r\n        uint car_id;\r\n        string status;\r\n        string expireat;\r\n        uint security_directorate_id;\r\n        STATE state;\r\n\r\n    }\r\n\r\n    struct security_directorate\r\n    {\r\n        uint directorate_id;\r\n        string directorate_name;\r\n    }\r\n\r\n    string mm = \"Mina Sameh\";\r\n\r\n    manufacture[] manufactures;\r\n    bank[] banks;\r\n    vehicle_data[] vehicles;\r\n    user[] users;\r\n    traffic_violation[] traffic_violations;\r\n    transaction[] transactions;\r\n    license[] licenses;\r\n    security_directorate[] sec_dir;\r\n\r\n    address private deployer;\r\n\r\n\r\n\r\n    constructor() {\r\n        deployer = msg.sender;\r\n    }\r\n\r\n    mapping(string => string) public xx;\r\n\r\n    function set_status(string memory _s, string memory _sx) public {\r\n        xx[_s] = _sx;\r\n    }\r\n\r\n    function get_status(string memory _s, string memory _ss) public view returns (string memory){\r\n        return string(abi.encodePacked(xx[_s], \" \", _ss));\r\n    }\r\n\r\n    function testPrint() public view returns (string memory){\r\n        return mm;\r\n    }\r\n\r\n    function add_security_directorate(uint passed_id, string memory passed_name) public returns (bool)\r\n    {\r\n        security_directorate memory temp_sec_dir = security_directorate(passed_id, passed_name);\r\n        sec_dir.push(temp_sec_dir);\r\n        return true;\r\n    }\r\n\r\n    function register(address _user_address, uint _user_id, string memory _user_name, string memory _user_email, string memory _user_password, string memory _user_gender, string memory _user_birthday, string memory _user_living_address, string memory _user_national_id, uint _user_bank_id, string memory _user_bank_account) public returns (bool)\r\n    {\r\n        // removed phone number -> limit 11 var passing | more -> bug\r\n        // validation if needed to implement\r\n        user memory temp_hold_user = user(_user_address, _user_id, _user_name, _user_email, _user_password, _user_gender, _user_birthday, _user_living_address, _user_national_id, _user_bank_id, _user_bank_account);\r\n        users.push(temp_hold_user);\r\n        return true;\r\n    }\r\n\r\n    function login(string memory passed_user_name, string memory passed_user_password) public view returns (bool)\r\n    {\r\n        for (uint i = 0; i < users.length; i++)\r\n        {\r\n            string memory user_name = users[i].user_name;\r\n            string memory user_password = users[i].user_password;\r\n            if (compareStrings(user_name, passed_user_name))\r\n            {\r\n                if (compareStrings(user_password, passed_user_password))\r\n                {\r\n                    return true;\r\n                }\r\n            }\r\n        }\r\n        return false;\r\n    }\r\n\r\n    function edit_user(uint _user_id, string memory _user_email, string memory _user_password, string memory _user_gender, string memory _user_birthday, string memory _user_living_address, uint _user_bank_id, string memory _user_bank_account) public returns (bool)\r\n    {\r\n        // edit every thing\r\n        // based on our desition\r\n        for (uint i = 0; i < users.length; i++)\r\n        {\r\n            uint user_id = users[i].user_id;\r\n            if (compareUint(user_id, _user_id))\r\n            {\r\n                //user founded\r\n                //update information\r\n                //users[i].user_address = _user_address; // logical we can't change this\r\n                //users[i].user_id = _user_id;\r\n                //users[i].user_name = _user_name;\r\n                users[i].user_email = _user_email;\r\n                // hash password when register with any encrypt on solidity\r\n                // and when try to login hash the password user enterd to equals with password stored.\r\n                users[i].user_password = _user_password;\r\n                //string user_phone;\r\n                users[i].user_gender = _user_gender;\r\n                users[i].user_birthday = _user_birthday;\r\n                users[i].user_living_address = _user_living_address;\r\n                users[i].user_national_id = _user_living_address;\r\n                users[i].user_bank_id = _user_bank_id;\r\n                users[i].user_bank_account = _user_bank_account;\r\n                return true;\r\n            }\r\n        }\r\n        return false;\r\n    }\r\n\r\n\r\n    function add_manufacture_data(address add, uint id, string memory name) public onlyDeployer {\r\n        manufacture memory manufacture_1;\r\n        manufacture_1.manufacture_address = add;\r\n        manufacture_1.manufacture_id = id;\r\n        manufacture_1.manufacture_name = name;\r\n        manufactures.push(manufacture_1);\r\n    }\r\n\r\n    function edit_manufacture(address passed_manufacture_address, uint passed_manufacture_id, string memory passed_manufacture_name) public returns (bool)\r\n    {\r\n        for (uint i = 0; i < manufactures.length; i++)\r\n        {\r\n            uint current_manufacture_id = manufactures[i].manufacture_id;\r\n            if (compareUint(current_manufacture_id, passed_manufacture_id))\r\n            {\r\n                //make edits\r\n                manufactures[i].manufacture_address = passed_manufacture_address;\r\n                manufactures[i].manufacture_name = passed_manufacture_name;\r\n                return true;\r\n            }\r\n        }\r\n        return false;\r\n    }\r\n\r\n    function delete_manufature(uint passed_manufacture_id) public onlyDeployer returns (bool)\r\n    {\r\n        for (uint i = 0; i < manufactures.length; i++) {\r\n            if (compareUint(passed_manufacture_id, manufactures[i].manufacture_id)) {\r\n                uint index = i;\r\n                for (uint j = index; j < banks.length - 1; j++) {\r\n                    manufactures[j].manufacture_address = manufactures[j + 1].manufacture_address;\r\n                    manufactures[j].manufacture_id = manufactures[j + 1].manufacture_id;\r\n                    manufactures[j].manufacture_name = manufactures[j + 1].manufacture_name;\r\n                }\r\n                delete manufactures[manufactures.length - 1];\r\n                manufactures.pop();\r\n                return true;\r\n            }\r\n        }\r\n        return false;\r\n    }\r\n\r\n    function add_license(uint passed_license_id, uint passed_user_id, uint passed_car_id, string memory passed_status, string memory passed_expireat, uint passed_security_directorate_id) public returns (bool)\r\n    {\r\n        license memory temp_license = license(passed_license_id, passed_user_id, passed_car_id, passed_status, passed_expireat, passed_security_directorate_id, STATE.ACCEPTED);\r\n        licenses.push(temp_license);\r\n        return true;\r\n    }\r\n\r\n    function edit_license(uint passed_license_id, uint passed_car_id, string memory passed_status, uint passed_security_directorate_id) public returns (bool)\r\n    {\r\n        for (uint i = 0; i < licenses.length; i++)\r\n        {\r\n            uint license_id = licenses[i].license_id;\r\n            if (compareUint(license_id, passed_license_id))\r\n            {\r\n                //found license | edit\r\n                //edit only car and status\r\n                licenses[i].car_id = passed_car_id;\r\n                licenses[i].status = passed_status;\r\n                licenses[i].security_directorate_id = passed_security_directorate_id;\r\n                return true;\r\n            }\r\n        }\r\n        return false;\r\n    }\r\n\r\n    function delete_license(uint passed_license_id) public returns (bool)\r\n    {\r\n        for (uint i = 0; i < licenses.length; i++)\r\n        {\r\n            uint license_id = licenses[i].license_id;\r\n            if (compareUint(license_id, passed_license_id))\r\n            {\r\n                //found license | delete\r\n                licenses[i] = licenses[licenses.length - 1];\r\n                //use pop\r\n                delete licenses[licenses.length - 1];\r\n                licenses.pop();\r\n\r\n                return true;\r\n            }\r\n        }\r\n        return false;\r\n    }\r\n\r\n    function request_to_renewal_licence(uint L_id) public view returns (bool)\r\n    {\r\n        for (uint i = 0; i < licenses.length; i++) {\r\n            if (compareUint(L_id, licenses[i].license_id)) {\r\n                add_transaction;\r\n                return true;\r\n            }\r\n        }\r\n        return false;\r\n    }\r\n\r\n    function accept_to_renewal_license(uint L_id) public returns (bool) {\r\n        for (uint i = 0; i < licenses.length; i++)\r\n        {\r\n            uint license_id = licenses[i].license_id;\r\n            if (compareUint(license_id, L_id))\r\n            {\r\n                licenses[i].state = STATE.ACCEPTED;\r\n                return true;\r\n            }\r\n        }\r\n        return false;\r\n    }\r\n\r\n    function reject_to_renewal_license(uint L_id) public returns (bool) {\r\n        for (uint i = 0; i < licenses.length; i++)\r\n        {\r\n            uint license_id = licenses[i].license_id;\r\n            if (compareUint(license_id, L_id))\r\n            {\r\n                licenses[i].state = STATE.REJECTED;\r\n                return true;\r\n            }\r\n        }\r\n        return false;\r\n    }\r\n\r\n    function pending_to_renewal_license(uint L_id) public returns (bool) {\r\n        for (uint i = 0; i < licenses.length; i++)\r\n        {\r\n            uint license_id = licenses[i].license_id;\r\n            if (compareUint(license_id, L_id))\r\n            {\r\n                licenses[i].state = STATE.PENDING;\r\n                return true;\r\n            }\r\n        }\r\n        return false;\r\n    }\r\n\r\n    function renewal_license(uint passed_license_id, string memory exp) public returns (bool)\r\n    {\r\n        for (uint i = 0; i < licenses.length; i++)\r\n        {\r\n            uint license_id = licenses[i].license_id;\r\n            if (compareUint(license_id, passed_license_id))\r\n            {\r\n                //found license | edit\r\n                //edit only car and status\r\n                licenses[i].expireat = exp;\r\n                return true;\r\n            }\r\n        }\r\n        return false;\r\n    }\r\n\r\n\r\n    function add_traffic_violation(uint id, uint passed_vehicle_id, string memory vio_type, string memory vio_des, string memory vio_status) public returns (bool)\r\n    {\r\n        traffic_violation memory temp_violation = traffic_violation(id, passed_vehicle_id, vio_type, vio_des, vio_status);\r\n        traffic_violations.push(temp_violation);\r\n        return true;\r\n    }\r\n\r\n    function edit_traffic_violation(uint vio_id, /*uint passed_vehicle_id, */string memory vio_type, string memory vio_des, string memory vio_status) public returns (bool)\r\n    {\r\n        for (uint i = 0; i < traffic_violations.length; i++)\r\n        {\r\n            uint vio = traffic_violations[i].id;\r\n            if (compareUint(vio, vio_id))\r\n            {\r\n                //found vio | edit\r\n                traffic_violations[i].violation_type = vio_type;\r\n                traffic_violations[i].violation_description = vio_des;\r\n                traffic_violations[i].violation_status = vio_status;\r\n                return true;\r\n            }\r\n        }\r\n        return false;\r\n    }\r\n\r\n    function delete_traffic_violation(uint vio_id) public returns (bool)\r\n    {\r\n        for (uint i = 0; i < traffic_violations.length; i++)\r\n        {\r\n            uint vio = traffic_violations[i].id;\r\n            if (compareUint(vio, vio_id))\r\n            {\r\n                // Found | Delete\r\n                traffic_violations[i] = traffic_violations[traffic_violations.length - 1];\r\n                //use pop\r\n                delete traffic_violations[traffic_violations.length - 1];\r\n                traffic_violations.pop();\r\n\r\n                return true;\r\n            }\r\n        }\r\n        return false;\r\n    }\r\n\r\n    function add_transaction(uint passed_trx_id, uint passed_user_id, string memory passed_amount, string memory passed_status, uint passed_bank_id, string memory passed_created_at, string memory passed_updated_at) public returns (bool)\r\n    {\r\n        transaction memory temp_transaction = transaction(passed_trx_id, passed_user_id, passed_amount, passed_status, passed_bank_id, passed_created_at, passed_updated_at);\r\n        transactions.push(temp_transaction);\r\n        return true;\r\n    }\r\n\r\n    function edit_transaction(uint passed_trx_id, string memory passed_status, string memory passed_updated_at) public returns (bool)\r\n    {\r\n        for (uint i = 0; i < transactions.length; i++)\r\n        {\r\n            uint trx_id = transactions[i].trx_id;\r\n            if (compareUint(trx_id, passed_trx_id))\r\n            {\r\n                //found -> edit\r\n                transactions[i].status = passed_status;\r\n                transactions[i].updated_at = passed_updated_at;\r\n                return true;\r\n            }\r\n        }\r\n        return false;\r\n    }\r\n\r\n    function request_to_remove_block(uint v_id) public view returns (bool)\r\n    {\r\n        for (uint i = 0; i < vehicles.length; i++) {\r\n            if (compareUint(v_id, vehicles[i].vehicle_id)) {\r\n                add_transaction;\r\n                return true;\r\n            }\r\n        }\r\n        return false;\r\n    }\r\n\r\n    function accept_to_remove_block(uint v_id) public returns (bool) {\r\n        bool ok = false;\r\n        for (uint i = 0; i < banks.length; i++) {\r\n            if (compareAdresses(msg.sender, banks[i].bank_address)) {\r\n                ok = true;\r\n            }\r\n        }\r\n        require(ok == true, \"Sorry Only A Bank Can Accept A Request !\");\r\n        for (uint i = 0; i < vehicles.length; i++) {\r\n            if (compareUint(v_id, vehicles[i].vehicle_id)) {\r\n                vehicles[i].state = STATE.ACCEPTED;\r\n                return true;\r\n            }\r\n        }\r\n        return false;\r\n    }\r\n\r\n    function reject_to_remove_block(uint v_id) public returns (bool) {\r\n        bool ok = false;\r\n        for (uint i = 0; i < banks.length; i++) {\r\n            if (compareAdresses(msg.sender, banks[i].bank_address)) {\r\n                ok = true;\r\n            }\r\n        }\r\n        require(ok == true, \"Sorry Only A Bank Can Reject A Request !\");\r\n        for (uint i = 0; i < vehicles.length; i++) {\r\n            if (compareUint(v_id, vehicles[i].vehicle_id)) {\r\n                vehicles[i].state = STATE.REJECTED;\r\n                return true;\r\n            }\r\n        }\r\n        return false;\r\n    }\r\n\r\n    function pending_to_remove_block(uint v_id) public returns (bool) {\r\n        bool ok = false;\r\n        for (uint i = 0; i < banks.length; i++) {\r\n            if (compareAdresses(msg.sender, banks[i].bank_address)) {\r\n                ok = true;\r\n            }\r\n        }\r\n        require(ok == true, \"Sorry Only A Bank Can Pending A Request !\");\r\n        for (uint i = 0; i < vehicles.length; i++) {\r\n            if (compareUint(v_id, vehicles[i].vehicle_id)) {\r\n                vehicles[i].state = STATE.PENDING;\r\n                return true;\r\n            }\r\n        }\r\n        return false;\r\n    }\r\n\r\n\r\n    function add_bank_data(address add, uint id, string memory name) public onlyDeployer {\r\n        bank memory bank_1;\r\n        bank_1.bank_address = add;\r\n        bank_1.bank_id = id;\r\n        bank_1.bank_name = name;\r\n        banks.push(bank_1);\r\n    }\r\n\r\n    function edit_bank(address add, uint id, string memory name) public onlyDeployer returns (bool)\r\n    {\r\n        for (uint i = 0; i < banks.length; i++) {\r\n            if (compareUint(id, banks[i].bank_id)) {\r\n                banks[i].bank_address = add;\r\n                banks[i].bank_id = id;\r\n                banks[i].bank_name = name;\r\n                return true;\r\n            }\r\n        }\r\n        return false;\r\n    }\r\n\r\n    function delete_bank(uint id) public onlyDeployer returns (bool)\r\n    {\r\n        for (uint i = 0; i < banks.length; i++) {\r\n            if (compareUint(id, banks[i].bank_id)) {\r\n                uint index = i;\r\n                for (uint j = index; j < banks.length - 1; j++) {\r\n                    banks[j].bank_address = banks[j + 1].bank_address;\r\n                    banks[j].bank_id = banks[j + 1].bank_id;\r\n                    banks[j].bank_name = banks[j + 1].bank_name;\r\n\r\n                }\r\n                delete banks[banks.length - 1];\r\n                banks.pop();\r\n                return true;\r\n            }\r\n        }\r\n        return false;\r\n    }\r\n\r\n    function add_vehicle(address add, uint id, uint manufacture_id, string memory model, string memory motornum, string memory chasea, string memory color) public {\r\n        bool ok = false;\r\n        for (uint i = 0; i < manufactures.length; i++) {\r\n            if (compareAdresses(msg.sender, manufactures[i].manufacture_address)) {\r\n                ok = true;\r\n            }\r\n        }\r\n        require(ok == true, \"Sorry Only A Manufacture Can Add vechial !\");\r\n        vehicle_data memory vechial_1;\r\n        vechial_1.vehicle_id = id;\r\n        vechial_1.vehicle_model = model;\r\n        vechial_1.vehicle_motornumber = motornum;\r\n        vechial_1.vehicle_chasea_number = chasea;\r\n        vechial_1.vehicle_manufacture_id = manufacture_id;\r\n        vechial_1.vehicle_owner = add;\r\n        vechial_1.vehicle_color = color;\r\n        vehicles.push(vechial_1);\r\n    }\r\n\r\n    function edit_vehicle(address add, uint id, uint manufacture_id, string memory model, string memory motornum, string memory chasea, string memory color) public returns (bool)\r\n    {\r\n        bool ok = false;\r\n        for (uint i = 0; i < manufactures.length; i++) {\r\n            if (compareAdresses(msg.sender, manufactures[i].manufacture_address)) {\r\n                ok = true;\r\n            }\r\n        }\r\n        require(ok == true, \"Sorry Only A Manufacture Can Edit A vechial !\");\r\n        for (uint i = 0; i < vehicles.length; i++) {\r\n            if (compareUint(id, vehicles[i].vehicle_id)) {\r\n                vehicles[i].vehicle_id = id;\r\n                vehicles[i].vehicle_model = model;\r\n                vehicles[i].vehicle_motornumber = motornum;\r\n                vehicles[i].vehicle_chasea_number = chasea;\r\n                vehicles[i].vehicle_manufacture_id = manufacture_id;\r\n                vehicles[i].vehicle_owner = add;\r\n                vehicles[i].vehicle_color = color;\r\n                return true;\r\n            }\r\n        }\r\n        return false;\r\n\r\n    }\r\n\r\n    function delete_vehicle(uint id) public returns (bool)\r\n    {\r\n        bool ok = false;\r\n        for (uint i = 0; i < manufactures.length; i++) {\r\n            if (compareAdresses(msg.sender, manufactures[i].manufacture_address)) {\r\n                ok = true;\r\n            }\r\n        }\r\n        require(ok == true, \"Sorry Only A Manufacture Can Delete A vechial !\");\r\n        for (uint i = 0; i < vehicles.length; i++) {\r\n            if (compareUint(id, vehicles[i].vehicle_id)) {\r\n                uint index = i;\r\n                for (uint j = index; j < vehicles.length - 1; j++) {\r\n                    vehicles[j].vehicle_id = vehicles[j + 1].vehicle_id;\r\n                    vehicles[j].vehicle_model = vehicles[j + 1].vehicle_model;\r\n                    vehicles[j].vehicle_motornumber = vehicles[j + 1].vehicle_motornumber;\r\n                    vehicles[j].vehicle_chasea_number = vehicles[j + 1].vehicle_chasea_number;\r\n                    vehicles[j].vehicle_manufacture_id = vehicles[j + 1].vehicle_manufacture_id;\r\n                    vehicles[j].vehicle_owner = vehicles[j + 1].vehicle_owner;\r\n                    vehicles[j].vehicle_color = vehicles[j + 1].vehicle_color;\r\n                }\r\n                delete vehicles[vehicles.length - 1];\r\n                vehicles.pop();\r\n                return true;\r\n            }\r\n        }\r\n        return false;\r\n    }\r\n\r\n    function change_ownership(address new_owner, uint id) public {\r\n        for (uint i = 0; i < vehicles.length; i++) {\r\n            if (compareUint(id, vehicles[i].vehicle_id)) {\r\n                if (compareAdresses(msg.sender, vehicles[i].vehicle_owner)) {\r\n                    vehicles[i].vehicle_owner = new_owner;\r\n                }\r\n            }\r\n        }\r\n        // return true if success or false\r\n    }\r\n\r\n    function car_change_block_status(uint id, bool blocked) public {\r\n        bool ok = false;\r\n        for (uint i = 0; i < banks.length; i++) {\r\n            if (compareAdresses(msg.sender, banks[i].bank_address)) {\r\n                ok = true;\r\n            }\r\n        }\r\n        require(ok == true, \"Sorry Only A Bank Can block A Car !\");\r\n        for (uint i = 0; i < vehicles.length; i++) {\r\n            if (compareUint(id, vehicles[i].vehicle_id)) {\r\n                vehicles[i].isBlocked = blocked;\r\n            }\r\n        }\r\n    }\r\n\r\n    modifier onlyDeployer() {\r\n        require(msg.sender == deployer, \"Access denied!\");\r\n        _;\r\n    }\r\n    function compareAdresses(address a, address b) public pure returns (bool) {\r\n        return (keccak256(abi.encodePacked((a))) == keccak256(abi.encodePacked((b))));\r\n    }\r\n\r\n    function compareUint(uint a, uint b) public pure returns (bool) {\r\n        return (keccak256(abi.encodePacked((a))) == keccak256(abi.encodePacked((b))));\r\n    }\r\n\r\n    function compareStrings(string memory a, string memory b) public pure returns (bool) {\r\n        return (keccak256(abi.encodePacked((a))) == keccak256(abi.encodePacked((b))));}\r\n}\r\n",
  "sourcePath": "C:\\Users\\Mina\\OneDrive\\Desktop\\blockchain-projects\\Back-end\\contracts\\VehicleSystem.sol",
  "compiler": {
    "name": "solc",
    "version": "0.8.14+commit.80d49f37.Emscripten.clang"
  },
  "schemaVersion": "3.4.7",
  "updatedAt": "2022-05-23T01:54:39.004Z",
  "networkType": "ethereum",
  "devdoc": {
    "kind": "dev",
    "methods": {},
    "version": 1
  },
  "userdoc": {
    "kind": "user",
    "methods": {},
    "version": 1
  }
}