{
  "contractName": "VehicleSystem",
  "abi": [
    {
      "inputs": [
        {
          "internalType": "uint256",
          "name": "",
          "type": "uint256"
        }
      ],
      "name": "ban_sale_requests",
      "outputs": [
        {
          "internalType": "uint256",
          "name": "user_id",
          "type": "uint256"
        },
        {
          "internalType": "uint256",
          "name": "car_id",
          "type": "uint256"
        },
        {
          "internalType": "enum VehicleSystem.State",
          "name": "state",
          "type": "uint8"
        }
      ],
      "stateMutability": "view",
      "type": "function",
      "constant": true
    },
    {
      "inputs": [
        {
          "internalType": "uint256",
          "name": "",
          "type": "uint256"
        }
      ],
      "name": "banks",
      "outputs": [
        {
          "internalType": "uint256",
          "name": "user_id",
          "type": "uint256"
        },
        {
          "internalType": "string",
          "name": "bank_name",
          "type": "string"
        }
      ],
      "stateMutability": "view",
      "type": "function",
      "constant": true
    },
    {
      "inputs": [
        {
          "internalType": "uint256",
          "name": "",
          "type": "uint256"
        }
      ],
      "name": "licenses",
      "outputs": [
        {
          "internalType": "uint256",
          "name": "user_id",
          "type": "uint256"
        },
        {
          "internalType": "uint256",
          "name": "car_id",
          "type": "uint256"
        },
        {
          "internalType": "string",
          "name": "expire_at",
          "type": "string"
        }
      ],
      "stateMutability": "view",
      "type": "function",
      "constant": true
    },
    {
      "inputs": [
        {
          "internalType": "uint256",
          "name": "",
          "type": "uint256"
        }
      ],
      "name": "licenses_requests",
      "outputs": [
        {
          "internalType": "uint256",
          "name": "user_id",
          "type": "uint256"
        },
        {
          "internalType": "uint256",
          "name": "car_id",
          "type": "uint256"
        },
        {
          "internalType": "enum VehicleSystem.LicenseRequestType",
          "name": "license_request_type",
          "type": "uint8"
        },
        {
          "internalType": "enum VehicleSystem.State",
          "name": "state",
          "type": "uint8"
        }
      ],
      "stateMutability": "view",
      "type": "function",
      "constant": true
    },
    {
      "inputs": [
        {
          "internalType": "uint256",
          "name": "",
          "type": "uint256"
        }
      ],
      "name": "manufactures",
      "outputs": [
        {
          "internalType": "uint256",
          "name": "user_id",
          "type": "uint256"
        },
        {
          "internalType": "string",
          "name": "manufacture_name",
          "type": "string"
        }
      ],
      "stateMutability": "view",
      "type": "function",
      "constant": true
    },
    {
      "inputs": [
        {
          "internalType": "uint256",
          "name": "",
          "type": "uint256"
        }
      ],
      "name": "traffic_violations",
      "outputs": [
        {
          "internalType": "uint256",
          "name": "vehicle_id",
          "type": "uint256"
        },
        {
          "internalType": "string",
          "name": "violation_description",
          "type": "string"
        },
        {
          "internalType": "string",
          "name": "violation_type",
          "type": "string"
        }
      ],
      "stateMutability": "view",
      "type": "function",
      "constant": true
    },
    {
      "inputs": [
        {
          "internalType": "uint256",
          "name": "",
          "type": "uint256"
        }
      ],
      "name": "users",
      "outputs": [
        {
          "internalType": "address",
          "name": "user_address",
          "type": "address"
        },
        {
          "internalType": "string",
          "name": "user_name",
          "type": "string"
        },
        {
          "internalType": "string",
          "name": "user_email",
          "type": "string"
        },
        {
          "internalType": "string",
          "name": "user_password",
          "type": "string"
        },
        {
          "internalType": "string",
          "name": "user_phone",
          "type": "string"
        },
        {
          "internalType": "string",
          "name": "user_national_id",
          "type": "string"
        },
        {
          "internalType": "enum VehicleSystem.Role",
          "name": "role",
          "type": "uint8"
        }
      ],
      "stateMutability": "view",
      "type": "function",
      "constant": true
    },
    {
      "inputs": [
        {
          "internalType": "uint256",
          "name": "",
          "type": "uint256"
        }
      ],
      "name": "vehicles",
      "outputs": [
        {
          "internalType": "string",
          "name": "vehicle_name",
          "type": "string"
        },
        {
          "internalType": "string",
          "name": "vehicle_type",
          "type": "string"
        },
        {
          "internalType": "string",
          "name": "vehicle_model",
          "type": "string"
        },
        {
          "internalType": "string",
          "name": "vehicle_motor_number",
          "type": "string"
        },
        {
          "internalType": "string",
          "name": "vehicle_chase_number",
          "type": "string"
        },
        {
          "internalType": "uint256",
          "name": "vehicle_manufacture_id",
          "type": "uint256"
        },
        {
          "internalType": "string",
          "name": "vehicle_color",
          "type": "string"
        },
        {
          "internalType": "string",
          "name": "vehicle_production_Year",
          "type": "string"
        },
        {
          "internalType": "bool",
          "name": "isBlocked",
          "type": "bool"
        },
        {
          "internalType": "uint256",
          "name": "user_id",
          "type": "uint256"
        }
      ],
      "stateMutability": "view",
      "type": "function",
      "constant": true
    },
    {
      "inputs": [
        {
          "internalType": "address",
          "name": "_user_address",
          "type": "address"
        },
        {
          "internalType": "string",
          "name": "_user_name",
          "type": "string"
        },
        {
          "internalType": "string",
          "name": "_user_email",
          "type": "string"
        },
        {
          "internalType": "string",
          "name": "_user_phone",
          "type": "string"
        },
        {
          "internalType": "string",
          "name": "_user_password",
          "type": "string"
        },
        {
          "internalType": "string",
          "name": "_user_national_id",
          "type": "string"
        },
        {
          "internalType": "enum VehicleSystem.Role",
          "name": "role",
          "type": "uint8"
        }
      ],
      "name": "register",
      "outputs": [
        {
          "internalType": "bool",
          "name": "",
          "type": "bool"
        }
      ],
      "stateMutability": "nonpayable",
      "type": "function"
    },
    {
      "inputs": [
        {
          "internalType": "string",
          "name": "_user_email",
          "type": "string"
        },
        {
          "internalType": "string",
          "name": "_user_password",
          "type": "string"
        }
      ],
      "name": "login",
      "outputs": [
        {
          "internalType": "int256",
          "name": "",
          "type": "int256"
        }
      ],
      "stateMutability": "view",
      "type": "function",
      "constant": true
    },
    {
      "inputs": [
        {
          "internalType": "uint256",
          "name": "user_id",
          "type": "uint256"
        }
      ],
      "name": "get_user",
      "outputs": [
        {
          "components": [
            {
              "internalType": "address",
              "name": "user_address",
              "type": "address"
            },
            {
              "internalType": "string",
              "name": "user_name",
              "type": "string"
            },
            {
              "internalType": "string",
              "name": "user_email",
              "type": "string"
            },
            {
              "internalType": "string",
              "name": "user_password",
              "type": "string"
            },
            {
              "internalType": "string",
              "name": "user_phone",
              "type": "string"
            },
            {
              "internalType": "string",
              "name": "user_national_id",
              "type": "string"
            },
            {
              "internalType": "enum VehicleSystem.Role",
              "name": "role",
              "type": "uint8"
            }
          ],
          "internalType": "struct VehicleSystem.user",
          "name": "",
          "type": "tuple"
        }
      ],
      "stateMutability": "view",
      "type": "function",
      "constant": true
    },
    {
      "inputs": [
        {
          "internalType": "address",
          "name": "_user_address",
          "type": "address"
        }
      ],
      "name": "get_user_id_with_address",
      "outputs": [
        {
          "internalType": "int256",
          "name": "",
          "type": "int256"
        }
      ],
      "stateMutability": "view",
      "type": "function",
      "constant": true
    },
    {
      "inputs": [
        {
          "internalType": "uint256",
          "name": "_user_id",
          "type": "uint256"
        },
        {
          "internalType": "string",
          "name": "_user_phone",
          "type": "string"
        },
        {
          "internalType": "string",
          "name": "_user_password",
          "type": "string"
        }
      ],
      "name": "edit_user",
      "outputs": [
        {
          "internalType": "bool",
          "name": "",
          "type": "bool"
        }
      ],
      "stateMutability": "nonpayable",
      "type": "function"
    },
    {
      "inputs": [],
      "name": "get_users",
      "outputs": [
        {
          "components": [
            {
              "internalType": "address",
              "name": "user_address",
              "type": "address"
            },
            {
              "internalType": "string",
              "name": "user_name",
              "type": "string"
            },
            {
              "internalType": "string",
              "name": "user_email",
              "type": "string"
            },
            {
              "internalType": "string",
              "name": "user_password",
              "type": "string"
            },
            {
              "internalType": "string",
              "name": "user_phone",
              "type": "string"
            },
            {
              "internalType": "string",
              "name": "user_national_id",
              "type": "string"
            },
            {
              "internalType": "enum VehicleSystem.Role",
              "name": "role",
              "type": "uint8"
            }
          ],
          "internalType": "struct VehicleSystem.user[]",
          "name": "",
          "type": "tuple[]"
        }
      ],
      "stateMutability": "view",
      "type": "function",
      "constant": true
    },
    {
      "inputs": [],
      "name": "users_length",
      "outputs": [
        {
          "internalType": "uint256",
          "name": "",
          "type": "uint256"
        }
      ],
      "stateMutability": "view",
      "type": "function",
      "constant": true
    },
    {
      "inputs": [
        {
          "internalType": "uint256",
          "name": "_user_id",
          "type": "uint256"
        },
        {
          "internalType": "string",
          "name": "_manufacture_name",
          "type": "string"
        }
      ],
      "name": "add_manufacture",
      "outputs": [],
      "stateMutability": "nonpayable",
      "type": "function"
    },
    {
      "inputs": [
        {
          "internalType": "uint256",
          "name": "_manufacture_id",
          "type": "uint256"
        },
        {
          "internalType": "string",
          "name": "_manufacture_name",
          "type": "string"
        }
      ],
      "name": "edit_manufacture",
      "outputs": [],
      "stateMutability": "nonpayable",
      "type": "function"
    },
    {
      "inputs": [],
      "name": "get_manufactures",
      "outputs": [
        {
          "components": [
            {
              "internalType": "uint256",
              "name": "user_id",
              "type": "uint256"
            },
            {
              "internalType": "string",
              "name": "manufacture_name",
              "type": "string"
            }
          ],
          "internalType": "struct VehicleSystem.manufacture[]",
          "name": "",
          "type": "tuple[]"
        }
      ],
      "stateMutability": "view",
      "type": "function",
      "constant": true
    },
    {
      "inputs": [],
      "name": "manufactures_length",
      "outputs": [
        {
          "internalType": "uint256",
          "name": "",
          "type": "uint256"
        }
      ],
      "stateMutability": "view",
      "type": "function",
      "constant": true
    },
    {
      "inputs": [
        {
          "internalType": "uint256",
          "name": "_user_id",
          "type": "uint256"
        },
        {
          "internalType": "string",
          "name": "_name",
          "type": "string"
        }
      ],
      "name": "add_bank",
      "outputs": [],
      "stateMutability": "nonpayable",
      "type": "function"
    },
    {
      "inputs": [
        {
          "internalType": "uint256",
          "name": "_bank_id",
          "type": "uint256"
        },
        {
          "internalType": "uint256",
          "name": "_user_id",
          "type": "uint256"
        },
        {
          "internalType": "string",
          "name": "_name",
          "type": "string"
        }
      ],
      "name": "edit_bank",
      "outputs": [],
      "stateMutability": "nonpayable",
      "type": "function"
    },
    {
      "inputs": [
        {
          "internalType": "uint256",
          "name": "_bank_id",
          "type": "uint256"
        }
      ],
      "name": "get_bank",
      "outputs": [
        {
          "components": [
            {
              "internalType": "uint256",
              "name": "user_id",
              "type": "uint256"
            },
            {
              "internalType": "string",
              "name": "bank_name",
              "type": "string"
            }
          ],
          "internalType": "struct VehicleSystem.bank",
          "name": "",
          "type": "tuple"
        }
      ],
      "stateMutability": "view",
      "type": "function",
      "constant": true
    },
    {
      "inputs": [],
      "name": "get_banks",
      "outputs": [
        {
          "components": [
            {
              "internalType": "uint256",
              "name": "user_id",
              "type": "uint256"
            },
            {
              "internalType": "string",
              "name": "bank_name",
              "type": "string"
            }
          ],
          "internalType": "struct VehicleSystem.bank[]",
          "name": "",
          "type": "tuple[]"
        }
      ],
      "stateMutability": "view",
      "type": "function",
      "constant": true
    },
    {
      "inputs": [],
      "name": "banks_length",
      "outputs": [
        {
          "internalType": "uint256",
          "name": "",
          "type": "uint256"
        }
      ],
      "stateMutability": "view",
      "type": "function",
      "constant": true
    },
    {
      "inputs": [
        {
          "internalType": "uint256",
          "name": "_manufacture_user_id",
          "type": "uint256"
        },
        {
          "internalType": "string",
          "name": "_vehicle_name",
          "type": "string"
        },
        {
          "internalType": "string",
          "name": "_vehicle_type",
          "type": "string"
        },
        {
          "internalType": "string",
          "name": "_vehicle_model",
          "type": "string"
        },
        {
          "internalType": "string",
          "name": "_vehicle_motor_number",
          "type": "string"
        },
        {
          "internalType": "string",
          "name": "_vehicle_chase_number",
          "type": "string"
        },
        {
          "internalType": "string",
          "name": "_vehicle_color",
          "type": "string"
        },
        {
          "internalType": "string",
          "name": "_vehicle_production_Year",
          "type": "string"
        },
        {
          "internalType": "bool",
          "name": "_isBlocked",
          "type": "bool"
        },
        {
          "internalType": "uint256",
          "name": "_owner_id",
          "type": "uint256"
        }
      ],
      "name": "add_vehicle",
      "outputs": [],
      "stateMutability": "nonpayable",
      "type": "function"
    },
    {
      "inputs": [
        {
          "internalType": "uint256",
          "name": "_vehicle_id",
          "type": "uint256"
        },
        {
          "internalType": "uint256",
          "name": "_owner_id",
          "type": "uint256"
        },
        {
          "internalType": "string",
          "name": "_vehicle_color",
          "type": "string"
        }
      ],
      "name": "edit_vehicle",
      "outputs": [],
      "stateMutability": "nonpayable",
      "type": "function"
    },
    {
      "inputs": [
        {
          "internalType": "uint256",
          "name": "_vehicle_id",
          "type": "uint256"
        }
      ],
      "name": "get_vehicle",
      "outputs": [
        {
          "components": [
            {
              "internalType": "string",
              "name": "vehicle_name",
              "type": "string"
            },
            {
              "internalType": "string",
              "name": "vehicle_type",
              "type": "string"
            },
            {
              "internalType": "string",
              "name": "vehicle_model",
              "type": "string"
            },
            {
              "internalType": "string",
              "name": "vehicle_motor_number",
              "type": "string"
            },
            {
              "internalType": "string",
              "name": "vehicle_chase_number",
              "type": "string"
            },
            {
              "internalType": "uint256",
              "name": "vehicle_manufacture_id",
              "type": "uint256"
            },
            {
              "internalType": "string",
              "name": "vehicle_color",
              "type": "string"
            },
            {
              "internalType": "string",
              "name": "vehicle_production_Year",
              "type": "string"
            },
            {
              "internalType": "bool",
              "name": "isBlocked",
              "type": "bool"
            },
            {
              "internalType": "uint256",
              "name": "user_id",
              "type": "uint256"
            }
          ],
          "internalType": "struct VehicleSystem.vehicle",
          "name": "",
          "type": "tuple"
        }
      ],
      "stateMutability": "view",
      "type": "function",
      "constant": true
    },
    {
      "inputs": [],
      "name": "get_vehicles",
      "outputs": [
        {
          "components": [
            {
              "internalType": "string",
              "name": "vehicle_name",
              "type": "string"
            },
            {
              "internalType": "string",
              "name": "vehicle_type",
              "type": "string"
            },
            {
              "internalType": "string",
              "name": "vehicle_model",
              "type": "string"
            },
            {
              "internalType": "string",
              "name": "vehicle_motor_number",
              "type": "string"
            },
            {
              "internalType": "string",
              "name": "vehicle_chase_number",
              "type": "string"
            },
            {
              "internalType": "uint256",
              "name": "vehicle_manufacture_id",
              "type": "uint256"
            },
            {
              "internalType": "string",
              "name": "vehicle_color",
              "type": "string"
            },
            {
              "internalType": "string",
              "name": "vehicle_production_Year",
              "type": "string"
            },
            {
              "internalType": "bool",
              "name": "isBlocked",
              "type": "bool"
            },
            {
              "internalType": "uint256",
              "name": "user_id",
              "type": "uint256"
            }
          ],
          "internalType": "struct VehicleSystem.vehicle[]",
          "name": "",
          "type": "tuple[]"
        }
      ],
      "stateMutability": "view",
      "type": "function",
      "constant": true
    },
    {
      "inputs": [],
      "name": "vehicles_length",
      "outputs": [
        {
          "internalType": "uint256",
          "name": "",
          "type": "uint256"
        }
      ],
      "stateMutability": "view",
      "type": "function",
      "constant": true
    },
    {
      "inputs": [
        {
          "internalType": "uint256",
          "name": "_user_id",
          "type": "uint256"
        },
        {
          "internalType": "uint256",
          "name": "_car_id",
          "type": "uint256"
        },
        {
          "internalType": "string",
          "name": "_expire_at",
          "type": "string"
        }
      ],
      "name": "add_license",
      "outputs": [],
      "stateMutability": "nonpayable",
      "type": "function"
    },
    {
      "inputs": [
        {
          "internalType": "uint256",
          "name": "_license_id",
          "type": "uint256"
        },
        {
          "internalType": "uint256",
          "name": "_user_id",
          "type": "uint256"
        }
      ],
      "name": "edit_license",
      "outputs": [],
      "stateMutability": "nonpayable",
      "type": "function"
    },
    {
      "inputs": [
        {
          "internalType": "uint256",
          "name": "_license_id",
          "type": "uint256"
        },
        {
          "internalType": "string",
          "name": "_expire_at",
          "type": "string"
        }
      ],
      "name": "renewal_license",
      "outputs": [],
      "stateMutability": "nonpayable",
      "type": "function"
    },
    {
      "inputs": [
        {
          "internalType": "uint256",
          "name": "_license_id",
          "type": "uint256"
        },
        {
          "internalType": "uint256",
          "name": "_car_id",
          "type": "uint256"
        },
        {
          "internalType": "uint256",
          "name": "_user_id",
          "type": "uint256"
        }
      ],
      "name": "request_to_renewal_licence",
      "outputs": [],
      "stateMutability": "nonpayable",
      "type": "function"
    },
    {
      "inputs": [
        {
          "internalType": "uint256",
          "name": "_car_id",
          "type": "uint256"
        },
        {
          "internalType": "uint256",
          "name": "_user_id",
          "type": "uint256"
        }
      ],
      "name": "request_to_first_time_licence",
      "outputs": [],
      "stateMutability": "nonpayable",
      "type": "function"
    },
    {
      "inputs": [
        {
          "internalType": "uint256",
          "name": "_license_request_id",
          "type": "uint256"
        },
        {
          "internalType": "string",
          "name": "_expire_at",
          "type": "string"
        }
      ],
      "name": "accept_to_request_first_time_license",
      "outputs": [],
      "stateMutability": "nonpayable",
      "type": "function"
    },
    {
      "inputs": [
        {
          "internalType": "uint256",
          "name": "_license_request_id",
          "type": "uint256"
        },
        {
          "internalType": "string",
          "name": "_expire_at",
          "type": "string"
        }
      ],
      "name": "reject_to_request_first_time_license",
      "outputs": [],
      "stateMutability": "nonpayable",
      "type": "function"
    },
    {
      "inputs": [
        {
          "internalType": "uint256",
          "name": "_vehicle_id",
          "type": "uint256"
        },
        {
          "internalType": "string",
          "name": "_vio_type",
          "type": "string"
        },
        {
          "internalType": "string",
          "name": "_vio_des",
          "type": "string"
        }
      ],
      "name": "add_traffic_violation",
      "outputs": [],
      "stateMutability": "nonpayable",
      "type": "function"
    },
    {
      "inputs": [
        {
          "internalType": "uint256",
          "name": "_vio_id",
          "type": "uint256"
        },
        {
          "internalType": "string",
          "name": "_vio_type",
          "type": "string"
        },
        {
          "internalType": "string",
          "name": "_vio_des",
          "type": "string"
        }
      ],
      "name": "edit_traffic_violation",
      "outputs": [],
      "stateMutability": "nonpayable",
      "type": "function"
    },
    {
      "inputs": [
        {
          "internalType": "uint256",
          "name": "_car_id",
          "type": "uint256"
        },
        {
          "internalType": "uint256",
          "name": "_user_id",
          "type": "uint256"
        }
      ],
      "name": "request_to_remove_ban_sale",
      "outputs": [],
      "stateMutability": "nonpayable",
      "type": "function"
    },
    {
      "inputs": [
        {
          "internalType": "uint256",
          "name": "_ban_sale_request_id",
          "type": "uint256"
        },
        {
          "internalType": "uint256",
          "name": "_car_id",
          "type": "uint256"
        }
      ],
      "name": "accept_to_request_renewal_license",
      "outputs": [],
      "stateMutability": "nonpayable",
      "type": "function"
    },
    {
      "inputs": [
        {
          "internalType": "uint256",
          "name": "_license_request_id",
          "type": "uint256"
        },
        {
          "internalType": "uint256",
          "name": "_license_id",
          "type": "uint256"
        },
        {
          "internalType": "string",
          "name": "_expire_at",
          "type": "string"
        }
      ],
      "name": "accept_to_request_renewal_license",
      "outputs": [],
      "stateMutability": "nonpayable",
      "type": "function"
    },
    {
      "inputs": [
        {
          "internalType": "uint256",
          "name": "_ban_sale_request_id",
          "type": "uint256"
        },
        {
          "internalType": "uint256",
          "name": "_car_id",
          "type": "uint256"
        }
      ],
      "name": "reject_to_request_renewal_license",
      "outputs": [],
      "stateMutability": "nonpayable",
      "type": "function"
    },
    {
      "inputs": [
        {
          "internalType": "uint256",
          "name": "_license_request_id",
          "type": "uint256"
        },
        {
          "internalType": "uint256",
          "name": "_license_id",
          "type": "uint256"
        },
        {
          "internalType": "string",
          "name": "_expire_at",
          "type": "string"
        }
      ],
      "name": "reject_to_request_renewal_license",
      "outputs": [],
      "stateMutability": "nonpayable",
      "type": "function"
    },
    {
      "inputs": [],
      "name": "get_traffic_violations",
      "outputs": [
        {
          "components": [
            {
              "internalType": "uint256",
              "name": "vehicle_id",
              "type": "uint256"
            },
            {
              "internalType": "string",
              "name": "violation_description",
              "type": "string"
            },
            {
              "internalType": "string",
              "name": "violation_type",
              "type": "string"
            }
          ],
          "internalType": "struct VehicleSystem.traffic_violation[]",
          "name": "",
          "type": "tuple[]"
        }
      ],
      "stateMutability": "view",
      "type": "function",
      "constant": true
    },
    {
      "inputs": [],
      "name": "get_licenses",
      "outputs": [
        {
          "components": [
            {
              "internalType": "uint256",
              "name": "user_id",
              "type": "uint256"
            },
            {
              "internalType": "uint256",
              "name": "car_id",
              "type": "uint256"
            },
            {
              "internalType": "string",
              "name": "expire_at",
              "type": "string"
            }
          ],
          "internalType": "struct VehicleSystem.license[]",
          "name": "",
          "type": "tuple[]"
        }
      ],
      "stateMutability": "view",
      "type": "function",
      "constant": true
    },
    {
      "inputs": [],
      "name": "traffic_violations_length",
      "outputs": [
        {
          "internalType": "uint256",
          "name": "",
          "type": "uint256"
        }
      ],
      "stateMutability": "view",
      "type": "function",
      "constant": true
    },
    {
      "inputs": [],
      "name": "licenses_length",
      "outputs": [
        {
          "internalType": "uint256",
          "name": "",
          "type": "uint256"
        }
      ],
      "stateMutability": "view",
      "type": "function",
      "constant": true
    },
    {
      "inputs": [
        {
          "internalType": "address",
          "name": "a",
          "type": "address"
        },
        {
          "internalType": "address",
          "name": "b",
          "type": "address"
        }
      ],
      "name": "compareAddress",
      "outputs": [
        {
          "internalType": "bool",
          "name": "",
          "type": "bool"
        }
      ],
      "stateMutability": "pure",
      "type": "function",
      "constant": true
    },
    {
      "inputs": [
        {
          "internalType": "uint256",
          "name": "a",
          "type": "uint256"
        },
        {
          "internalType": "uint256",
          "name": "b",
          "type": "uint256"
        }
      ],
      "name": "compareUint",
      "outputs": [
        {
          "internalType": "bool",
          "name": "",
          "type": "bool"
        }
      ],
      "stateMutability": "pure",
      "type": "function",
      "constant": true
    },
    {
      "inputs": [
        {
          "internalType": "string",
          "name": "a",
          "type": "string"
        },
        {
          "internalType": "string",
          "name": "b",
          "type": "string"
        }
      ],
      "name": "compareStrings",
      "outputs": [
        {
          "internalType": "bool",
          "name": "",
          "type": "bool"
        }
      ],
      "stateMutability": "pure",
      "type": "function",
      "constant": true
    }
  ],
  "bytecode": "0x608060405234801561001057600080fd5b50615e4e80620000216000396000f3fe608060405234801561001057600080fd5b50600436106102d45760003560e01c8063700a610211610182578063b20d4d5b116100e9578063cb7fdbaa116100a2578063ed66aa1b1161007c578063ed66aa1b14610965578063f2611dc014610983578063f5701cfe146109b3578063f8ad77d6146109cf576102d4565b8063cb7fdbaa146108fd578063e19507e814610919578063e6b5934614610949576102d4565b8063b20d4d5b1461080a578063b4e74eb814610828578063b72d755c14610858578063b8ba95fa14610876578063bed34bba146108af578063c55cbaec146108df576102d4565b806390e8fc911161013b57806390e8fc911461073557806395a2b0fb1461075157806395e885c01461076f5780639d2acad71461079f578063aabab964146107bb578063b0a951c2146107ec576102d4565b8063700a6102146106615780637cea8a331461069157806384abf683146106af5780638839d3f1146106cb5780638859c8b1146106e75780638c6ba8fc14610717576102d4565b80633379084511610241578063451d6716116101fa57806358467dbc116101d457806358467dbc146105c757806364787341146105f75780636b62b9d1146106295780636e29015814610645576102d4565b8063451d67161461055a5780635367cb5614610578578063565d52bf146105ab576102d4565b8063337908451461046c578063365b98b21461049e5780634079a6c0146104d457806340b250f9146104f05780634188473614610520578063446ca94c1461053c576102d4565b8063167f119811610293578063167f1198146103c25780631f0a3fa5146103e05780632ca052ce146103fc5780632e001d74146104185780632e0ba53e146104345780633058297814610450576102d4565b80627d43cd146102d957806285ae2b146102f557806306a6b5d914610326578063086ae1cf146103585780630937e7411461037457806309fbc50f14610392575b600080fd5b6102f360048036038101906102ee9190614207565b6109eb565b005b61030f600480360381019061030a9190614247565b610a4d565b60405161031d92919061431c565b60405180910390f35b610340600480360381019061033b9190614247565b610b09565b60405161034f939291906143c3565b60405180910390f35b610372600480360381019061036d9190614207565b610b50565b005b61037c610c41565b60405161038991906143fa565b60405180910390f35b6103ac60048036038101906103a79190614247565b610c4e565b6040516103b991906144ab565b60405180910390f35b6103ca610d26565b6040516103d791906143fa565b60405180910390f35b6103fa60048036038101906103f59190614602565b610d33565b005b61041660048036038101906104119190614671565b610db0565b005b610432600480360381019061042d91906146c4565b610ed5565b005b61044e600480360381019061044991906146c4565b610f0c565b005b61046a600480360381019061046591906146c4565b6110d4565b005b61048660048036038101906104819190614247565b611140565b60405161049593929190614720565b60405180910390f35b6104b860048036038101906104b39190614247565b611202565b6040516104cb97969594939291906147e7565b60405180910390f35b6104ee60048036038101906104e991906146c4565b611529565b005b61050a600480360381019061050591906148a5565b6116f1565b60405161051791906148eb565b60405180910390f35b61053a600480360381019061053591906146c4565b6117a0565b005b61054461180c565b6040516105519190614a05565b60405180910390f35b610562611907565b60405161056f91906143fa565b60405180910390f35b610592600480360381019061058d9190614247565b611914565b6040516105a29493929190614a6f565b60405180910390f35b6105c560048036038101906105c09190614602565b61196e565b005b6105e160048036038101906105dc9190614ab4565b611a04565b6040516105ee91906148eb565b60405180910390f35b610611600480360381019061060c9190614247565b611be7565b60405161062093929190614b2c565b60405180910390f35b610643600480360381019061063e9190614207565b611d31565b005b61065f600480360381019061065a9190614602565b611dd9565b005b61067b60048036038101906106769190614247565b611e6f565b6040516106889190614c90565b60405180910390f35b6106996122d9565b6040516106a69190614dcb565b60405180910390f35b6106c960048036038101906106c49190614e19565b612466565b005b6106e560048036038101906106e09190614207565b6125bd565b005b61070160048036038101906106fc9190614fbc565b612681565b60405161070e9190615056565b60405180910390f35b61071f612735565b60405161072c91906143fa565b60405180910390f35b61074f600480360381019061074a9190614602565b612742565b005b6107596127fc565b60405161076691906143fa565b60405180910390f35b61078960048036038101906107849190615071565b612809565b6040516107969190615056565b60405180910390f35b6107b960048036038101906107b49190614207565b612862565b005b6107d560048036038101906107d09190614247565b612926565b6040516107e392919061431c565b60405180910390f35b6107f46129e2565b60405161080191906151c3565b60405180910390f35b610812612ae7565b60405161081f91906143fa565b60405180910390f35b610842600480360381019061083d9190614207565b612af3565b60405161084f9190615056565b60405180910390f35b610860612b4c565b60405161086d91906152e4565b60405180910390f35b610890600480360381019061088b9190614247565b612c47565b6040516108a69a99989796959493929190615306565b60405180910390f35b6108c960048036038101906108c49190614ab4565b613070565b6040516108d69190615056565b60405180910390f35b6108e76130c9565b6040516108f49190615599565b60405180910390f35b610917600480360381019061091291906146c4565b613556565b005b610933600480360381019061092e9190614247565b6135c7565b6040516109409190615691565b60405180910390f35b610963600480360381019061095e9190614fbc565b61396e565b005b61096d613a0d565b60405161097a919061582d565b60405180910390f35b61099d60048036038101906109989190615874565b613dd7565b6040516109aa9190615056565b60405180910390f35b6109cd60048036038101906109c89190614602565b613f5a565b005b6109e960048036038101906109e49190614fbc565b614014565b005b60005b600580549050811015610a4857610a058184612af3565b15610a35578160058281548110610a1f57610a1e6159a2565b5b9060005260206000209060030201600001819055505b8080610a4090615a00565b9150506109ee565b505050565b60018181548110610a5d57600080fd5b9060005260206000209060020201600091509050806000015490806001018054610a8690615a77565b80601f0160208091040260200160405190810160405280929190818152602001828054610ab290615a77565b8015610aff5780601f10610ad457610100808354040283529160200191610aff565b820191906000526020600020905b815481529060010190602001808311610ae257829003601f168201915b5050505050905082565b60078181548110610b1957600080fd5b90600052602060002090600302016000915090508060000154908060010154908060020160009054906101000a900460ff16905083565b6000604051806080016040528083815260200184815260200160006001811115610b7d57610b7c61434c565b5b8152602001600280811115610b9557610b9461434c565b5b81525090506006819080600181540180825580915050600190039060005260206000209060030201600090919091909150600082015181600001556020820151816001015560408201518160020160006101000a81548160ff02191690836001811115610c0557610c0461434c565b5b021790555060608201518160020160016101000a81548160ff02191690836002811115610c3557610c3461434c565b5b02179055505050505050565b6000600380549050905090565b610c5661409d565b60018281548110610c6a57610c696159a2565b5b906000526020600020906002020160405180604001604052908160008201548152602001600182018054610c9d90615a77565b80601f0160208091040260200160405190810160405280929190818152602001828054610cc990615a77565b8015610d165780601f10610ceb57610100808354040283529160200191610d16565b820191906000526020600020905b815481529060010190602001808311610cf957829003601f168201915b5050505050815250509050919050565b6000600580549050905090565b60006040518060600160405280858152602001848152602001838152509050600581908060018154018082558091505060019003906000526020600020906003020160009091909190915060008201518160000155602082015181600101556040820151816002019081610da79190615c54565b50505050505050565b60005b600580549050811015610ecf57610dca8185612af3565b15610ebc5760006040518060800160405280848152602001858152602001600180811115610dfb57610dfa61434c565b5b8152602001600280811115610e1357610e1261434c565b5b81525090506006819080600181540180825580915050600190039060005260206000209060030201600090919091909150600082015181600001556020820151816001015560408201518160020160006101000a81548160ff02191690836001811115610e8357610e8261434c565b5b021790555060608201518160020160016101000a81548160ff02191690836002811115610eb357610eb261434c565b5b02179055505050505b8080610ec790615a00565b915050610db3565b50505050565b8060058381548110610eea57610ee96159a2565b5b90600052602060002090600302016002019081610f079190615c54565b505050565b610f146140b7565b60005b60068054905081101561104e57610f2e8185612af3565b1561103b5760068181548110610f4757610f466159a2565b5b906000526020600020906003020160405180608001604052908160008201548152602001600182015481526020016002820160009054906101000a900460ff166001811115610f9957610f9861434c565b5b6001811115610fab57610faa61434c565b5b81526020016002820160019054906101000a900460ff166002811115610fd457610fd361434c565b5b6002811115610fe657610fe561434c565b5b815250509150600060068281548110611002576110016159a2565b5b906000526020600020906003020160020160016101000a81548160ff021916908360028111156110355761103461434c565b5b02179055505b808061104690615a00565b915050610f17565b506000604051806060016040528083600001518152602001836020015181526020018481525090506005819080600181540180825580915050600190039060005260206000209060030201600090919091909150600082015181600001556020820151816001015560408201518160020190816110cb9190615c54565b50505050505050565b6000604051806040016040528084815260200183815250905060008190806001815401808255809150506001900390600052602060002090600202016000909190919091506000820151816000015560208201518160010190816111389190615c54565b505050505050565b6005818154811061115057600080fd5b906000526020600020906003020160009150905080600001549080600101549080600201805461117f90615a77565b80601f01602080910402602001604051908101604052809291908181526020018280546111ab90615a77565b80156111f85780601f106111cd576101008083540402835291602001916111f8565b820191906000526020600020905b8154815290600101906020018083116111db57829003601f168201915b5050505050905083565b6003818154811061121257600080fd5b90600052602060002090600702016000915090508060000160009054906101000a900473ffffffffffffffffffffffffffffffffffffffff169080600101805461125b90615a77565b80601f016020809104026020016040519081016040528092919081815260200182805461128790615a77565b80156112d45780601f106112a9576101008083540402835291602001916112d4565b820191906000526020600020905b8154815290600101906020018083116112b757829003601f168201915b5050505050908060020180546112e990615a77565b80601f016020809104026020016040519081016040528092919081815260200182805461131590615a77565b80156113625780601f1061133757610100808354040283529160200191611362565b820191906000526020600020905b81548152906001019060200180831161134557829003601f168201915b50505050509080600301805461137790615a77565b80601f01602080910402602001604051908101604052809291908181526020018280546113a390615a77565b80156113f05780601f106113c5576101008083540402835291602001916113f0565b820191906000526020600020905b8154815290600101906020018083116113d357829003601f168201915b50505050509080600401805461140590615a77565b80601f016020809104026020016040519081016040528092919081815260200182805461143190615a77565b801561147e5780601f106114535761010080835404028352916020019161147e565b820191906000526020600020905b81548152906001019060200180831161146157829003601f168201915b50505050509080600501805461149390615a77565b80601f01602080910402602001604051908101604052809291908181526020018280546114bf90615a77565b801561150c5780601f106114e15761010080835404028352916020019161150c565b820191906000526020600020905b8154815290600101906020018083116114ef57829003601f168201915b5050505050908060060160009054906101000a900460ff16905087565b6115316140b7565b60005b60068054905081101561166b5761154b8185612af3565b156116585760068181548110611564576115636159a2565b5b906000526020600020906003020160405180608001604052908160008201548152602001600182015481526020016002820160009054906101000a900460ff1660018111156115b6576115b561434c565b5b60018111156115c8576115c761434c565b5b81526020016002820160019054906101000a900460ff1660028111156115f1576115f061434c565b5b60028111156116035761160261434c565b5b81525050915060016006828154811061161f5761161e6159a2565b5b906000526020600020906003020160020160016101000a81548160ff021916908360028111156116525761165161434c565b5b02179055505b808061166390615a00565b915050611534565b506000604051806060016040528083600001518152602001836020015181526020018481525090506005819080600181540180825580915050600190039060005260206000209060030201600090919091909150600082015181600001556020820151816001015560408201518160020190816116e89190615c54565b50505050505050565b600080600090505b60038054905081101561177657611755836003838154811061171e5761171d6159a2565b5b906000526020600020906007020160000160009054906101000a900473ffffffffffffffffffffffffffffffffffffffff16612809565b15611763578091505061179b565b808061176e90615a00565b9150506116f9565b507fffffffffffffffffffffffffffffffffffffffffffffffffffffffffffffffff90505b919050565b6000604051806040016040528084815260200183815250905060018190806001815401808255809150506001900390600052602060002090600202016000909190919091506000820151816000015560208201518160010190816118049190615c54565b505050505050565b60606001805480602002602001604051908101604052809291908181526020016000905b828210156118fe57838290600052602060002090600202016040518060400160405290816000820154815260200160018201805461186d90615a77565b80601f016020809104026020016040519081016040528092919081815260200182805461189990615a77565b80156118e65780601f106118bb576101008083540402835291602001916118e6565b820191906000526020600020905b8154815290600101906020018083116118c957829003601f168201915b50505050508152505081526020019060010190611830565b50505050905090565b6000600480549050905090565b6006818154811061192457600080fd5b90600052602060002090600302016000915090508060000154908060010154908060020160009054906101000a900460ff16908060020160019054906101000a900460ff16905084565b60005b6002805490508110156119fe576119888482612af3565b156119eb5781600282815481106119a2576119a16159a2565b5b90600052602060002090600a020160060190816119bf9190615c54565b5082600282815481106119d5576119d46159a2565b5b90600052602060002090600a0201600901819055505b80806119f690615a00565b915050611971565b50505050565b600080600090505b600380549050811015611bbc57600060038281548110611a2f57611a2e6159a2565b5b90600052602060002090600702016002018054611a4b90615a77565b80601f0160208091040260200160405190810160405280929190818152602001828054611a7790615a77565b8015611ac45780601f10611a9957610100808354040283529160200191611ac4565b820191906000526020600020905b815481529060010190602001808311611aa757829003601f168201915b50505050509050600060038381548110611ae157611ae06159a2565b5b90600052602060002090600702016003018054611afd90615a77565b80601f0160208091040260200160405190810160405280929190818152602001828054611b2990615a77565b8015611b765780601f10611b4b57610100808354040283529160200191611b76565b820191906000526020600020905b815481529060010190602001808311611b5957829003601f168201915b50505050509050611b878287613070565b15611ba757611b968186613070565b15611ba657829350505050611be1565b5b50508080611bb490615a00565b915050611a0c565b507fffffffffffffffffffffffffffffffffffffffffffffffffffffffffffffffff90505b92915050565b60048181548110611bf757600080fd5b9060005260206000209060030201600091509050806000015490806001018054611c2090615a77565b80601f0160208091040260200160405190810160405280929190818152602001828054611c4c90615a77565b8015611c995780601f10611c6e57610100808354040283529160200191611c99565b820191906000526020600020905b815481529060010190602001808311611c7c57829003601f168201915b505050505090806002018054611cae90615a77565b80601f0160208091040260200160405190810160405280929190818152602001828054611cda90615a77565b8015611d275780601f10611cfc57610100808354040283529160200191611d27565b820191906000526020600020905b815481529060010190602001808311611d0a57829003601f168201915b5050505050905083565b60006040518060600160405280838152602001848152602001600280811115611d5d57611d5c61434c565b5b81525090506007819080600181540180825580915050600190039060005260206000209060030201600090919091909150600082015181600001556020820151816001015560408201518160020160006101000a81548160ff02191690836002811115611dcd57611dcc61434c565b5b02179055505050505050565b60005b600180549050811015611e6957611df38482612af3565b15611e56578260018281548110611e0d57611e0c6159a2565b5b9060005260206000209060020201600001819055508160018281548110611e3757611e366159a2565b5b90600052602060002090600202016001019081611e549190615c54565b505b8080611e6190615a00565b915050611ddc565b50505050565b611e77614103565b60028281548110611e8b57611e8a6159a2565b5b90600052602060002090600a020160405180610140016040529081600082018054611eb590615a77565b80601f0160208091040260200160405190810160405280929190818152602001828054611ee190615a77565b8015611f2e5780601f10611f0357610100808354040283529160200191611f2e565b820191906000526020600020905b815481529060010190602001808311611f1157829003601f168201915b50505050508152602001600182018054611f4790615a77565b80601f0160208091040260200160405190810160405280929190818152602001828054611f7390615a77565b8015611fc05780601f10611f9557610100808354040283529160200191611fc0565b820191906000526020600020905b815481529060010190602001808311611fa357829003601f168201915b50505050508152602001600282018054611fd990615a77565b80601f016020809104026020016040519081016040528092919081815260200182805461200590615a77565b80156120525780601f1061202757610100808354040283529160200191612052565b820191906000526020600020905b81548152906001019060200180831161203557829003601f168201915b5050505050815260200160038201805461206b90615a77565b80601f016020809104026020016040519081016040528092919081815260200182805461209790615a77565b80156120e45780601f106120b9576101008083540402835291602001916120e4565b820191906000526020600020905b8154815290600101906020018083116120c757829003601f168201915b505050505081526020016004820180546120fd90615a77565b80601f016020809104026020016040519081016040528092919081815260200182805461212990615a77565b80156121765780601f1061214b57610100808354040283529160200191612176565b820191906000526020600020905b81548152906001019060200180831161215957829003601f168201915b505050505081526020016005820154815260200160068201805461219990615a77565b80601f01602080910402602001604051908101604052809291908181526020018280546121c590615a77565b80156122125780601f106121e757610100808354040283529160200191612212565b820191906000526020600020905b8154815290600101906020018083116121f557829003601f168201915b5050505050815260200160078201805461222b90615a77565b80601f016020809104026020016040519081016040528092919081815260200182805461225790615a77565b80156122a45780601f10612279576101008083540402835291602001916122a4565b820191906000526020600020905b81548152906001019060200180831161228757829003601f168201915b505050505081526020016008820160009054906101000a900460ff161515151581526020016009820154815250509050919050565b60606004805480602002602001604051908101604052809291908181526020016000905b8282101561245d57838290600052602060002090600302016040518060600160405290816000820154815260200160018201805461233a90615a77565b80601f016020809104026020016040519081016040528092919081815260200182805461236690615a77565b80156123b35780601f10612388576101008083540402835291602001916123b3565b820191906000526020600020905b81548152906001019060200180831161239657829003601f168201915b505050505081526020016002820180546123cc90615a77565b80601f01602080910402602001604051908101604052809291908181526020018280546123f890615a77565b80156124455780601f1061241a57610100808354040283529160200191612445565b820191906000526020600020905b81548152906001019060200180831161242857829003601f168201915b505050505081525050815260200190600101906122fd565b50505050905090565b60006040518061014001604052808b81526020018a81526020018981526020018881526020018781526020018c8152602001868152602001858152602001841515815260200183815250905060028190806001815401808255809150506001900390600052602060002090600a020160009091909190915060008201518160000190816124f39190615c54565b5060208201518160010190816125099190615c54565b50604082015181600201908161251f9190615c54565b5060608201518160030190816125359190615c54565b50608082015181600401908161254b9190615c54565b5060a0820151816005015560c082015181600601908161256b9190615c54565b5060e08201518160070190816125819190615c54565b506101008201518160080160006101000a81548160ff021916908315150217905550610120820151816009015550505050505050505050505050565b60005b60078054905081101561263e576125d78184612af3565b1561262b576001600782815481106125f2576125f16159a2565b5b906000526020600020906003020160020160006101000a81548160ff021916908360028111156126255761262461434c565b5b02179055505b808061263690615a00565b9150506125c0565b50600160028281548110612655576126546159a2565b5b90600052602060002090600a020160080160006101000a81548160ff0219169083151502179055505050565b600080600090505b600380549050811015612728576126a08186612af3565b156127155782600382815481106126ba576126b96159a2565b5b906000526020600020906007020160030190816126d79190615c54565b5083600382815481106126ed576126ec6159a2565b5b9060005260206000209060070201600401908161270a9190615c54565b50600191505061272e565b808061272090615a00565b915050612689565b50600090505b9392505050565b6000600180549050905090565b60005b6006805490508110156127c35761275c8185612af3565b156127b057600160068281548110612777576127766159a2565b5b906000526020600020906003020160020160016101000a81548160ff021916908360028111156127aa576127a961434c565b5b02179055505b80806127bb90615a00565b915050612745565b5080600583815481106127d9576127d86159a2565b5b906000526020600020906003020160020190816127f69190615c54565b50505050565b6000600280549050905090565b60008160405160200161281c9190615d6e565b60405160208183030381529060405280519060200120836040516020016128439190615d6e565b6040516020818303038152906040528051906020012014905092915050565b60005b6007805490508110156128e35761287c8184612af3565b156128d057600060078281548110612897576128966159a2565b5b906000526020600020906003020160020160006101000a81548160ff021916908360028111156128ca576128c961434c565b5b02179055505b80806128db90615a00565b915050612865565b506000600282815481106128fa576128f96159a2565b5b90600052602060002090600a020160080160006101000a81548160ff0219169083151502179055505050565b6000818154811061293657600080fd5b906000526020600020906002020160009150905080600001549080600101805461295f90615a77565b80601f016020809104026020016040519081016040528092919081815260200182805461298b90615a77565b80156129d85780601f106129ad576101008083540402835291602001916129d8565b820191906000526020600020905b8154815290600101906020018083116129bb57829003601f168201915b5050505050905082565b60606005805480602002602001604051908101604052809291908181526020016000905b82821015612ade57838290600052602060002090600302016040518060600160405290816000820154815260200160018201548152602001600282018054612a4d90615a77565b80601f0160208091040260200160405190810160405280929190818152602001828054612a7990615a77565b8015612ac65780601f10612a9b57610100808354040283529160200191612ac6565b820191906000526020600020905b815481529060010190602001808311612aa957829003601f168201915b50505050508152505081526020019060010190612a06565b50505050905090565b60008080549050905090565b600081604051602001612b069190615daa565b6040516020818303038152906040528051906020012083604051602001612b2d9190615daa565b6040516020818303038152906040528051906020012014905092915050565b60606000805480602002602001604051908101604052809291908181526020016000905b82821015612c3e578382906000526020600020906002020160405180604001604052908160008201548152602001600182018054612bad90615a77565b80601f0160208091040260200160405190810160405280929190818152602001828054612bd990615a77565b8015612c265780601f10612bfb57610100808354040283529160200191612c26565b820191906000526020600020905b815481529060010190602001808311612c0957829003601f168201915b50505050508152505081526020019060010190612b70565b50505050905090565b60028181548110612c5757600080fd5b90600052602060002090600a0201600091509050806000018054612c7a90615a77565b80601f0160208091040260200160405190810160405280929190818152602001828054612ca690615a77565b8015612cf35780601f10612cc857610100808354040283529160200191612cf3565b820191906000526020600020905b815481529060010190602001808311612cd657829003601f168201915b505050505090806001018054612d0890615a77565b80601f0160208091040260200160405190810160405280929190818152602001828054612d3490615a77565b8015612d815780601f10612d5657610100808354040283529160200191612d81565b820191906000526020600020905b815481529060010190602001808311612d6457829003601f168201915b505050505090806002018054612d9690615a77565b80601f0160208091040260200160405190810160405280929190818152602001828054612dc290615a77565b8015612e0f5780601f10612de457610100808354040283529160200191612e0f565b820191906000526020600020905b815481529060010190602001808311612df257829003601f168201915b505050505090806003018054612e2490615a77565b80601f0160208091040260200160405190810160405280929190818152602001828054612e5090615a77565b8015612e9d5780601f10612e7257610100808354040283529160200191612e9d565b820191906000526020600020905b815481529060010190602001808311612e8057829003601f168201915b505050505090806004018054612eb290615a77565b80601f0160208091040260200160405190810160405280929190818152602001828054612ede90615a77565b8015612f2b5780601f10612f0057610100808354040283529160200191612f2b565b820191906000526020600020905b815481529060010190602001808311612f0e57829003601f168201915b505050505090806005015490806006018054612f4690615a77565b80601f0160208091040260200160405190810160405280929190818152602001828054612f7290615a77565b8015612fbf5780601f10612f9457610100808354040283529160200191612fbf565b820191906000526020600020905b815481529060010190602001808311612fa257829003601f168201915b505050505090806007018054612fd490615a77565b80601f016020809104026020016040519081016040528092919081815260200182805461300090615a77565b801561304d5780601f106130225761010080835404028352916020019161304d565b820191906000526020600020905b81548152906001019060200180831161303057829003601f168201915b5050505050908060080160009054906101000a900460ff1690806009015490508a565b6000816040516020016130839190615e01565b60405160208183030381529060405280519060200120836040516020016130aa9190615e01565b6040516020818303038152906040528051906020012014905092915050565b60606002805480602002602001604051908101604052809291908181526020016000905b8282101561354d57838290600052602060002090600a02016040518061014001604052908160008201805461312190615a77565b80601f016020809104026020016040519081016040528092919081815260200182805461314d90615a77565b801561319a5780601f1061316f5761010080835404028352916020019161319a565b820191906000526020600020905b81548152906001019060200180831161317d57829003601f168201915b505050505081526020016001820180546131b390615a77565b80601f01602080910402602001604051908101604052809291908181526020018280546131df90615a77565b801561322c5780601f106132015761010080835404028352916020019161322c565b820191906000526020600020905b81548152906001019060200180831161320f57829003601f168201915b5050505050815260200160028201805461324590615a77565b80601f016020809104026020016040519081016040528092919081815260200182805461327190615a77565b80156132be5780601f10613293576101008083540402835291602001916132be565b820191906000526020600020905b8154815290600101906020018083116132a157829003601f168201915b505050505081526020016003820180546132d790615a77565b80601f016020809104026020016040519081016040528092919081815260200182805461330390615a77565b80156133505780601f1061332557610100808354040283529160200191613350565b820191906000526020600020905b81548152906001019060200180831161333357829003601f168201915b5050505050815260200160048201805461336990615a77565b80601f016020809104026020016040519081016040528092919081815260200182805461339590615a77565b80156133e25780601f106133b7576101008083540402835291602001916133e2565b820191906000526020600020905b8154815290600101906020018083116133c557829003601f168201915b505050505081526020016005820154815260200160068201805461340590615a77565b80601f016020809104026020016040519081016040528092919081815260200182805461343190615a77565b801561347e5780601f106134535761010080835404028352916020019161347e565b820191906000526020600020905b81548152906001019060200180831161346157829003601f168201915b5050505050815260200160078201805461349790615a77565b80601f01602080910402602001604051908101604052809291908181526020018280546134c390615a77565b80156135105780601f106134e557610100808354040283529160200191613510565b820191906000526020600020905b8154815290600101906020018083116134f357829003601f168201915b505050505081526020016008820160009054906101000a900460ff16151515158152602001600982015481525050815260200190600101906130ed565b50505050905090565b60005b6000805490508110156135c25760008190506135758185612af3565b156135ae57826000838154811061358f5761358e6159a2565b5b906000526020600020906002020160010190816135ac9190615c54565b505b5080806135ba90615a00565b915050613559565b505050565b6135cf614158565b600382815481106135e3576135e26159a2565b5b90600052602060002090600702016040518060e00160405290816000820160009054906101000a900473ffffffffffffffffffffffffffffffffffffffff1673ffffffffffffffffffffffffffffffffffffffff1673ffffffffffffffffffffffffffffffffffffffff16815260200160018201805461366290615a77565b80601f016020809104026020016040519081016040528092919081815260200182805461368e90615a77565b80156136db5780601f106136b0576101008083540402835291602001916136db565b820191906000526020600020905b8154815290600101906020018083116136be57829003601f168201915b505050505081526020016002820180546136f490615a77565b80601f016020809104026020016040519081016040528092919081815260200182805461372090615a77565b801561376d5780601f106137425761010080835404028352916020019161376d565b820191906000526020600020905b81548152906001019060200180831161375057829003601f168201915b5050505050815260200160038201805461378690615a77565b80601f01602080910402602001604051908101604052809291908181526020018280546137b290615a77565b80156137ff5780601f106137d4576101008083540402835291602001916137ff565b820191906000526020600020905b8154815290600101906020018083116137e257829003601f168201915b5050505050815260200160048201805461381890615a77565b80601f016020809104026020016040519081016040528092919081815260200182805461384490615a77565b80156138915780601f1061386657610100808354040283529160200191613891565b820191906000526020600020905b81548152906001019060200180831161387457829003601f168201915b505050505081526020016005820180546138aa90615a77565b80601f01602080910402602001604051908101604052809291908181526020018280546138d690615a77565b80156139235780601f106138f857610100808354040283529160200191613923565b820191906000526020600020905b81548152906001019060200180831161390657829003601f168201915b505050505081526020016006820160009054906101000a900460ff1660038111156139515761395061434c565b5b60038111156139635761396261434c565b5b815250509050919050565b60005b600480549050811015613a07576139888185612af3565b156139f45782600482815481106139a2576139a16159a2565b5b906000526020600020906003020160020190816139bf9190615c54565b5081600482815481106139d5576139d46159a2565b5b906000526020600020906003020160010190816139f29190615c54565b505b80806139ff90615a00565b915050613971565b50505050565b60606003805480602002602001604051908101604052809291908181526020016000905b82821015613dce57838290600052602060002090600702016040518060e00160405290816000820160009054906101000a900473ffffffffffffffffffffffffffffffffffffffff1673ffffffffffffffffffffffffffffffffffffffff1673ffffffffffffffffffffffffffffffffffffffff168152602001600182018054613aba90615a77565b80601f0160208091040260200160405190810160405280929190818152602001828054613ae690615a77565b8015613b335780601f10613b0857610100808354040283529160200191613b33565b820191906000526020600020905b815481529060010190602001808311613b1657829003601f168201915b50505050508152602001600282018054613b4c90615a77565b80601f0160208091040260200160405190810160405280929190818152602001828054613b7890615a77565b8015613bc55780601f10613b9a57610100808354040283529160200191613bc5565b820191906000526020600020905b815481529060010190602001808311613ba857829003601f168201915b50505050508152602001600382018054613bde90615a77565b80601f0160208091040260200160405190810160405280929190818152602001828054613c0a90615a77565b8015613c575780601f10613c2c57610100808354040283529160200191613c57565b820191906000526020600020905b815481529060010190602001808311613c3a57829003601f168201915b50505050508152602001600482018054613c7090615a77565b80601f0160208091040260200160405190810160405280929190818152602001828054613c9c90615a77565b8015613ce95780601f10613cbe57610100808354040283529160200191613ce9565b820191906000526020600020905b815481529060010190602001808311613ccc57829003601f168201915b50505050508152602001600582018054613d0290615a77565b80601f0160208091040260200160405190810160405280929190818152602001828054613d2e90615a77565b8015613d7b5780601f10613d5057610100808354040283529160200191613d7b565b820191906000526020600020905b815481529060010190602001808311613d5e57829003601f168201915b505050505081526020016006820160009054906101000a900460ff166003811115613da957613da861434c565b5b6003811115613dbb57613dba61434c565b5b8152505081526020019060010190613a31565b50505050905090565b6000806040518060e001604052808a73ffffffffffffffffffffffffffffffffffffffff168152602001898152602001888152602001868152602001878152602001858152602001846003811115613e3257613e3161434c565b5b8152509050600381908060018154018082558091505060019003906000526020600020906007020160009091909190915060008201518160000160006101000a81548173ffffffffffffffffffffffffffffffffffffffff021916908373ffffffffffffffffffffffffffffffffffffffff1602179055506020820151816001019081613ebf9190615c54565b506040820151816002019081613ed59190615c54565b506060820151816003019081613eeb9190615c54565b506080820151816004019081613f019190615c54565b5060a0820151816005019081613f179190615c54565b5060c08201518160060160006101000a81548160ff02191690836003811115613f4357613f4261434c565b5b021790555050506001915050979650505050505050565b60005b600680549050811015613fdb57613f748185612af3565b15613fc857600060068281548110613f8f57613f8e6159a2565b5b906000526020600020906003020160020160016101000a81548160ff02191690836002811115613fc257613fc161434c565b5b02179055505b8080613fd390615a00565b915050613f5d565b508060058381548110613ff157613ff06159a2565b5b9060005260206000209060030201600201908161400e9190615c54565b50505050565b60006040518060600160405280858152602001848152602001838152509050600481908060018154018082558091505060019003906000526020600020906003020160009091909190915060008201518160000155602082015181600101908161407e9190615c54565b5060408201518160020190816140949190615c54565b50505050505050565b604051806040016040528060008152602001606081525090565b60405180608001604052806000815260200160008152602001600060018111156140e4576140e361434c565b5b8152602001600060028111156140fd576140fc61434c565b5b81525090565b6040518061014001604052806060815260200160608152602001606081526020016060815260200160608152602001600081526020016060815260200160608152602001600015158152602001600081525090565b6040518060e00160405280600073ffffffffffffffffffffffffffffffffffffffff1681526020016060815260200160608152602001606081526020016060815260200160608152602001600060038111156141b7576141b661434c565b5b81525090565b6000604051905090565b600080fd5b600080fd5b6000819050919050565b6141e4816141d1565b81146141ef57600080fd5b50565b600081359050614201816141db565b92915050565b6000806040838503121561421e5761421d6141c7565b5b600061422c858286016141f2565b925050602061423d858286016141f2565b9150509250929050565b60006020828403121561425d5761425c6141c7565b5b600061426b848285016141f2565b91505092915050565b61427d816141d1565b82525050565b600081519050919050565b600082825260208201905092915050565b60005b838110156142bd5780820151818401526020810190506142a2565b838111156142cc576000848401525b50505050565b6000601f19601f8301169050919050565b60006142ee82614283565b6142f8818561428e565b935061430881856020860161429f565b614311816142d2565b840191505092915050565b60006040820190506143316000830185614274565b818103602083015261434381846142e3565b90509392505050565b7f4e487b7100000000000000000000000000000000000000000000000000000000600052602160045260246000fd5b6003811061438c5761438b61434c565b5b50565b600081905061439d8261437b565b919050565b60006143ad8261438f565b9050919050565b6143bd816143a2565b82525050565b60006060820190506143d86000830186614274565b6143e56020830185614274565b6143f260408301846143b4565b949350505050565b600060208201905061440f6000830184614274565b92915050565b61441e816141d1565b82525050565b600082825260208201905092915050565b600061444082614283565b61444a8185614424565b935061445a81856020860161429f565b614463816142d2565b840191505092915050565b60006040830160008301516144866000860182614415565b506020830151848203602086015261449e8282614435565b9150508091505092915050565b600060208201905081810360008301526144c5818461446e565b905092915050565b600080fd5b600080fd5b7f4e487b7100000000000000000000000000000000000000000000000000000000600052604160045260246000fd5b61450f826142d2565b810181811067ffffffffffffffff8211171561452e5761452d6144d7565b5b80604052505050565b60006145416141bd565b905061454d8282614506565b919050565b600067ffffffffffffffff82111561456d5761456c6144d7565b5b614576826142d2565b9050602081019050919050565b82818337600083830152505050565b60006145a56145a084614552565b614537565b9050828152602081018484840111156145c1576145c06144d2565b5b6145cc848285614583565b509392505050565b600082601f8301126145e9576145e86144cd565b5b81356145f9848260208601614592565b91505092915050565b60008060006060848603121561461b5761461a6141c7565b5b6000614629868287016141f2565b935050602061463a868287016141f2565b925050604084013567ffffffffffffffff81111561465b5761465a6141cc565b5b614667868287016145d4565b9150509250925092565b60008060006060848603121561468a576146896141c7565b5b6000614698868287016141f2565b93505060206146a9868287016141f2565b92505060406146ba868287016141f2565b9150509250925092565b600080604083850312156146db576146da6141c7565b5b60006146e9858286016141f2565b925050602083013567ffffffffffffffff81111561470a576147096141cc565b5b614716858286016145d4565b9150509250929050565b60006060820190506147356000830186614274565b6147426020830185614274565b818103604083015261475481846142e3565b9050949350505050565b600073ffffffffffffffffffffffffffffffffffffffff82169050919050565b60006147898261475e565b9050919050565b6147998161477e565b82525050565b600481106147b0576147af61434c565b5b50565b60008190506147c18261479f565b919050565b60006147d1826147b3565b9050919050565b6147e1816147c6565b82525050565b600060e0820190506147fc600083018a614790565b818103602083015261480e81896142e3565b9050818103604083015261482281886142e3565b9050818103606083015261483681876142e3565b9050818103608083015261484a81866142e3565b905081810360a083015261485e81856142e3565b905061486d60c08301846147d8565b98975050505050505050565b6148828161477e565b811461488d57600080fd5b50565b60008135905061489f81614879565b92915050565b6000602082840312156148bb576148ba6141c7565b5b60006148c984828501614890565b91505092915050565b6000819050919050565b6148e5816148d2565b82525050565b600060208201905061490060008301846148dc565b92915050565b600081519050919050565b600082825260208201905092915050565b6000819050602082019050919050565b600060408301600083015161494a6000860182614415565b50602083015184820360208601526149628282614435565b9150508091505092915050565b600061497b8383614932565b905092915050565b6000602082019050919050565b600061499b82614906565b6149a58185614911565b9350836020820285016149b785614922565b8060005b858110156149f357848403895281516149d4858261496f565b94506149df83614983565b925060208a019950506001810190506149bb565b50829750879550505050505092915050565b60006020820190508181036000830152614a1f8184614990565b905092915050565b60028110614a3857614a3761434c565b5b50565b6000819050614a4982614a27565b919050565b6000614a5982614a3b565b9050919050565b614a6981614a4e565b82525050565b6000608082019050614a846000830187614274565b614a916020830186614274565b614a9e6040830185614a60565b614aab60608301846143b4565b95945050505050565b60008060408385031215614acb57614aca6141c7565b5b600083013567ffffffffffffffff811115614ae957614ae86141cc565b5b614af5858286016145d4565b925050602083013567ffffffffffffffff811115614b1657614b156141cc565b5b614b22858286016145d4565b9150509250929050565b6000606082019050614b416000830186614274565b8181036020830152614b5381856142e3565b90508181036040830152614b6781846142e3565b9050949350505050565b60008115159050919050565b614b8681614b71565b82525050565b6000610140830160008301518482036000860152614baa8282614435565b91505060208301518482036020860152614bc48282614435565b91505060408301518482036040860152614bde8282614435565b91505060608301518482036060860152614bf88282614435565b91505060808301518482036080860152614c128282614435565b91505060a0830151614c2760a0860182614415565b5060c083015184820360c0860152614c3f8282614435565b91505060e083015184820360e0860152614c598282614435565b915050610100830151614c70610100860182614b7d565b50610120830151614c85610120860182614415565b508091505092915050565b60006020820190508181036000830152614caa8184614b8c565b905092915050565b600081519050919050565b600082825260208201905092915050565b6000819050602082019050919050565b6000606083016000830151614cf66000860182614415565b5060208301518482036020860152614d0e8282614435565b91505060408301518482036040860152614d288282614435565b9150508091505092915050565b6000614d418383614cde565b905092915050565b6000602082019050919050565b6000614d6182614cb2565b614d6b8185614cbd565b935083602082028501614d7d85614cce565b8060005b85811015614db95784840389528151614d9a8582614d35565b9450614da583614d49565b925060208a01995050600181019050614d81565b50829750879550505050505092915050565b60006020820190508181036000830152614de58184614d56565b905092915050565b614df681614b71565b8114614e0157600080fd5b50565b600081359050614e1381614ded565b92915050565b6000806000806000806000806000806101408b8d031215614e3d57614e3c6141c7565b5b6000614e4b8d828e016141f2565b9a505060208b013567ffffffffffffffff811115614e6c57614e6b6141cc565b5b614e788d828e016145d4565b99505060408b013567ffffffffffffffff811115614e9957614e986141cc565b5b614ea58d828e016145d4565b98505060608b013567ffffffffffffffff811115614ec657614ec56141cc565b5b614ed28d828e016145d4565b97505060808b013567ffffffffffffffff811115614ef357614ef26141cc565b5b614eff8d828e016145d4565b96505060a08b013567ffffffffffffffff811115614f2057614f1f6141cc565b5b614f2c8d828e016145d4565b95505060c08b013567ffffffffffffffff811115614f4d57614f4c6141cc565b5b614f598d828e016145d4565b94505060e08b013567ffffffffffffffff811115614f7a57614f796141cc565b5b614f868d828e016145d4565b935050610100614f988d828e01614e04565b925050610120614faa8d828e016141f2565b9150509295989b9194979a5092959850565b600080600060608486031215614fd557614fd46141c7565b5b6000614fe3868287016141f2565b935050602084013567ffffffffffffffff811115615004576150036141cc565b5b615010868287016145d4565b925050604084013567ffffffffffffffff811115615031576150306141cc565b5b61503d868287016145d4565b9150509250925092565b61505081614b71565b82525050565b600060208201905061506b6000830184615047565b92915050565b60008060408385031215615088576150876141c7565b5b600061509685828601614890565b92505060206150a785828601614890565b9150509250929050565b600081519050919050565b600082825260208201905092915050565b6000819050602082019050919050565b60006060830160008301516150f56000860182614415565b5060208301516151086020860182614415565b50604083015184820360408601526151208282614435565b9150508091505092915050565b600061513983836150dd565b905092915050565b6000602082019050919050565b6000615159826150b1565b61516381856150bc565b935083602082028501615175856150cd565b8060005b858110156151b15784840389528151615192858261512d565b945061519d83615141565b925060208a01995050600181019050615179565b50829750879550505050505092915050565b600060208201905081810360008301526151dd818461514e565b905092915050565b600081519050919050565b600082825260208201905092915050565b6000819050602082019050919050565b60006040830160008301516152296000860182614415565b50602083015184820360208601526152418282614435565b9150508091505092915050565b600061525a8383615211565b905092915050565b6000602082019050919050565b600061527a826151e5565b61528481856151f0565b93508360208202850161529685615201565b8060005b858110156152d257848403895281516152b3858261524e565b94506152be83615262565b925060208a0199505060018101905061529a565b50829750879550505050505092915050565b600060208201905081810360008301526152fe818461526f565b905092915050565b6000610140820190508181036000830152615321818d6142e3565b90508181036020830152615335818c6142e3565b90508181036040830152615349818b6142e3565b9050818103606083015261535d818a6142e3565b9050818103608083015261537181896142e3565b905061538060a0830188614274565b81810360c083015261539281876142e3565b905081810360e08301526153a681866142e3565b90506153b6610100830185615047565b6153c4610120830184614274565b9b9a5050505050505050505050565b600081519050919050565b600082825260208201905092915050565b6000819050602082019050919050565b600061014083016000830151848203600086015261541d8282614435565b915050602083015184820360208601526154378282614435565b915050604083015184820360408601526154518282614435565b9150506060830151848203606086015261546b8282614435565b915050608083015184820360808601526154858282614435565b91505060a083015161549a60a0860182614415565b5060c083015184820360c08601526154b28282614435565b91505060e083015184820360e08601526154cc8282614435565b9150506101008301516154e3610100860182614b7d565b506101208301516154f8610120860182614415565b508091505092915050565b600061550f83836153ff565b905092915050565b6000602082019050919050565b600061552f826153d3565b61553981856153de565b93508360208202850161554b856153ef565b8060005b8581101561558757848403895281516155688582615503565b945061557383615517565b925060208a0199505060018101905061554f565b50829750879550505050505092915050565b600060208201905081810360008301526155b38184615524565b905092915050565b6155c48161477e565b82525050565b6155d3816147c6565b82525050565b600060e0830160008301516155f160008601826155bb565b50602083015184820360208601526156098282614435565b915050604083015184820360408601526156238282614435565b9150506060830151848203606086015261563d8282614435565b915050608083015184820360808601526156578282614435565b91505060a083015184820360a08601526156718282614435565b91505060c083015161568660c08601826155ca565b508091505092915050565b600060208201905081810360008301526156ab81846155d9565b905092915050565b600081519050919050565b600082825260208201905092915050565b6000819050602082019050919050565b600060e0830160008301516156f760008601826155bb565b506020830151848203602086015261570f8282614435565b915050604083015184820360408601526157298282614435565b915050606083015184820360608601526157438282614435565b9150506080830151848203608086015261575d8282614435565b91505060a083015184820360a08601526157778282614435565b91505060c083015161578c60c08601826155ca565b508091505092915050565b60006157a383836156df565b905092915050565b6000602082019050919050565b60006157c3826156b3565b6157cd81856156be565b9350836020820285016157df856156cf565b8060005b8581101561581b57848403895281516157fc8582615797565b9450615807836157ab565b925060208a019950506001810190506157e3565b50829750879550505050505092915050565b6000602082019050818103600083015261584781846157b8565b905092915050565b6004811061585c57600080fd5b50565b60008135905061586e8161584f565b92915050565b600080600080600080600060e0888a031215615893576158926141c7565b5b60006158a18a828b01614890565b975050602088013567ffffffffffffffff8111156158c2576158c16141cc565b5b6158ce8a828b016145d4565b965050604088013567ffffffffffffffff8111156158ef576158ee6141cc565b5b6158fb8a828b016145d4565b955050606088013567ffffffffffffffff81111561591c5761591b6141cc565b5b6159288a828b016145d4565b945050608088013567ffffffffffffffff811115615949576159486141cc565b5b6159558a828b016145d4565b93505060a088013567ffffffffffffffff811115615976576159756141cc565b5b6159828a828b016145d4565b92505060c06159938a828b0161585f565b91505092959891949750929550565b7f4e487b7100000000000000000000000000000000000000000000000000000000600052603260045260246000fd5b7f4e487b7100000000000000000000000000000000000000000000000000000000600052601160045260246000fd5b6000615a0b826141d1565b91507fffffffffffffffffffffffffffffffffffffffffffffffffffffffffffffffff8203615a3d57615a3c6159d1565b5b600182019050919050565b7f4e487b7100000000000000000000000000000000000000000000000000000000600052602260045260246000fd5b60006002820490506001821680615a8f57607f821691505b602082108103615aa257615aa1615a48565b5b50919050565b60008190508160005260206000209050919050565b60006020601f8301049050919050565b600082821b905092915050565b600060088302615b0a7fffffffffffffffffffffffffffffffffffffffffffffffffffffffffffffffff82615acd565b615b148683615acd565b95508019841693508086168417925050509392505050565b6000819050919050565b6000615b51615b4c615b47846141d1565b615b2c565b6141d1565b9050919050565b6000819050919050565b615b6b83615b36565b615b7f615b7782615b58565b848454615ada565b825550505050565b600090565b615b94615b87565b615b9f818484615b62565b505050565b5b81811015615bc357615bb8600082615b8c565b600181019050615ba5565b5050565b601f821115615c0857615bd981615aa8565b615be284615abd565b81016020851015615bf1578190505b615c05615bfd85615abd565b830182615ba4565b50505b505050565b600082821c905092915050565b6000615c2b60001984600802615c0d565b1980831691505092915050565b6000615c448383615c1a565b9150826002028217905092915050565b615c5d82614283565b67ffffffffffffffff811115615c7657615c756144d7565b5b615c808254615a77565b615c8b828285615bc7565b600060209050601f831160018114615cbe5760008415615cac578287015190505b615cb68582615c38565b865550615d1e565b601f198416615ccc86615aa8565b60005b82811015615cf457848901518255600182019150602085019450602081019050615ccf565b86831015615d115784890151615d0d601f891682615c1a565b8355505b6001600288020188555050505b505050505050565b60008160601b9050919050565b6000615d3e82615d26565b9050919050565b6000615d5082615d33565b9050919050565b615d68615d638261477e565b615d45565b82525050565b6000615d7a8284615d57565b60148201915081905092915050565b6000819050919050565b615da4615d9f826141d1565b615d89565b82525050565b6000615db68284615d93565b60208201915081905092915050565b600081905092915050565b6000615ddb82614283565b615de58185615dc5565b9350615df581856020860161429f565b80840191505092915050565b6000615e0d8284615dd0565b91508190509291505056fea2646970667358221220c52538dfc6cd284ce8ef89b16b10363246d5c06ba7e3d20a78b6ccb897d0db1f64736f6c634300080f0033",
  "immutableReferences": {},
  "source": "//SPDX-License-Identifier: MIT\r\npragma solidity ^0.8.11;\r\n\r\ncontract VehicleSystem\r\n{\r\n\r\n    enum Role{\r\n        CUSTOMER,\r\n        MANUFACTURE,\r\n        BANK,\r\n        ADMIN\r\n    }\r\n\r\n    enum LicenseRequestType{\r\n        FIRST_TIME_LICENSE,\r\n        RENEWAL_LICENSE\r\n    }\r\n\r\n    enum State {\r\n        ACCEPTED,\r\n        REJECTED,\r\n        PENDING\r\n    }\r\n\r\n    struct manufacture\r\n    {\r\n        uint user_id;\r\n        string manufacture_name;\r\n    }\r\n\r\n    struct bank\r\n    {\r\n        uint user_id;\r\n        string bank_name;\r\n    }\r\n\r\n    struct vehicle\r\n    {\r\n        string vehicle_name;\r\n        string vehicle_type;\r\n        string vehicle_model;\r\n        string vehicle_motor_number;\r\n        string vehicle_chase_number;\r\n        uint vehicle_manufacture_id;\r\n        string vehicle_color;\r\n        string vehicle_production_Year;\r\n        bool isBlocked;\r\n        uint user_id;\r\n    }\r\n\r\n    struct user\r\n    {\r\n        address user_address;\r\n        string user_name;\r\n        string user_email;\r\n        string user_password;\r\n        string user_phone;\r\n        string user_national_id;\r\n        Role role;\r\n    }\r\n\r\n    struct traffic_violation\r\n    {\r\n        uint vehicle_id;\r\n        string violation_description;\r\n        string violation_type;\r\n    }\r\n\r\n    struct license\r\n    {\r\n        uint user_id;\r\n        uint car_id;\r\n        string expire_at;\r\n    }\r\n\r\n    struct license_request\r\n    {\r\n        uint user_id;\r\n        uint car_id;\r\n        LicenseRequestType license_request_type;\r\n        State state;\r\n    }\r\n\r\n    struct ban_sale_request {\r\n        uint user_id;\r\n        uint car_id;\r\n        State state;\r\n    }\r\n\r\n    manufacture[] public manufactures;\r\n    bank[] public banks;\r\n    vehicle[] public vehicles;\r\n    user[] public users;\r\n    traffic_violation[] public traffic_violations;\r\n    license[] public licenses;\r\n    license_request[] public licenses_requests;\r\n    ban_sale_request[] public ban_sale_requests;\r\n\r\n    function register(address _user_address, string memory _user_name, string memory _user_email, string memory _user_phone, string memory _user_password, string memory _user_national_id, Role role) public returns (bool)\r\n    {\r\n        user memory temp_hold_user = user(_user_address, _user_name, _user_email, _user_password, _user_phone, _user_national_id, role);\r\n        users.push(temp_hold_user);\r\n        return true;\r\n    }\r\n\r\n    function login(string memory _user_email, string memory _user_password) public view returns (int)\r\n    {\r\n        for (uint i = 0; i < users.length; i++)\r\n        {\r\n            string memory user_name = users[i].user_email;\r\n            string memory user_password = users[i].user_password;\r\n            if (compareStrings(user_name, _user_email))\r\n            {\r\n                if (compareStrings(user_password, _user_password))\r\n                {\r\n                    return int(i);\r\n                }\r\n            }\r\n        }\r\n        return - 1;\r\n    }\r\n\r\n    function get_user(uint user_id) public view returns (user memory){\r\n        return users[user_id];\r\n    }\r\n\r\n    function get_user_id_with_address(address _user_address) public view returns (int){\r\n        for (uint i = 0; i < users.length; i++)\r\n        {\r\n            if (compareAddress(_user_address, users[i].user_address))\r\n            {\r\n                return int(i);\r\n            }\r\n        }\r\n        return - 1;\r\n    }\r\n\r\n    function edit_user(uint _user_id, string memory _user_phone, string memory _user_password) public returns (bool)\r\n    {\r\n        for (uint i = 0; i < users.length; i++)\r\n        {\r\n            if (compareUint(i, _user_id))\r\n            {\r\n                users[i].user_password = _user_password;\r\n                users[i].user_phone = _user_phone;\r\n                return true;\r\n            }\r\n        }\r\n        return false;\r\n    }\r\n\r\n    function get_users() public view returns (user[] memory){\r\n        return users;\r\n    }\r\n\r\n    function users_length() public view returns (uint){\r\n        return users.length;\r\n    }\r\n\r\n    function add_manufacture(uint _user_id, string memory _manufacture_name) public {\r\n        manufacture memory _manufacture = manufacture(_user_id, _manufacture_name);\r\n        manufactures.push(_manufacture);\r\n    }\r\n\r\n    function edit_manufacture(uint _manufacture_id, string memory _manufacture_name) public\r\n    {\r\n        for (uint i = 0; i < manufactures.length; i++)\r\n        {\r\n            uint current_manufacture_id = i;\r\n            if (compareUint(current_manufacture_id, _manufacture_id))\r\n            {\r\n                manufactures[i].manufacture_name = _manufacture_name;\r\n            }\r\n        }\r\n    }\r\n\r\n    function get_manufactures() public view returns (manufacture[] memory){\r\n        return manufactures;\r\n    }\r\n\r\n    function manufactures_length() public view returns (uint){\r\n        return manufactures.length;\r\n    }\r\n\r\n    function add_bank(uint _user_id, string memory _name) public {\r\n        bank memory new_bank = bank(_user_id, _name);\r\n        banks.push(new_bank);\r\n    }\r\n\r\n    function edit_bank(uint _bank_id, uint _user_id, string memory _name) public\r\n    {\r\n        for (uint i = 0; i < banks.length; i++) {\r\n            if (compareUint(_bank_id, i)) {\r\n                banks[i].user_id = _user_id;\r\n                banks[i].bank_name = _name;\r\n            }\r\n        }\r\n    }\r\n\r\n    function get_bank(uint _bank_id) public view returns (bank memory){\r\n        return banks[_bank_id];\r\n    }\r\n\r\n    function get_banks() public view returns (bank[] memory){\r\n        return banks;\r\n    }\r\n\r\n    function banks_length() public view returns (uint){\r\n        return banks.length;\r\n    }\r\n\r\n    function add_vehicle(\r\n        uint _manufacture_user_id,\r\n        string memory _vehicle_name,\r\n        string memory _vehicle_type,\r\n        string memory _vehicle_model,\r\n        string memory _vehicle_motor_number,\r\n        string memory _vehicle_chase_number,\r\n        string memory _vehicle_color,\r\n        string memory _vehicle_production_Year,\r\n        bool _isBlocked,\r\n        uint _owner_id\r\n    ) public {\r\n        vehicle memory new_vehicle = vehicle(\r\n            _vehicle_name,\r\n            _vehicle_type,\r\n            _vehicle_model,\r\n            _vehicle_motor_number,\r\n            _vehicle_chase_number,\r\n            _manufacture_user_id,\r\n            _vehicle_color,\r\n            _vehicle_production_Year,\r\n            _isBlocked,\r\n            _owner_id\r\n        );\r\n        vehicles.push(new_vehicle);\r\n    }\r\n\r\n    function edit_vehicle(\r\n        uint _vehicle_id,\r\n        uint _owner_id,\r\n        string memory _vehicle_color\r\n    ) public\r\n    {\r\n        for (uint i = 0; i < vehicles.length; i++) {\r\n            if (compareUint(_vehicle_id, i)) {\r\n                vehicles[i].vehicle_color = _vehicle_color;\r\n                vehicles[i].user_id = _owner_id;\r\n            }\r\n        }\r\n    }\r\n\r\n    function get_vehicle(uint _vehicle_id) public view returns (vehicle memory){\r\n        return vehicles[_vehicle_id];\r\n    }\r\n\r\n    function get_vehicles() public view returns (vehicle[] memory){\r\n        return vehicles;\r\n    }\r\n\r\n    function vehicles_length() public view returns (uint){\r\n        return vehicles.length;\r\n    }\r\n\r\n    function add_license(uint _user_id, uint _car_id, string memory _expire_at) public\r\n    {\r\n        license memory new_license = license(_user_id, _car_id, _expire_at);\r\n        licenses.push(new_license);\r\n    }\r\n\r\n    function edit_license(uint _license_id, uint _user_id) public\r\n    {\r\n        for (uint i = 0; i < licenses.length; i++)\r\n        {\r\n            if (compareUint(i, _license_id))\r\n            {\r\n                licenses[i].user_id = _user_id;\r\n            }\r\n        }\r\n    }\r\n\r\n    function renewal_license(uint _license_id, string memory _expire_at) public {\r\n        licenses[_license_id].expire_at = _expire_at;\r\n    }\r\n\r\n    function request_to_renewal_licence(uint _license_id, uint _car_id, uint _user_id) public\r\n    {\r\n        for (uint i = 0; i < licenses.length; i++) {\r\n            if (compareUint(i, _license_id)) {\r\n                license_request memory new_license_request = license_request(_user_id, _car_id, LicenseRequestType.RENEWAL_LICENSE, State.PENDING);\r\n                licenses_requests.push(new_license_request);\r\n            }\r\n        }\r\n    }\r\n\r\n    function request_to_first_time_licence(uint _car_id, uint _user_id) public\r\n    {\r\n\r\n        license_request memory new_license_request = license_request(_user_id, _car_id, LicenseRequestType.FIRST_TIME_LICENSE, State.PENDING);\r\n        licenses_requests.push(new_license_request);\r\n    }\r\n\r\n    function accept_to_request_renewal_license(uint _license_request_id, uint _license_id, string memory _expire_at) public {\r\n        for (uint i = 0; i < licenses_requests.length; i++)\r\n        {\r\n            if (compareUint(i, _license_request_id))\r\n            {\r\n                licenses_requests[i].state = State.ACCEPTED;\r\n            }\r\n        }\r\n        licenses[_license_id].expire_at = _expire_at;\r\n    }\r\n\r\n    function accept_to_request_first_time_license(uint _license_request_id, string memory _expire_at) public {\r\n        license_request memory current_licenses_request;\r\n        for (uint i = 0; i < licenses_requests.length; i++)\r\n        {\r\n            if (compareUint(i, _license_request_id))\r\n            {\r\n                current_licenses_request = licenses_requests[i];\r\n                licenses_requests[i].state = State.ACCEPTED;\r\n            }\r\n        }\r\n        license memory new_license = license(current_licenses_request.user_id, current_licenses_request.car_id, _expire_at);\r\n        licenses.push(new_license);\r\n    }\r\n\r\n    function reject_to_request_renewal_license(uint _license_request_id, uint _license_id, string memory _expire_at) public {\r\n        for (uint i = 0; i < licenses_requests.length; i++)\r\n        {\r\n            if (compareUint(i, _license_request_id))\r\n            {\r\n                licenses_requests[i].state = State.REJECTED;\r\n            }\r\n        }\r\n        licenses[_license_id].expire_at = _expire_at;\r\n    }\r\n\r\n    function reject_to_request_first_time_license(uint _license_request_id, string memory _expire_at) public {\r\n        license_request memory current_licenses_request;\r\n        for (uint i = 0; i < licenses_requests.length; i++)\r\n        {\r\n            if (compareUint(i, _license_request_id))\r\n            {\r\n                current_licenses_request = licenses_requests[i];\r\n                licenses_requests[i].state = State.REJECTED;\r\n            }\r\n        }\r\n        license memory new_license = license(current_licenses_request.user_id, current_licenses_request.car_id, _expire_at);\r\n        licenses.push(new_license);\r\n    }\r\n\r\n\r\n    function add_traffic_violation(uint _vehicle_id, string memory _vio_type, string memory _vio_des) public\r\n    {\r\n        traffic_violation memory temp_violation = traffic_violation(_vehicle_id, _vio_type, _vio_des);\r\n        traffic_violations.push(temp_violation);\r\n    }\r\n\r\n    function edit_traffic_violation(uint _vio_id, string memory _vio_type, string memory _vio_des) public\r\n    {\r\n        for (uint i = 0; i < traffic_violations.length; i++)\r\n        {\r\n            if (compareUint(i, _vio_id))\r\n            {\r\n                traffic_violations[i].violation_type = _vio_type;\r\n                traffic_violations[i].violation_description = _vio_des;\r\n            }\r\n        }\r\n    }\r\n\r\n    function request_to_remove_ban_sale(uint _car_id, uint _user_id) public\r\n    {\r\n\r\n        ban_sale_request memory new_ban_sale_request = ban_sale_request(_user_id, _car_id, State.PENDING);\r\n        ban_sale_requests.push(new_ban_sale_request);\r\n    }\r\n\r\n    function accept_to_request_renewal_license(uint _ban_sale_request_id, uint _car_id) public {\r\n        for (uint i = 0; i < ban_sale_requests.length; i++)\r\n        {\r\n            if (compareUint(i, _ban_sale_request_id))\r\n            {\r\n                ban_sale_requests[i].state = State.ACCEPTED;\r\n            }\r\n        }\r\n        vehicles[_car_id].isBlocked = false;\r\n    }\r\n\r\n    function reject_to_request_renewal_license(uint _ban_sale_request_id, uint _car_id) public {\r\n        for (uint i = 0; i < ban_sale_requests.length; i++)\r\n        {\r\n            if (compareUint(i, _ban_sale_request_id))\r\n            {\r\n                ban_sale_requests[i].state = State.REJECTED;\r\n            }\r\n        }\r\n        vehicles[_car_id].isBlocked = true;\r\n    }\r\n\r\n\r\n    function get_traffic_violations() public view returns (traffic_violation[] memory){\r\n        return traffic_violations;\r\n    }\r\n\r\n    function get_licenses() public view returns (license[] memory){\r\n        return licenses;\r\n    }\r\n\r\n    function traffic_violations_length() public view returns (uint){\r\n        return traffic_violations.length;\r\n    }\r\n\r\n    function licenses_length() public view returns (uint){\r\n        return licenses.length;\r\n    }\r\n\r\n    function compareAddress(address a, address b) public pure returns (bool) {\r\n        return (keccak256(abi.encodePacked((a))) == keccak256(abi.encodePacked((b))));\r\n    }\r\n\r\n    function compareUint(uint a, uint b) public pure returns (bool) {\r\n        return (keccak256(abi.encodePacked((a))) == keccak256(abi.encodePacked((b))));\r\n    }\r\n\r\n    function compareStrings(string memory a, string memory b) public pure returns (bool) {\r\n        return (keccak256(abi.encodePacked((a))) == keccak256(abi.encodePacked((b))));\r\n    }\r\n}\r\n",
  "sourcePath": "C:\\Users\\ahmedbadr\\Desktop\\Back-end\\contracts\\VehicleSystem.sol",
  "compiler": {
    "name": "solc",
    "version": "0.8.15+commit.e14f2714.Emscripten.clang"
  },
  "schemaVersion": "3.4.7",
  "updatedAt": "2022-06-16T13:47:22.272Z",
  "networkType": "ethereum",
  "devdoc": {
    "kind": "dev",
    "methods": {},
    "version": 1
  },
  "userdoc": {
    "kind": "user",
    "methods": {},
    "version": 1
  }
}