{
  "contractName": "VehicleSystem",
  "abi": [
    {
      "inputs": [],
      "stateMutability": "nonpayable",
      "type": "constructor"
    },
    {
      "inputs": [
        {
          "internalType": "uint256",
          "name": "",
          "type": "uint256"
        }
      ],
      "name": "banks",
      "outputs": [
        {
          "internalType": "uint256",
          "name": "user_id",
          "type": "uint256"
        },
        {
          "internalType": "string",
          "name": "bank_name",
          "type": "string"
        }
      ],
      "stateMutability": "view",
      "type": "function",
      "constant": true
    },
    {
      "inputs": [
        {
          "internalType": "uint256",
          "name": "",
          "type": "uint256"
        }
      ],
      "name": "licenses",
      "outputs": [
        {
          "internalType": "uint256",
          "name": "user_id",
          "type": "uint256"
        },
        {
          "internalType": "uint256",
          "name": "car_id",
          "type": "uint256"
        },
        {
          "internalType": "string",
          "name": "status",
          "type": "string"
        },
        {
          "internalType": "string",
          "name": "expireat",
          "type": "string"
        },
        {
          "internalType": "uint256",
          "name": "security_directorate_id",
          "type": "uint256"
        },
        {
          "internalType": "enum VehicleSystem.State",
          "name": "state",
          "type": "uint8"
        }
      ],
      "stateMutability": "view",
      "type": "function",
      "constant": true
    },
    {
      "inputs": [
        {
          "internalType": "uint256",
          "name": "",
          "type": "uint256"
        }
      ],
      "name": "manufactures",
      "outputs": [
        {
          "internalType": "uint256",
          "name": "user_id",
          "type": "uint256"
        },
        {
          "internalType": "string",
          "name": "manufacture_name",
          "type": "string"
        }
      ],
      "stateMutability": "view",
      "type": "function",
      "constant": true
    },
    {
      "inputs": [
        {
          "internalType": "uint256",
          "name": "",
          "type": "uint256"
        }
      ],
      "name": "traffic_violations",
      "outputs": [
        {
          "internalType": "uint256",
          "name": "vehicle_id",
          "type": "uint256"
        },
        {
          "internalType": "string",
          "name": "violation_type",
          "type": "string"
        },
        {
          "internalType": "string",
          "name": "violation_description",
          "type": "string"
        },
        {
          "internalType": "string",
          "name": "violation_status",
          "type": "string"
        }
      ],
      "stateMutability": "view",
      "type": "function",
      "constant": true
    },
    {
      "inputs": [
        {
          "internalType": "uint256",
          "name": "",
          "type": "uint256"
        }
      ],
      "name": "transactions",
      "outputs": [
        {
          "internalType": "uint256",
          "name": "user_id",
          "type": "uint256"
        },
        {
          "internalType": "string",
          "name": "amount",
          "type": "string"
        },
        {
          "internalType": "string",
          "name": "status",
          "type": "string"
        },
        {
          "internalType": "uint256",
          "name": "bank_id",
          "type": "uint256"
        },
        {
          "internalType": "string",
          "name": "created_at",
          "type": "string"
        },
        {
          "internalType": "string",
          "name": "updated_at",
          "type": "string"
        }
      ],
      "stateMutability": "view",
      "type": "function",
      "constant": true
    },
    {
      "inputs": [
        {
          "internalType": "uint256",
          "name": "",
          "type": "uint256"
        }
      ],
      "name": "users",
      "outputs": [
        {
          "internalType": "address",
          "name": "user_address",
          "type": "address"
        },
        {
          "internalType": "string",
          "name": "user_name",
          "type": "string"
        },
        {
          "internalType": "string",
          "name": "user_email",
          "type": "string"
        },
        {
          "internalType": "string",
          "name": "user_password",
          "type": "string"
        },
        {
          "internalType": "string",
          "name": "user_phone",
          "type": "string"
        },
        {
          "internalType": "string",
          "name": "user_national_id",
          "type": "string"
        }
      ],
      "stateMutability": "view",
      "type": "function",
      "constant": true
    },
    {
      "inputs": [
        {
          "internalType": "uint256",
          "name": "",
          "type": "uint256"
        }
      ],
      "name": "vehicles",
      "outputs": [
        {
          "internalType": "string",
          "name": "vehicle_name",
          "type": "string"
        },
        {
          "internalType": "string",
          "name": "vehicle_type",
          "type": "string"
        },
        {
          "internalType": "string",
          "name": "vehicle_model",
          "type": "string"
        },
        {
          "internalType": "string",
          "name": "vehicle_motor_number",
          "type": "string"
        },
        {
          "internalType": "string",
          "name": "vehicle_chase_number",
          "type": "string"
        },
        {
          "internalType": "uint256",
          "name": "vehicle_manufacture_id",
          "type": "uint256"
        },
        {
          "internalType": "string",
          "name": "vehicle_color",
          "type": "string"
        },
        {
          "internalType": "string",
          "name": "vehicle_production_Year",
          "type": "string"
        },
        {
          "internalType": "bool",
          "name": "isBlocked",
          "type": "bool"
        },
        {
          "internalType": "uint256",
          "name": "user_id",
          "type": "uint256"
        },
        {
          "internalType": "enum VehicleSystem.State",
          "name": "state",
          "type": "uint8"
        }
      ],
      "stateMutability": "view",
      "type": "function",
      "constant": true
    },
    {
      "inputs": [
        {
          "internalType": "address",
          "name": "_user_address",
          "type": "address"
        },
        {
          "internalType": "string",
          "name": "_user_name",
          "type": "string"
        },
        {
          "internalType": "string",
          "name": "_user_email",
          "type": "string"
        },
        {
          "internalType": "string",
          "name": "_user_phone",
          "type": "string"
        },
        {
          "internalType": "string",
          "name": "_user_password",
          "type": "string"
        },
        {
          "internalType": "string",
          "name": "_user_national_id",
          "type": "string"
        }
      ],
      "name": "register",
      "outputs": [
        {
          "internalType": "bool",
          "name": "",
          "type": "bool"
        }
      ],
      "stateMutability": "nonpayable",
      "type": "function"
    },
    {
      "inputs": [
        {
          "internalType": "string",
          "name": "passed_user_email",
          "type": "string"
        },
        {
          "internalType": "string",
          "name": "passed_user_password",
          "type": "string"
        }
      ],
      "name": "login",
      "outputs": [
        {
          "internalType": "int256",
          "name": "",
          "type": "int256"
        }
      ],
      "stateMutability": "view",
      "type": "function",
      "constant": true
    },
    {
      "inputs": [
        {
          "internalType": "uint256",
          "name": "user_id",
          "type": "uint256"
        }
      ],
      "name": "get_user",
      "outputs": [
        {
          "components": [
            {
              "internalType": "address",
              "name": "user_address",
              "type": "address"
            },
            {
              "internalType": "string",
              "name": "user_name",
              "type": "string"
            },
            {
              "internalType": "string",
              "name": "user_email",
              "type": "string"
            },
            {
              "internalType": "string",
              "name": "user_password",
              "type": "string"
            },
            {
              "internalType": "string",
              "name": "user_phone",
              "type": "string"
            },
            {
              "internalType": "string",
              "name": "user_national_id",
              "type": "string"
            }
          ],
          "internalType": "struct VehicleSystem.user",
          "name": "",
          "type": "tuple"
        }
      ],
      "stateMutability": "view",
      "type": "function",
      "constant": true
    },
    {
      "inputs": [
        {
          "internalType": "uint256",
          "name": "_user_id",
          "type": "uint256"
        },
        {
          "internalType": "string",
          "name": "_user_email",
          "type": "string"
        },
        {
          "internalType": "string",
          "name": "_user_password",
          "type": "string"
        },
        {
          "internalType": "string",
          "name": "_user_national_id",
          "type": "string"
        }
      ],
      "name": "edit_user",
      "outputs": [
        {
          "internalType": "bool",
          "name": "",
          "type": "bool"
        }
      ],
      "stateMutability": "nonpayable",
      "type": "function"
    },
    {
      "inputs": [
        {
          "internalType": "uint256",
          "name": "_manufacture_id",
          "type": "uint256"
        },
        {
          "internalType": "string",
          "name": "_manufacture_name",
          "type": "string"
        }
      ],
      "name": "add_manufacture_data",
      "outputs": [],
      "stateMutability": "nonpayable",
      "type": "function"
    },
    {
      "inputs": [
        {
          "internalType": "uint256",
          "name": "_manufacture_id",
          "type": "uint256"
        },
        {
          "internalType": "string",
          "name": "_manufacture_name",
          "type": "string"
        }
      ],
      "name": "edit_manufacture",
      "outputs": [
        {
          "internalType": "bool",
          "name": "",
          "type": "bool"
        }
      ],
      "stateMutability": "nonpayable",
      "type": "function"
    },
    {
      "inputs": [
        {
          "internalType": "uint256",
          "name": "passed_user_id",
          "type": "uint256"
        },
        {
          "internalType": "uint256",
          "name": "passed_car_id",
          "type": "uint256"
        },
        {
          "internalType": "string",
          "name": "passed_status",
          "type": "string"
        },
        {
          "internalType": "string",
          "name": "passed_expireat",
          "type": "string"
        },
        {
          "internalType": "uint256",
          "name": "passed_security_directorate_id",
          "type": "uint256"
        }
      ],
      "name": "add_license",
      "outputs": [
        {
          "internalType": "bool",
          "name": "",
          "type": "bool"
        }
      ],
      "stateMutability": "nonpayable",
      "type": "function"
    },
    {
      "inputs": [
        {
          "internalType": "uint256",
          "name": "passed_license_id",
          "type": "uint256"
        },
        {
          "internalType": "uint256",
          "name": "passed_car_id",
          "type": "uint256"
        },
        {
          "internalType": "string",
          "name": "passed_status",
          "type": "string"
        },
        {
          "internalType": "uint256",
          "name": "passed_security_directorate_id",
          "type": "uint256"
        }
      ],
      "name": "edit_license",
      "outputs": [
        {
          "internalType": "bool",
          "name": "",
          "type": "bool"
        }
      ],
      "stateMutability": "nonpayable",
      "type": "function"
    },
    {
      "inputs": [
        {
          "internalType": "uint256",
          "name": "L_id",
          "type": "uint256"
        }
      ],
      "name": "request_to_renewal_licence",
      "outputs": [
        {
          "internalType": "bool",
          "name": "",
          "type": "bool"
        }
      ],
      "stateMutability": "view",
      "type": "function",
      "constant": true
    },
    {
      "inputs": [
        {
          "internalType": "uint256",
          "name": "L_id",
          "type": "uint256"
        }
      ],
      "name": "accept_to_renewal_license",
      "outputs": [
        {
          "internalType": "bool",
          "name": "",
          "type": "bool"
        }
      ],
      "stateMutability": "nonpayable",
      "type": "function"
    },
    {
      "inputs": [
        {
          "internalType": "uint256",
          "name": "L_id",
          "type": "uint256"
        }
      ],
      "name": "reject_to_renewal_license",
      "outputs": [
        {
          "internalType": "bool",
          "name": "",
          "type": "bool"
        }
      ],
      "stateMutability": "nonpayable",
      "type": "function"
    },
    {
      "inputs": [
        {
          "internalType": "uint256",
          "name": "L_id",
          "type": "uint256"
        }
      ],
      "name": "pending_to_renewal_license",
      "outputs": [
        {
          "internalType": "bool",
          "name": "",
          "type": "bool"
        }
      ],
      "stateMutability": "nonpayable",
      "type": "function"
    },
    {
      "inputs": [
        {
          "internalType": "uint256",
          "name": "passed_license_id",
          "type": "uint256"
        },
        {
          "internalType": "string",
          "name": "exp",
          "type": "string"
        }
      ],
      "name": "renewal_license",
      "outputs": [
        {
          "internalType": "bool",
          "name": "",
          "type": "bool"
        }
      ],
      "stateMutability": "nonpayable",
      "type": "function"
    },
    {
      "inputs": [
        {
          "internalType": "uint256",
          "name": "passed_vehicle_id",
          "type": "uint256"
        },
        {
          "internalType": "string",
          "name": "vio_type",
          "type": "string"
        },
        {
          "internalType": "string",
          "name": "vio_des",
          "type": "string"
        },
        {
          "internalType": "string",
          "name": "vio_status",
          "type": "string"
        }
      ],
      "name": "add_traffic_violation",
      "outputs": [
        {
          "internalType": "bool",
          "name": "",
          "type": "bool"
        }
      ],
      "stateMutability": "nonpayable",
      "type": "function"
    },
    {
      "inputs": [
        {
          "internalType": "uint256",
          "name": "vio_id",
          "type": "uint256"
        },
        {
          "internalType": "string",
          "name": "vio_type",
          "type": "string"
        },
        {
          "internalType": "string",
          "name": "vio_des",
          "type": "string"
        },
        {
          "internalType": "string",
          "name": "vio_status",
          "type": "string"
        }
      ],
      "name": "edit_traffic_violation",
      "outputs": [
        {
          "internalType": "bool",
          "name": "",
          "type": "bool"
        }
      ],
      "stateMutability": "nonpayable",
      "type": "function"
    },
    {
      "inputs": [
        {
          "internalType": "uint256",
          "name": "passed_user_id",
          "type": "uint256"
        },
        {
          "internalType": "string",
          "name": "passed_amount",
          "type": "string"
        },
        {
          "internalType": "string",
          "name": "passed_status",
          "type": "string"
        },
        {
          "internalType": "uint256",
          "name": "passed_bank_id",
          "type": "uint256"
        },
        {
          "internalType": "string",
          "name": "passed_created_at",
          "type": "string"
        },
        {
          "internalType": "string",
          "name": "passed_updated_at",
          "type": "string"
        }
      ],
      "name": "add_transaction",
      "outputs": [
        {
          "internalType": "bool",
          "name": "",
          "type": "bool"
        }
      ],
      "stateMutability": "nonpayable",
      "type": "function"
    },
    {
      "inputs": [
        {
          "internalType": "uint256",
          "name": "passed_trx_id",
          "type": "uint256"
        },
        {
          "internalType": "string",
          "name": "passed_status",
          "type": "string"
        },
        {
          "internalType": "string",
          "name": "passed_updated_at",
          "type": "string"
        }
      ],
      "name": "edit_transaction",
      "outputs": [
        {
          "internalType": "bool",
          "name": "",
          "type": "bool"
        }
      ],
      "stateMutability": "nonpayable",
      "type": "function"
    },
    {
      "inputs": [
        {
          "internalType": "uint256",
          "name": "v_id",
          "type": "uint256"
        }
      ],
      "name": "request_to_remove_block",
      "outputs": [
        {
          "internalType": "bool",
          "name": "",
          "type": "bool"
        }
      ],
      "stateMutability": "view",
      "type": "function",
      "constant": true
    },
    {
      "inputs": [
        {
          "internalType": "uint256",
          "name": "v_id",
          "type": "uint256"
        },
        {
          "internalType": "uint256",
          "name": "user_id",
          "type": "uint256"
        }
      ],
      "name": "accept_to_remove_block",
      "outputs": [
        {
          "internalType": "bool",
          "name": "",
          "type": "bool"
        }
      ],
      "stateMutability": "nonpayable",
      "type": "function"
    },
    {
      "inputs": [
        {
          "internalType": "uint256",
          "name": "v_id",
          "type": "uint256"
        },
        {
          "internalType": "uint256",
          "name": "user_id",
          "type": "uint256"
        }
      ],
      "name": "reject_to_remove_block",
      "outputs": [
        {
          "internalType": "bool",
          "name": "",
          "type": "bool"
        }
      ],
      "stateMutability": "nonpayable",
      "type": "function"
    },
    {
      "inputs": [
        {
          "internalType": "uint256",
          "name": "v_id",
          "type": "uint256"
        },
        {
          "internalType": "uint256",
          "name": "user_id",
          "type": "uint256"
        }
      ],
      "name": "pending_to_remove_block",
      "outputs": [
        {
          "internalType": "bool",
          "name": "",
          "type": "bool"
        }
      ],
      "stateMutability": "nonpayable",
      "type": "function"
    },
    {
      "inputs": [
        {
          "internalType": "uint256",
          "name": "user_id",
          "type": "uint256"
        },
        {
          "internalType": "string",
          "name": "name",
          "type": "string"
        }
      ],
      "name": "add_bank_data",
      "outputs": [],
      "stateMutability": "nonpayable",
      "type": "function"
    },
    {
      "inputs": [
        {
          "internalType": "uint256",
          "name": "bank_id",
          "type": "uint256"
        },
        {
          "internalType": "uint256",
          "name": "user_id",
          "type": "uint256"
        },
        {
          "internalType": "string",
          "name": "name",
          "type": "string"
        }
      ],
      "name": "edit_bank",
      "outputs": [
        {
          "internalType": "bool",
          "name": "",
          "type": "bool"
        }
      ],
      "stateMutability": "nonpayable",
      "type": "function"
    },
    {
      "inputs": [
        {
          "internalType": "uint256",
          "name": "manufacture_user_id",
          "type": "uint256"
        },
        {
          "internalType": "string",
          "name": "vehicle_name",
          "type": "string"
        },
        {
          "internalType": "string",
          "name": "vehicle_type",
          "type": "string"
        },
        {
          "internalType": "string",
          "name": "vehicle_model",
          "type": "string"
        },
        {
          "internalType": "string",
          "name": "vehicle_motor_number",
          "type": "string"
        },
        {
          "internalType": "string",
          "name": "vehicle_chase_number",
          "type": "string"
        },
        {
          "internalType": "string",
          "name": "vehicle_color",
          "type": "string"
        },
        {
          "internalType": "string",
          "name": "vehicle_production_Year",
          "type": "string"
        },
        {
          "internalType": "bool",
          "name": "isBlocked",
          "type": "bool"
        },
        {
          "internalType": "enum VehicleSystem.State",
          "name": "vehicle_state",
          "type": "uint8"
        }
      ],
      "name": "add_vehicle",
      "outputs": [],
      "stateMutability": "nonpayable",
      "type": "function"
    },
    {
      "inputs": [
        {
          "internalType": "uint256",
          "name": "manufacture_user_id",
          "type": "uint256"
        },
        {
          "internalType": "uint256",
          "name": "vehicle_id",
          "type": "uint256"
        },
        {
          "internalType": "string",
          "name": "vehicle_color",
          "type": "string"
        },
        {
          "internalType": "bool",
          "name": "isBlocked",
          "type": "bool"
        },
        {
          "internalType": "enum VehicleSystem.State",
          "name": "vehicle_state",
          "type": "uint8"
        }
      ],
      "name": "edit_vehicle",
      "outputs": [
        {
          "internalType": "bool",
          "name": "",
          "type": "bool"
        }
      ],
      "stateMutability": "nonpayable",
      "type": "function"
    },
    {
      "inputs": [
        {
          "internalType": "uint256",
          "name": "new_owner_user_id",
          "type": "uint256"
        },
        {
          "internalType": "uint256",
          "name": "old_owner_user_id",
          "type": "uint256"
        },
        {
          "internalType": "uint256",
          "name": "vehicle_id",
          "type": "uint256"
        }
      ],
      "name": "change_ownership",
      "outputs": [],
      "stateMutability": "nonpayable",
      "type": "function"
    },
    {
      "inputs": [
        {
          "internalType": "uint256",
          "name": "bank_user_id",
          "type": "uint256"
        },
        {
          "internalType": "uint256",
          "name": "vehicle_id",
          "type": "uint256"
        },
        {
          "internalType": "bool",
          "name": "blocked",
          "type": "bool"
        }
      ],
      "name": "car_change_block_status",
      "outputs": [],
      "stateMutability": "nonpayable",
      "type": "function"
    },
    {
      "inputs": [],
      "name": "users_length",
      "outputs": [
        {
          "internalType": "uint256",
          "name": "",
          "type": "uint256"
        }
      ],
      "stateMutability": "view",
      "type": "function",
      "constant": true
    },
    {
      "inputs": [],
      "name": "vehicles_length",
      "outputs": [
        {
          "internalType": "uint256",
          "name": "",
          "type": "uint256"
        }
      ],
      "stateMutability": "view",
      "type": "function",
      "constant": true
    },
    {
      "inputs": [],
      "name": "banks_length",
      "outputs": [
        {
          "internalType": "uint256",
          "name": "",
          "type": "uint256"
        }
      ],
      "stateMutability": "view",
      "type": "function",
      "constant": true
    },
    {
      "inputs": [],
      "name": "traffic_violations_length",
      "outputs": [
        {
          "internalType": "uint256",
          "name": "",
          "type": "uint256"
        }
      ],
      "stateMutability": "view",
      "type": "function",
      "constant": true
    },
    {
      "inputs": [],
      "name": "manufactures_length",
      "outputs": [
        {
          "internalType": "uint256",
          "name": "",
          "type": "uint256"
        }
      ],
      "stateMutability": "view",
      "type": "function",
      "constant": true
    },
    {
      "inputs": [],
      "name": "transactions_length",
      "outputs": [
        {
          "internalType": "uint256",
          "name": "",
          "type": "uint256"
        }
      ],
      "stateMutability": "view",
      "type": "function",
      "constant": true
    },
    {
      "inputs": [],
      "name": "licenses_length",
      "outputs": [
        {
          "internalType": "uint256",
          "name": "",
          "type": "uint256"
        }
      ],
      "stateMutability": "view",
      "type": "function",
      "constant": true
    },
    {
      "inputs": [
        {
          "internalType": "address",
          "name": "a",
          "type": "address"
        },
        {
          "internalType": "address",
          "name": "b",
          "type": "address"
        }
      ],
      "name": "compareAddress",
      "outputs": [
        {
          "internalType": "bool",
          "name": "",
          "type": "bool"
        }
      ],
      "stateMutability": "pure",
      "type": "function",
      "constant": true
    },
    {
      "inputs": [
        {
          "internalType": "uint256",
          "name": "a",
          "type": "uint256"
        },
        {
          "internalType": "uint256",
          "name": "b",
          "type": "uint256"
        }
      ],
      "name": "compareUint",
      "outputs": [
        {
          "internalType": "bool",
          "name": "",
          "type": "bool"
        }
      ],
      "stateMutability": "pure",
      "type": "function",
      "constant": true
    },
    {
      "inputs": [
        {
          "internalType": "string",
          "name": "a",
          "type": "string"
        },
        {
          "internalType": "string",
          "name": "b",
          "type": "string"
        }
      ],
      "name": "compareStrings",
      "outputs": [
        {
          "internalType": "bool",
          "name": "",
          "type": "bool"
        }
      ],
      "stateMutability": "pure",
      "type": "function",
      "constant": true
    }
  ],
  "bytecode": "0x608060405234801561001057600080fd5b5033600760006101000a81548173ffffffffffffffffffffffffffffffffffffffff021916908373ffffffffffffffffffffffffffffffffffffffff160217905550614fa9806100616000396000f3fe608060405234801561001057600080fd5b50600436106102725760003560e01c80638f8b519611610151578063b8ba95fa116100c3578063ccee534e11610087578063ccee534e146108f9578063d596479314610929578063df8a114314610959578063e0669ccd14610975578063e19507e814610993578063e465c0b7146109c357610272565b8063b8ba95fa146107ff578063bdb892c914610839578063bed34bba14610869578063c1e285a414610899578063cb7fdbaa146108c957610272565b8063aabab96411610115578063aabab964146106f0578063afe2b00714610721578063b20d4d5b14610751578063b40ca1061461076f578063b40dd61d1461079f578063b4e74eb8146107cf57610272565b80638f8b51961461063557806395a2b0fb1461065157806395e885c01461066f5780639ace38c21461069f578063a1f8959e146106d457610272565b8063365b98b2116101ea57806358467dbc116101ae57806358467dbc146105385780635aa9ef281461056857806364787341146105845780636e290158146105b75780637edc1487146105e75780638c6ba8fc1461061757610272565b8063365b98b214610455578063382d8f461461048a5780633ca27a25146104ba578063451d6716146104ea578063489dc25b1461050857610272565b80631c907b851161023c5780631c907b851461033057806324bd519b146103605780632e001d74146103905780632e530895146103c05780632eab944f146103f0578063337908451461042057610272565b806285ae2b14610277578062a1c75e146102a85780630937e741146102c45780630fcab143146102e2578063167f119814610312575b600080fd5b610291600480360381019061028c91906138b4565b6109f3565b60405161029f929190613989565b60405180910390f35b6102c260048036038101906102bd9190613aee565b610aaf565b005b6102cc610bb2565b6040516102d99190613b4a565b60405180910390f35b6102fc60048036038101906102f79190613b65565b610bbf565b6040516103099190613bc0565b60405180910390f35b61031a610d02565b6040516103279190613b4a565b60405180910390f35b61034a600480360381019061034591906138b4565b610d0f565b6040516103579190613bc0565b60405180910390f35b61037a60048036038101906103759190613bdb565b610db0565b6040516103879190613bc0565b60405180910390f35b6103aa60048036038101906103a59190613aee565b610eb9565b6040516103b79190613bc0565b60405180910390f35b6103da60048036038101906103d59190613c8e565b610f47565b6040516103e79190613bc0565b60405180910390f35b61040a60048036038101906104059190613b65565b61104b565b6040516104179190613bc0565b60405180910390f35b61043a600480360381019061043591906138b4565b61118e565b60405161044c96959493929190613dc0565b60405180910390f35b61046f600480360381019061046a91906138b4565b6112f7565b60405161048196959493929190613e70565b60405180910390f35b6104a4600480360381019061049f9190613ef4565b61160b565b6040516104b19190613bc0565b60405180910390f35b6104d460048036038101906104cf9190613ff1565b611702565b6040516104e19190613bc0565b60405180910390f35b6104f26117cb565b6040516104ff9190613b4a565b60405180910390f35b610522600480360381019061051d919061407c565b6117d8565b60405161052f9190613bc0565b60405180910390f35b610552600480360381019061054d91906140ff565b6118bc565b60405161055f9190614190565b60405180910390f35b610582600480360381019061057d91906141ab565b611a9f565b005b61059e600480360381019061059991906138b4565b611b37565b6040516105ae94939291906141fe565b60405180910390f35b6105d160048036038101906105cc9190614258565b611d0f565b6040516105de9190613bc0565b60405180910390f35b61060160048036038101906105fc91906138b4565b611e4e565b60405161060e9190613bc0565b60405180910390f35b61061f611eef565b60405161062c9190613b4a565b60405180910390f35b61064f600480360381019061064a9190614318565b611efc565b005b610659612173565b6040516106669190613b4a565b60405180910390f35b610689600480360381019061068491906144e7565b612180565b6040516106969190613bc0565b60405180910390f35b6106b960048036038101906106b491906138b4565b6121d9565b6040516106cb96959493929190614527565b60405180910390f35b6106ee60048036038101906106e99190613aee565b612445565b005b61070a600480360381019061070591906138b4565b612548565b604051610718929190613989565b60405180910390f35b61073b600480360381019061073691906145a4565b612604565b6040516107489190613bc0565b60405180910390f35b6107596127c0565b6040516107669190613b4a565b60405180910390f35b610789600480360381019061078491906138b4565b6127cc565b6040516107969190613bc0565b60405180910390f35b6107b960048036038101906107b4919061463b565b612818565b6040516107c69190613bc0565b60405180910390f35b6107e960048036038101906107e49190613b65565b612975565b6040516107f69190613bc0565b60405180910390f35b610819600480360381019061081491906138b4565b6129ce565b6040516108309b9a99989796959493929190614754565b60405180910390f35b610853600480360381019061084e9190613c8e565b612e0a565b6040516108609190613bc0565b60405180910390f35b610883600480360381019061087e91906140ff565b612ecc565b6040516108909190613bc0565b60405180910390f35b6108b360048036038101906108ae91906138b4565b612f25565b6040516108c09190613bc0565b60405180910390f35b6108e360048036038101906108de9190613aee565b612f71565b6040516108f09190613bc0565b60405180910390f35b610913600480360381019061090e9190613b65565b612fff565b6040516109209190613bc0565b60405180910390f35b610943600480360381019061093e91906138b4565b613141565b6040516109509190613bc0565b60405180910390f35b610973600480360381019061096e9190614830565b6131e2565b005b61097d6132fe565b60405161098a9190613b4a565b60405180910390f35b6109ad60048036038101906109a891906138b4565b61330b565b6040516109ba9190614981565b60405180910390f35b6109dd60048036038101906109d89190613c8e565b613677565b6040516109ea9190613bc0565b60405180910390f35b60018181548110610a0357600080fd5b9060005260206000209060020201600091509050806000015490806001018054610a2c906149d2565b80601f0160208091040260200160405190810160405280929190818152602001828054610a58906149d2565b8015610aa55780601f10610a7a57610100808354040283529160200191610aa5565b820191906000526020600020905b815481529060010190602001808311610a8857829003601f168201915b5050505050905082565b600760009054906101000a900473ffffffffffffffffffffffffffffffffffffffff1673ffffffffffffffffffffffffffffffffffffffff163373ffffffffffffffffffffffffffffffffffffffff1614610b3f576040517f08c379a0000000000000000000000000000000000000000000000000000000008152600401610b3690614a4f565b60405180910390fd5b600060405180604001604052808481526020018381525090506000819080600181540180825580915050600190039060005260206000209060020201600090919091909150600082015181600001556020820151816001019080519060200190610baa92919061377b565b505050505050565b6000600380549050905090565b6000806000905060005b600180549050811015610c2257610c058460018381548110610bee57610bed614a6f565b5b906000526020600020906002020160000154612975565b15610c0f57600191505b8080610c1a90614acd565b915050610bc9565b506001151581151514610c6a576040517f08c379a0000000000000000000000000000000000000000000000000000000008152600401610c6190614b87565b60405180910390fd5b60005b600280549050811015610cf557610c848582612975565b15610ce257600160028281548110610c9f57610c9e614a6f565b5b90600052602060002090600b0201600a0160006101000a81548160ff02191690836002811115610cd257610cd1613d49565b5b0217905550600192505050610cfc565b8080610ced90614acd565b915050610c6d565b5060009150505b92915050565b6000600680549050905090565b600080600090505b600680549050811015610da5576000819050610d338185612975565b15610d9157600160068381548110610d4e57610d4d614a6f565b5b906000526020600020906006020160050160006101000a81548160ff02191690836002811115610d8157610d80613d49565b5b0217905550600192505050610dab565b508080610d9d90614acd565b915050610d17565b50600090505b919050565b6000806040518060c0016040528088815260200187815260200186815260200185815260200184815260200160006002811115610df057610def613d49565b5b8152509050600681908060018154018082558091505060019003906000526020600020906006020160009091909190915060008201518160000155602082015181600101556040820151816002019080519060200190610e5192919061377b565b506060820151816003019080519060200190610e6e92919061377b565b506080820151816004015560a08201518160050160006101000a81548160ff02191690836002811115610ea457610ea3613d49565b5b02179055505050600191505095945050505050565b600080600090505b600680549050811015610f3b576000819050610edd8186612975565b15610f27578360068381548110610ef757610ef6614a6f565b5b90600052602060002090600602016003019080519060200190610f1b92919061377b565b50600192505050610f41565b508080610f3390614acd565b915050610ec1565b50600090505b92915050565b600080600090505b60038054905081101561103d576000819050610f6b8188612975565b15611029578560038381548110610f8557610f84614a6f565b5b90600052602060002090600602016002019080519060200190610fa992919061377b565b508460038381548110610fbf57610fbe614a6f565b5b90600052602060002090600602016003019080519060200190610fe392919061377b565b508360038381548110610ff957610ff8614a6f565b5b9060005260206000209060060201600501908051906020019061101d92919061377b565b50600192505050611043565b50808061103590614acd565b915050610f4f565b50600090505b949350505050565b6000806000905060005b6001805490508110156110ae57611091846001838154811061107a57611079614a6f565b5b906000526020600020906002020160000154612975565b1561109b57600191505b80806110a690614acd565b915050611055565b5060011515811515146110f6576040517f08c379a00000000000000000000000000000000000000000000000000000000081526004016110ed90614c19565b60405180910390fd5b60005b600280549050811015611181576111108582612975565b1561116e5760006002828154811061112b5761112a614a6f565b5b90600052602060002090600b0201600a0160006101000a81548160ff0219169083600281111561115e5761115d613d49565b5b0217905550600192505050611188565b808061117990614acd565b9150506110f9565b5060009150505b92915050565b6006818154811061119e57600080fd5b90600052602060002090600602016000915090508060000154908060010154908060020180546111cd906149d2565b80601f01602080910402602001604051908101604052809291908181526020018280546111f9906149d2565b80156112465780601f1061121b57610100808354040283529160200191611246565b820191906000526020600020905b81548152906001019060200180831161122957829003601f168201915b50505050509080600301805461125b906149d2565b80601f0160208091040260200160405190810160405280929190818152602001828054611287906149d2565b80156112d45780601f106112a9576101008083540402835291602001916112d4565b820191906000526020600020905b8154815290600101906020018083116112b757829003601f168201915b5050505050908060040154908060050160009054906101000a900460ff16905086565b6003818154811061130757600080fd5b90600052602060002090600602016000915090508060000160009054906101000a900473ffffffffffffffffffffffffffffffffffffffff1690806001018054611350906149d2565b80601f016020809104026020016040519081016040528092919081815260200182805461137c906149d2565b80156113c95780601f1061139e576101008083540402835291602001916113c9565b820191906000526020600020905b8154815290600101906020018083116113ac57829003601f168201915b5050505050908060020180546113de906149d2565b80601f016020809104026020016040519081016040528092919081815260200182805461140a906149d2565b80156114575780601f1061142c57610100808354040283529160200191611457565b820191906000526020600020905b81548152906001019060200180831161143a57829003601f168201915b50505050509080600301805461146c906149d2565b80601f0160208091040260200160405190810160405280929190818152602001828054611498906149d2565b80156114e55780601f106114ba576101008083540402835291602001916114e5565b820191906000526020600020905b8154815290600101906020018083116114c857829003601f168201915b5050505050908060040180546114fa906149d2565b80601f0160208091040260200160405190810160405280929190818152602001828054611526906149d2565b80156115735780601f1061154857610100808354040283529160200191611573565b820191906000526020600020905b81548152906001019060200180831161155657829003601f168201915b505050505090806005018054611588906149d2565b80601f01602080910402602001604051908101604052809291908181526020018280546115b4906149d2565b80156116015780601f106115d657610100808354040283529160200191611601565b820191906000526020600020905b8154815290600101906020018083116115e457829003601f168201915b5050505050905086565b6000806040518060c00160405280898152602001888152602001878152602001868152602001858152602001848152509050600581908060018154018082558091505060019003906000526020600020906006020160009091909190915060008201518160000155602082015181600101908051906020019061168f92919061377b565b5060408201518160020190805190602001906116ac92919061377b565b506060820151816003015560808201518160040190805190602001906116d392919061377b565b5060a08201518160050190805190602001906116f092919061377b565b50505060019150509695505050505050565b600080600090505b6005805490508110156117be5760008190506117268187612975565b156117aa5784600583815481106117405761173f614a6f565b5b9060005260206000209060060201600201908051906020019061176492919061377b565b50836005838154811061177a57611779614a6f565b5b9060005260206000209060060201600501908051906020019061179e92919061377b565b506001925050506117c4565b5080806117b690614acd565b91505061170a565b50600090505b9392505050565b6000600480549050905090565b600080600090505b6006805490508110156118ae5760008190506117fc8188612975565b1561189a57856006838154811061181657611815614a6f565b5b90600052602060002090600602016001018190555084600683815481106118405761183f614a6f565b5b9060005260206000209060060201600201908051906020019061186492919061377b565b50836006838154811061187a57611879614a6f565b5b9060005260206000209060060201600401819055506001925050506118b4565b5080806118a690614acd565b9150506117e0565b50600090505b949350505050565b600080600090505b600380549050811015611a74576000600382815481106118e7576118e6614a6f565b5b90600052602060002090600602016002018054611903906149d2565b80601f016020809104026020016040519081016040528092919081815260200182805461192f906149d2565b801561197c5780601f106119515761010080835404028352916020019161197c565b820191906000526020600020905b81548152906001019060200180831161195f57829003601f168201915b5050505050905060006003838154811061199957611998614a6f565b5b906000526020600020906006020160030180546119b5906149d2565b80601f01602080910402602001604051908101604052809291908181526020018280546119e1906149d2565b8015611a2e5780601f10611a0357610100808354040283529160200191611a2e565b820191906000526020600020905b815481529060010190602001808311611a1157829003601f168201915b50505050509050611a3f8287612ecc565b15611a5f57611a4e8186612ecc565b15611a5e57829350505050611a99565b5b50508080611a6c90614acd565b9150506118c4565b507fffffffffffffffffffffffffffffffffffffffffffffffffffffffffffffffff90505b92915050565b60005b600280549050811015611b3157611ab98282612975565b15611b1e57611aed8360028381548110611ad657611ad5614a6f565b5b90600052602060002090600b020160090154612975565b15611b1d578360028281548110611b0757611b06614a6f565b5b90600052602060002090600b0201600901819055505b5b8080611b2990614acd565b915050611aa2565b50505050565b60048181548110611b4757600080fd5b9060005260206000209060040201600091509050806000015490806001018054611b70906149d2565b80601f0160208091040260200160405190810160405280929190818152602001828054611b9c906149d2565b8015611be95780601f10611bbe57610100808354040283529160200191611be9565b820191906000526020600020905b815481529060010190602001808311611bcc57829003601f168201915b505050505090806002018054611bfe906149d2565b80601f0160208091040260200160405190810160405280929190818152602001828054611c2a906149d2565b8015611c775780601f10611c4c57610100808354040283529160200191611c77565b820191906000526020600020905b815481529060010190602001808311611c5a57829003601f168201915b505050505090806003018054611c8c906149d2565b80601f0160208091040260200160405190810160405280929190818152602001828054611cb8906149d2565b8015611d055780601f10611cda57610100808354040283529160200191611d05565b820191906000526020600020905b815481529060010190602001808311611ce857829003601f168201915b5050505050905084565b6000600760009054906101000a900473ffffffffffffffffffffffffffffffffffffffff1673ffffffffffffffffffffffffffffffffffffffff163373ffffffffffffffffffffffffffffffffffffffff1614611da1576040517f08c379a0000000000000000000000000000000000000000000000000000000008152600401611d9890614a4f565b60405180910390fd5b60005b600180549050811015611e4157611dbb8582612975565b15611e2e578360018281548110611dd557611dd4614a6f565b5b9060005260206000209060020201600001819055508260018281548110611dff57611dfe614a6f565b5b90600052602060002090600202016001019080519060200190611e2392919061377b565b506001915050611e47565b8080611e3990614acd565b915050611da4565b50600090505b9392505050565b600080600090505b600680549050811015611ee4576000819050611e728185612975565b15611ed057600260068381548110611e8d57611e8c614a6f565b5b906000526020600020906006020160050160006101000a81548160ff02191690836002811115611ec057611ebf613d49565b5b0217905550600192505050611eea565b508080611edc90614acd565b915050611e56565b50600090505b919050565b6000600180549050905090565b6000805b600080549050811015611f5957611f3c8c60008381548110611f2557611f24614a6f565b5b906000526020600020906002020160000154612975565b15611f4657600191505b8080611f5190614acd565b915050611f00565b506001151581151514611fa1576040517f08c379a0000000000000000000000000000000000000000000000000000000008152600401611f9890614cab565b60405180910390fd5b60006040518061016001604052808c81526020018b81526020018a81526020018981526020018881526020018d815260200187815260200186815260200185151581526020018d815260200184600281111561200057611fff613d49565b5b815250905060028190806001815401808255809150506001900390600052602060002090600b0201600090919091909150600082015181600001908051906020019061204d92919061377b565b50602082015181600101908051906020019061206a92919061377b565b50604082015181600201908051906020019061208792919061377b565b5060608201518160030190805190602001906120a492919061377b565b5060808201518160040190805190602001906120c192919061377b565b5060a0820151816005015560c08201518160060190805190602001906120e892919061377b565b5060e082015181600701908051906020019061210592919061377b565b506101008201518160080160006101000a81548160ff021916908315150217905550610120820151816009015561014082015181600a0160006101000a81548160ff0219169083600281111561215e5761215d613d49565b5b02179055505050505050505050505050505050565b6000600280549050905090565b6000816040516020016121939190614d13565b60405160208183030381529060405280519060200120836040516020016121ba9190614d13565b6040516020818303038152906040528051906020012014905092915050565b600581815481106121e957600080fd5b9060005260206000209060060201600091509050806000015490806001018054612212906149d2565b80601f016020809104026020016040519081016040528092919081815260200182805461223e906149d2565b801561228b5780601f106122605761010080835404028352916020019161228b565b820191906000526020600020905b81548152906001019060200180831161226e57829003601f168201915b5050505050908060020180546122a0906149d2565b80601f01602080910402602001604051908101604052809291908181526020018280546122cc906149d2565b80156123195780601f106122ee57610100808354040283529160200191612319565b820191906000526020600020905b8154815290600101906020018083116122fc57829003601f168201915b505050505090806003015490806004018054612334906149d2565b80601f0160208091040260200160405190810160405280929190818152602001828054612360906149d2565b80156123ad5780601f10612382576101008083540402835291602001916123ad565b820191906000526020600020905b81548152906001019060200180831161239057829003601f168201915b5050505050908060050180546123c2906149d2565b80601f01602080910402602001604051908101604052809291908181526020018280546123ee906149d2565b801561243b5780601f106124105761010080835404028352916020019161243b565b820191906000526020600020905b81548152906001019060200180831161241e57829003601f168201915b5050505050905086565b600760009054906101000a900473ffffffffffffffffffffffffffffffffffffffff1673ffffffffffffffffffffffffffffffffffffffff163373ffffffffffffffffffffffffffffffffffffffff16146124d5576040517f08c379a00000000000000000000000000000000000000000000000000000000081526004016124cc90614a4f565b60405180910390fd5b60006040518060400160405280848152602001838152509050600181908060018154018082558091505060019003906000526020600020906002020160009091909190915060008201518160000155602082015181600101908051906020019061254092919061377b565b505050505050565b6000818154811061255857600080fd5b9060005260206000209060020201600091509050806000015490806001018054612581906149d2565b80601f01602080910402602001604051908101604052809291908181526020018280546125ad906149d2565b80156125fa5780601f106125cf576101008083540402835291602001916125fa565b820191906000526020600020905b8154815290600101906020018083116125dd57829003601f168201915b5050505050905082565b6000806000905060005b6000805490508110156126675761264a886000838154811061263357612632614a6f565b5b906000526020600020906002020160000154612975565b1561265457600191505b808061265f90614acd565b91505061260e565b5060011515811515146126af576040517f08c379a00000000000000000000000000000000000000000000000000000000081526004016126a690614da0565b60405180910390fd5b60005b6002805490508110156127b0576126c98782612975565b1561279d5785600282815481106126e3576126e2614a6f565b5b90600052602060002090600b0201600601908051906020019061270792919061377b565b50836002828154811061271d5761271c614a6f565b5b90600052602060002090600b0201600a0160006101000a81548160ff021916908360028111156127505761274f613d49565b5b0217905550846002828154811061276a57612769614a6f565b5b90600052602060002090600b020160080160006101000a81548160ff0219169083151502179055506001925050506127b7565b80806127a890614acd565b9150506126b2565b5060009150505b95945050505050565b60008080549050905090565b600080600090505b60068054905081101561280d576127eb8382612975565b156127fa576001915050612813565b808061280590614acd565b9150506127d4565b50600090505b919050565b6000806040518060c001604052808973ffffffffffffffffffffffffffffffffffffffff168152602001888152602001878152602001858152602001868152602001848152509050600381908060018154018082558091505060019003906000526020600020906006020160009091909190915060008201518160000160006101000a81548173ffffffffffffffffffffffffffffffffffffffff021916908373ffffffffffffffffffffffffffffffffffffffff16021790555060208201518160010190805190602001906128ef92919061377b565b50604082015181600201908051906020019061290c92919061377b565b50606082015181600301908051906020019061292992919061377b565b50608082015181600401908051906020019061294692919061377b565b5060a082015181600501908051906020019061296392919061377b565b50505060019150509695505050505050565b6000816040516020016129889190614de1565b60405160208183030381529060405280519060200120836040516020016129af9190614de1565b6040516020818303038152906040528051906020012014905092915050565b600281815481106129de57600080fd5b90600052602060002090600b0201600091509050806000018054612a01906149d2565b80601f0160208091040260200160405190810160405280929190818152602001828054612a2d906149d2565b8015612a7a5780601f10612a4f57610100808354040283529160200191612a7a565b820191906000526020600020905b815481529060010190602001808311612a5d57829003601f168201915b505050505090806001018054612a8f906149d2565b80601f0160208091040260200160405190810160405280929190818152602001828054612abb906149d2565b8015612b085780601f10612add57610100808354040283529160200191612b08565b820191906000526020600020905b815481529060010190602001808311612aeb57829003601f168201915b505050505090806002018054612b1d906149d2565b80601f0160208091040260200160405190810160405280929190818152602001828054612b49906149d2565b8015612b965780601f10612b6b57610100808354040283529160200191612b96565b820191906000526020600020905b815481529060010190602001808311612b7957829003601f168201915b505050505090806003018054612bab906149d2565b80601f0160208091040260200160405190810160405280929190818152602001828054612bd7906149d2565b8015612c245780601f10612bf957610100808354040283529160200191612c24565b820191906000526020600020905b815481529060010190602001808311612c0757829003601f168201915b505050505090806004018054612c39906149d2565b80601f0160208091040260200160405190810160405280929190818152602001828054612c65906149d2565b8015612cb25780601f10612c8757610100808354040283529160200191612cb2565b820191906000526020600020905b815481529060010190602001808311612c9557829003601f168201915b505050505090806005015490806006018054612ccd906149d2565b80601f0160208091040260200160405190810160405280929190818152602001828054612cf9906149d2565b8015612d465780601f10612d1b57610100808354040283529160200191612d46565b820191906000526020600020905b815481529060010190602001808311612d2957829003601f168201915b505050505090806007018054612d5b906149d2565b80601f0160208091040260200160405190810160405280929190818152602001828054612d87906149d2565b8015612dd45780601f10612da957610100808354040283529160200191612dd4565b820191906000526020600020905b815481529060010190602001808311612db757829003601f168201915b5050505050908060080160009054906101000a900460ff169080600901549080600a0160009054906101000a900460ff1690508b565b60008060405180608001604052808781526020018681526020018581526020018481525090506004819080600181540180825580915050600190039060005260206000209060040201600090919091909150600082015181600001556020820151816001019080519060200190612e8292919061377b565b506040820151816002019080519060200190612e9f92919061377b565b506060820151816003019080519060200190612ebc92919061377b565b5050506001915050949350505050565b600081604051602001612edf9190614e38565b6040516020818303038152906040528051906020012083604051602001612f069190614e38565b6040516020818303038152906040528051906020012014905092915050565b600080600090505b600280549050811015612f6657612f448382612975565b15612f53576001915050612f6c565b8080612f5e90614acd565b915050612f2d565b50600090505b919050565b600080600090505b600080549050811015612ff3576000819050612f958186612975565b15612fdf578360008381548110612faf57612fae614a6f565b5b90600052602060002090600202016001019080519060200190612fd392919061377b565b50600192505050612ff9565b508080612feb90614acd565b915050612f79565b50600090505b92915050565b6000806000905060005b60018054905081101561306257613045846001838154811061302e5761302d614a6f565b5b906000526020600020906002020160000154612975565b1561304f57600191505b808061305a90614acd565b915050613009565b5060011515811515146130aa576040517f08c379a00000000000000000000000000000000000000000000000000000000081526004016130a190614ec1565b60405180910390fd5b60005b600280549050811015613134576130c48582612975565b156131215760028082815481106130de576130dd614a6f565b5b90600052602060002090600b0201600a0160006101000a81548160ff0219169083600281111561311157613110613d49565b5b021790555060019250505061313b565b808061312c90614acd565b9150506130ad565b5060009150505b92915050565b600080600090505b6006805490508110156131d75760008190506131658185612975565b156131c3576000600683815481106131805761317f614a6f565b5b906000526020600020906006020160050160006101000a81548160ff021916908360028111156131b3576131b2613d49565b5b02179055506001925050506131dd565b5080806131cf90614acd565b915050613149565b50600090505b919050565b6000805b60018054905081101561323f57613222856001838154811061320b5761320a614a6f565b5b906000526020600020906002020160000154612975565b1561322c57600191505b808061323790614acd565b9150506131e6565b506001151581151514613287576040517f08c379a000000000000000000000000000000000000000000000000000000000815260040161327e90614f53565b60405180910390fd5b60005b6002805490508110156132f7576132a18482612975565b156132e45782600282815481106132bb576132ba614a6f565b5b90600052602060002090600b020160080160006101000a81548160ff0219169083151502179055505b80806132ef90614acd565b91505061328a565b5050505050565b6000600580549050905090565b613313613801565b6003828154811061332757613326614a6f565b5b90600052602060002090600602016040518060c00160405290816000820160009054906101000a900473ffffffffffffffffffffffffffffffffffffffff1673ffffffffffffffffffffffffffffffffffffffff1673ffffffffffffffffffffffffffffffffffffffff1681526020016001820180546133a6906149d2565b80601f01602080910402602001604051908101604052809291908181526020018280546133d2906149d2565b801561341f5780601f106133f45761010080835404028352916020019161341f565b820191906000526020600020905b81548152906001019060200180831161340257829003601f168201915b50505050508152602001600282018054613438906149d2565b80601f0160208091040260200160405190810160405280929190818152602001828054613464906149d2565b80156134b15780601f10613486576101008083540402835291602001916134b1565b820191906000526020600020905b81548152906001019060200180831161349457829003601f168201915b505050505081526020016003820180546134ca906149d2565b80601f01602080910402602001604051908101604052809291908181526020018280546134f6906149d2565b80156135435780601f1061351857610100808354040283529160200191613543565b820191906000526020600020905b81548152906001019060200180831161352657829003601f168201915b5050505050815260200160048201805461355c906149d2565b80601f0160208091040260200160405190810160405280929190818152602001828054613588906149d2565b80156135d55780601f106135aa576101008083540402835291602001916135d5565b820191906000526020600020905b8154815290600101906020018083116135b857829003601f168201915b505050505081526020016005820180546135ee906149d2565b80601f016020809104026020016040519081016040528092919081815260200182805461361a906149d2565b80156136675780601f1061363c57610100808354040283529160200191613667565b820191906000526020600020905b81548152906001019060200180831161364a57829003601f168201915b5050505050815250509050919050565b600080600090505b60048054905081101561376d57600081905061369b8188612975565b156137595785600483815481106136b5576136b4614a6f565b5b906000526020600020906004020160010190805190602001906136d992919061377b565b5084600483815481106136ef576136ee614a6f565b5b9060005260206000209060040201600201908051906020019061371392919061377b565b50836004838154811061372957613728614a6f565b5b9060005260206000209060040201600301908051906020019061374d92919061377b565b50600192505050613773565b50808061376590614acd565b91505061367f565b50600090505b949350505050565b828054613787906149d2565b90600052602060002090601f0160209004810192826137a957600085556137f0565b82601f106137c257805160ff19168380011785556137f0565b828001600101855582156137f0579182015b828111156137ef5782518255916020019190600101906137d4565b5b5090506137fd919061384d565b5090565b6040518060c00160405280600073ffffffffffffffffffffffffffffffffffffffff16815260200160608152602001606081526020016060815260200160608152602001606081525090565b5b8082111561386657600081600090555060010161384e565b5090565b6000604051905090565b600080fd5b600080fd5b6000819050919050565b6138918161387e565b811461389c57600080fd5b50565b6000813590506138ae81613888565b92915050565b6000602082840312156138ca576138c9613874565b5b60006138d88482850161389f565b91505092915050565b6138ea8161387e565b82525050565b600081519050919050565b600082825260208201905092915050565b60005b8381101561392a57808201518184015260208101905061390f565b83811115613939576000848401525b50505050565b6000601f19601f8301169050919050565b600061395b826138f0565b61396581856138fb565b935061397581856020860161390c565b61397e8161393f565b840191505092915050565b600060408201905061399e60008301856138e1565b81810360208301526139b08184613950565b90509392505050565b600080fd5b600080fd5b7f4e487b7100000000000000000000000000000000000000000000000000000000600052604160045260246000fd5b6139fb8261393f565b810181811067ffffffffffffffff82111715613a1a57613a196139c3565b5b80604052505050565b6000613a2d61386a565b9050613a3982826139f2565b919050565b600067ffffffffffffffff821115613a5957613a586139c3565b5b613a628261393f565b9050602081019050919050565b82818337600083830152505050565b6000613a91613a8c84613a3e565b613a23565b905082815260208101848484011115613aad57613aac6139be565b5b613ab8848285613a6f565b509392505050565b600082601f830112613ad557613ad46139b9565b5b8135613ae5848260208601613a7e565b91505092915050565b60008060408385031215613b0557613b04613874565b5b6000613b138582860161389f565b925050602083013567ffffffffffffffff811115613b3457613b33613879565b5b613b4085828601613ac0565b9150509250929050565b6000602082019050613b5f60008301846138e1565b92915050565b60008060408385031215613b7c57613b7b613874565b5b6000613b8a8582860161389f565b9250506020613b9b8582860161389f565b9150509250929050565b60008115159050919050565b613bba81613ba5565b82525050565b6000602082019050613bd56000830184613bb1565b92915050565b600080600080600060a08688031215613bf757613bf6613874565b5b6000613c058882890161389f565b9550506020613c168882890161389f565b945050604086013567ffffffffffffffff811115613c3757613c36613879565b5b613c4388828901613ac0565b935050606086013567ffffffffffffffff811115613c6457613c63613879565b5b613c7088828901613ac0565b9250506080613c818882890161389f565b9150509295509295909350565b60008060008060808587031215613ca857613ca7613874565b5b6000613cb68782880161389f565b945050602085013567ffffffffffffffff811115613cd757613cd6613879565b5b613ce387828801613ac0565b935050604085013567ffffffffffffffff811115613d0457613d03613879565b5b613d1087828801613ac0565b925050606085013567ffffffffffffffff811115613d3157613d30613879565b5b613d3d87828801613ac0565b91505092959194509250565b7f4e487b7100000000000000000000000000000000000000000000000000000000600052602160045260246000fd5b60038110613d8957613d88613d49565b5b50565b6000819050613d9a82613d78565b919050565b6000613daa82613d8c565b9050919050565b613dba81613d9f565b82525050565b600060c082019050613dd560008301896138e1565b613de260208301886138e1565b8181036040830152613df48187613950565b90508181036060830152613e088186613950565b9050613e1760808301856138e1565b613e2460a0830184613db1565b979650505050505050565b600073ffffffffffffffffffffffffffffffffffffffff82169050919050565b6000613e5a82613e2f565b9050919050565b613e6a81613e4f565b82525050565b600060c082019050613e856000830189613e61565b8181036020830152613e978188613950565b90508181036040830152613eab8187613950565b90508181036060830152613ebf8186613950565b90508181036080830152613ed38185613950565b905081810360a0830152613ee78184613950565b9050979650505050505050565b60008060008060008060c08789031215613f1157613f10613874565b5b6000613f1f89828a0161389f565b965050602087013567ffffffffffffffff811115613f4057613f3f613879565b5b613f4c89828a01613ac0565b955050604087013567ffffffffffffffff811115613f6d57613f6c613879565b5b613f7989828a01613ac0565b9450506060613f8a89828a0161389f565b935050608087013567ffffffffffffffff811115613fab57613faa613879565b5b613fb789828a01613ac0565b92505060a087013567ffffffffffffffff811115613fd857613fd7613879565b5b613fe489828a01613ac0565b9150509295509295509295565b60008060006060848603121561400a57614009613874565b5b60006140188682870161389f565b935050602084013567ffffffffffffffff81111561403957614038613879565b5b61404586828701613ac0565b925050604084013567ffffffffffffffff81111561406657614065613879565b5b61407286828701613ac0565b9150509250925092565b6000806000806080858703121561409657614095613874565b5b60006140a48782880161389f565b94505060206140b58782880161389f565b935050604085013567ffffffffffffffff8111156140d6576140d5613879565b5b6140e287828801613ac0565b92505060606140f38782880161389f565b91505092959194509250565b6000806040838503121561411657614115613874565b5b600083013567ffffffffffffffff81111561413457614133613879565b5b61414085828601613ac0565b925050602083013567ffffffffffffffff81111561416157614160613879565b5b61416d85828601613ac0565b9150509250929050565b6000819050919050565b61418a81614177565b82525050565b60006020820190506141a56000830184614181565b92915050565b6000806000606084860312156141c4576141c3613874565b5b60006141d28682870161389f565b93505060206141e38682870161389f565b92505060406141f48682870161389f565b9150509250925092565b600060808201905061421360008301876138e1565b81810360208301526142258186613950565b905081810360408301526142398185613950565b9050818103606083015261424d8184613950565b905095945050505050565b60008060006060848603121561427157614270613874565b5b600061427f8682870161389f565b93505060206142908682870161389f565b925050604084013567ffffffffffffffff8111156142b1576142b0613879565b5b6142bd86828701613ac0565b9150509250925092565b6142d081613ba5565b81146142db57600080fd5b50565b6000813590506142ed816142c7565b92915050565b6003811061430057600080fd5b50565b600081359050614312816142f3565b92915050565b6000806000806000806000806000806101408b8d03121561433c5761433b613874565b5b600061434a8d828e0161389f565b9a505060208b013567ffffffffffffffff81111561436b5761436a613879565b5b6143778d828e01613ac0565b99505060408b013567ffffffffffffffff81111561439857614397613879565b5b6143a48d828e01613ac0565b98505060608b013567ffffffffffffffff8111156143c5576143c4613879565b5b6143d18d828e01613ac0565b97505060808b013567ffffffffffffffff8111156143f2576143f1613879565b5b6143fe8d828e01613ac0565b96505060a08b013567ffffffffffffffff81111561441f5761441e613879565b5b61442b8d828e01613ac0565b95505060c08b013567ffffffffffffffff81111561444c5761444b613879565b5b6144588d828e01613ac0565b94505060e08b013567ffffffffffffffff81111561447957614478613879565b5b6144858d828e01613ac0565b9350506101006144978d828e016142de565b9250506101206144a98d828e01614303565b9150509295989b9194979a5092959850565b6144c481613e4f565b81146144cf57600080fd5b50565b6000813590506144e1816144bb565b92915050565b600080604083850312156144fe576144fd613874565b5b600061450c858286016144d2565b925050602061451d858286016144d2565b9150509250929050565b600060c08201905061453c60008301896138e1565b818103602083015261454e8188613950565b905081810360408301526145628187613950565b905061457160608301866138e1565b81810360808301526145838185613950565b905081810360a08301526145978184613950565b9050979650505050505050565b600080600080600060a086880312156145c0576145bf613874565b5b60006145ce8882890161389f565b95505060206145df8882890161389f565b945050604086013567ffffffffffffffff811115614600576145ff613879565b5b61460c88828901613ac0565b935050606061461d888289016142de565b925050608061462e88828901614303565b9150509295509295909350565b60008060008060008060c0878903121561465857614657613874565b5b600061466689828a016144d2565b965050602087013567ffffffffffffffff81111561468757614686613879565b5b61469389828a01613ac0565b955050604087013567ffffffffffffffff8111156146b4576146b3613879565b5b6146c089828a01613ac0565b945050606087013567ffffffffffffffff8111156146e1576146e0613879565b5b6146ed89828a01613ac0565b935050608087013567ffffffffffffffff81111561470e5761470d613879565b5b61471a89828a01613ac0565b92505060a087013567ffffffffffffffff81111561473b5761473a613879565b5b61474789828a01613ac0565b9150509295509295509295565b600061016082019050818103600083015261476f818e613950565b90508181036020830152614783818d613950565b90508181036040830152614797818c613950565b905081810360608301526147ab818b613950565b905081810360808301526147bf818a613950565b90506147ce60a08301896138e1565b81810360c08301526147e08188613950565b905081810360e08301526147f48187613950565b9050614804610100830186613bb1565b6148126101208301856138e1565b614820610140830184613db1565b9c9b505050505050505050505050565b60008060006060848603121561484957614848613874565b5b60006148578682870161389f565b93505060206148688682870161389f565b9250506040614879868287016142de565b9150509250925092565b61488c81613e4f565b82525050565b600082825260208201905092915050565b60006148ae826138f0565b6148b88185614892565b93506148c881856020860161390c565b6148d18161393f565b840191505092915050565b600060c0830160008301516148f46000860182614883565b506020830151848203602086015261490c82826148a3565b9150506040830151848203604086015261492682826148a3565b9150506060830151848203606086015261494082826148a3565b9150506080830151848203608086015261495a82826148a3565b91505060a083015184820360a086015261497482826148a3565b9150508091505092915050565b6000602082019050818103600083015261499b81846148dc565b905092915050565b7f4e487b7100000000000000000000000000000000000000000000000000000000600052602260045260246000fd5b600060028204905060018216806149ea57607f821691505b6020821081036149fd576149fc6149a3565b5b50919050565b7f4163636573732064656e69656421000000000000000000000000000000000000600082015250565b6000614a39600e836138fb565b9150614a4482614a03565b602082019050919050565b60006020820190508181036000830152614a6881614a2c565b9050919050565b7f4e487b7100000000000000000000000000000000000000000000000000000000600052603260045260246000fd5b7f4e487b7100000000000000000000000000000000000000000000000000000000600052601160045260246000fd5b6000614ad88261387e565b91507fffffffffffffffffffffffffffffffffffffffffffffffffffffffffffffffff8203614b0a57614b09614a9e565b5b600182019050919050565b7f536f727279204f6e6c7920412042616e6b2043616e2052656a6563742041205260008201527f6571756573742021000000000000000000000000000000000000000000000000602082015250565b6000614b716028836138fb565b9150614b7c82614b15565b604082019050919050565b60006020820190508181036000830152614ba081614b64565b9050919050565b7f536f727279204f6e6c7920412042616e6b2043616e204163636570742041205260008201527f6571756573742021000000000000000000000000000000000000000000000000602082015250565b6000614c036028836138fb565b9150614c0e82614ba7565b604082019050919050565b60006020820190508181036000830152614c3281614bf6565b9050919050565b7f536f727279204f6e6c792041204d616e75666163747572652043616e2041646460008201527f2076656869636c65202100000000000000000000000000000000000000000000602082015250565b6000614c95602a836138fb565b9150614ca082614c39565b604082019050919050565b60006020820190508181036000830152614cc481614c88565b9050919050565b60008160601b9050919050565b6000614ce382614ccb565b9050919050565b6000614cf582614cd8565b9050919050565b614d0d614d0882613e4f565b614cea565b82525050565b6000614d1f8284614cfc565b60148201915081905092915050565b7f536f727279204f6e6c792041204d616e75666163747572652043616e2045646960008201527f7420412076656869636c65202100000000000000000000000000000000000000602082015250565b6000614d8a602d836138fb565b9150614d9582614d2e565b604082019050919050565b60006020820190508181036000830152614db981614d7d565b9050919050565b6000819050919050565b614ddb614dd68261387e565b614dc0565b82525050565b6000614ded8284614dca565b60208201915081905092915050565b600081905092915050565b6000614e12826138f0565b614e1c8185614dfc565b9350614e2c81856020860161390c565b80840191505092915050565b6000614e448284614e07565b915081905092915050565b7f536f727279204f6e6c7920412042616e6b2043616e2050656e64696e6720412060008201527f5265717565737420210000000000000000000000000000000000000000000000602082015250565b6000614eab6029836138fb565b9150614eb682614e4f565b604082019050919050565b60006020820190508181036000830152614eda81614e9e565b9050919050565b7f536f727279204f6e6c7920412042616e6b2043616e20626c6f636b204120436160008201527f7220210000000000000000000000000000000000000000000000000000000000602082015250565b6000614f3d6023836138fb565b9150614f4882614ee1565b604082019050919050565b60006020820190508181036000830152614f6c81614f30565b905091905056fea2646970667358221220ce953c5a9173cc3ae9c72e7d91b6b8bd7ae5e215859fa0878a05418883c5be9264736f6c634300080e0033",
  "immutableReferences": {},
  "source": "//SPDX-License-Identifier: MIT\r\npragma solidity ^0.8.11;\r\n\r\ncontract VehicleSystem\r\n{\r\n\r\n    // struct for traffic violations\r\n    // struct for transications\r\n    // struct for licenses and make a relation with users and cars\r\n    // enum for status pending_payment, compelete, failed\r\n    // enum types of trffic violations like (Skip the top speed, etc..) | can add a custom one if not any of other we store?\r\n    // struct for users reuqests to remove block on cars\r\n\r\n    enum Role{\r\n        CUSTOMER,\r\n        MANUFACTURE,\r\n        BANK,\r\n        ADMIN\r\n    }\r\n\r\n    enum State {\r\n        ACCEPTED,\r\n        REJECTED,\r\n        PENDING\r\n    }\r\n\r\n    struct manufacture\r\n    {\r\n        uint user_id;\r\n        string manufacture_name;\r\n    }\r\n\r\n    struct vehicle\r\n    {\r\n        string vehicle_name;\r\n        string vehicle_type;\r\n        string vehicle_model;\r\n        string vehicle_motor_number;\r\n        string vehicle_chase_number;\r\n        uint vehicle_manufacture_id;\r\n        string vehicle_color;\r\n        string vehicle_production_Year;\r\n        bool isBlocked;\r\n        uint user_id;\r\n        State state;\r\n    }\r\n\r\n    struct user\r\n    {\r\n        address user_address;\r\n        string user_name;\r\n        string user_email;\r\n        string user_password;\r\n        string user_phone;\r\n        string user_national_id;\r\n    }\r\n\r\n    struct bank\r\n    {\r\n        uint user_id;\r\n        string bank_name;\r\n    }\r\n\r\n    // Traffic Violation\r\n    struct traffic_violation\r\n    {\r\n        uint vehicle_id;\r\n        string violation_type;\r\n        string violation_description;\r\n        string violation_status;\r\n    }\r\n\r\n    //Transactions struct\r\n    struct transaction\r\n    {\r\n        uint user_id;\r\n        string amount; // there is no floating point must bo string\r\n        string status;\r\n        uint bank_id;\r\n        string created_at;\r\n        string updated_at;\r\n        // no updated at -> tranactions is only one time\r\n    }\r\n\r\n    struct license\r\n    {\r\n        uint user_id;\r\n        uint car_id;\r\n        string status;\r\n        string expireat;\r\n        uint security_directorate_id;\r\n        State state;\r\n    }\r\n\r\n    manufacture[] public manufactures;\r\n    bank[] public banks;\r\n    vehicle[] public vehicles;\r\n    user[] public users;\r\n    traffic_violation[] public traffic_violations;\r\n    transaction[] public transactions;\r\n    license[] public licenses;\r\n\r\n    address private deployer;\r\n\r\n    constructor() {\r\n        deployer = msg.sender;\r\n    }\r\n\r\n    function register(address _user_address, string memory _user_name, string memory _user_email, string memory _user_phone, string memory _user_password, string memory _user_national_id) public returns (bool)\r\n    {\r\n        user memory temp_hold_user = user(_user_address, _user_name, _user_email, _user_password, _user_phone, _user_national_id);\r\n        users.push(temp_hold_user);\r\n        return true;\r\n    }\r\n\r\n    function login(string memory passed_user_email, string memory passed_user_password) public view returns (int)\r\n    {\r\n        for (uint i = 0; i < users.length; i++)\r\n        {\r\n            string memory user_name = users[i].user_email;\r\n            string memory user_password = users[i].user_password;\r\n            if (compareStrings(user_name, passed_user_email))\r\n            {\r\n                if (compareStrings(user_password, passed_user_password))\r\n                {\r\n                    return int(i);\r\n                }\r\n            }\r\n        }\r\n        return -1;\r\n    }\r\n\r\n     function get_user(uint user_id) public view returns (user memory){\r\n         return users[user_id];\r\n     }\r\n\r\n    function edit_user(uint _user_id, string memory _user_email, string memory _user_password, string memory _user_national_id) public returns (bool)\r\n    {\r\n        for (uint i = 0; i < users.length; i++)\r\n        {\r\n            uint user_id = i;\r\n            if (compareUint(user_id, _user_id))\r\n            {\r\n                users[i].user_email = _user_email;\r\n                users[i].user_password = _user_password;\r\n                users[i].user_national_id = _user_national_id;\r\n                return true;\r\n            }\r\n        }\r\n        return false;\r\n    }\r\n\r\n\r\n    function add_manufacture_data(uint _manufacture_id, string memory _manufacture_name) public onlyDeployer {\r\n        manufacture memory _manufacture = manufacture(_manufacture_id, _manufacture_name);\r\n        manufactures.push(_manufacture);\r\n    }\r\n\r\n    function edit_manufacture(uint _manufacture_id, string memory _manufacture_name) public returns (bool)\r\n    {\r\n        for (uint i = 0; i < manufactures.length; i++)\r\n        {\r\n            uint current_manufacture_id = i;\r\n            if (compareUint(current_manufacture_id, _manufacture_id))\r\n            {\r\n                manufactures[i].manufacture_name = _manufacture_name;\r\n                return true;\r\n            }\r\n        }\r\n        return false;\r\n    }\r\n\r\n    function add_license(uint passed_user_id, uint passed_car_id, string memory passed_status, string memory passed_expireat, uint passed_security_directorate_id) public returns (bool)\r\n    {\r\n        license memory temp_license = license(passed_user_id, passed_car_id, passed_status, passed_expireat, passed_security_directorate_id, State.ACCEPTED);\r\n        licenses.push(temp_license);\r\n        return true;\r\n    }\r\n\r\n    function edit_license(uint passed_license_id, uint passed_car_id, string memory passed_status, uint passed_security_directorate_id) public returns (bool)\r\n    {\r\n        for (uint i = 0; i < licenses.length; i++)\r\n        {\r\n            uint license_id = i;\r\n            if (compareUint(license_id, passed_license_id))\r\n            {\r\n                //found license | edit\r\n                //edit only car and status\r\n                licenses[i].car_id = passed_car_id;\r\n                licenses[i].status = passed_status;\r\n                licenses[i].security_directorate_id = passed_security_directorate_id;\r\n                return true;\r\n            }\r\n        }\r\n        return false;\r\n    }\r\n\r\n    function request_to_renewal_licence(uint L_id) public view returns (bool)\r\n    {\r\n        for (uint i = 0; i < licenses.length; i++) {\r\n            if (compareUint(L_id, i)) {\r\n                add_transaction;\r\n                return true;\r\n            }\r\n        }\r\n        return false;\r\n    }\r\n\r\n    function accept_to_renewal_license(uint L_id) public returns (bool) {\r\n        for (uint i = 0; i < licenses.length; i++)\r\n        {\r\n            uint license_id = i;\r\n            if (compareUint(license_id, L_id))\r\n            {\r\n                licenses[i].state = State.ACCEPTED;\r\n                return true;\r\n            }\r\n        }\r\n        return false;\r\n    }\r\n\r\n    function reject_to_renewal_license(uint L_id) public returns (bool) {\r\n        for (uint i = 0; i < licenses.length; i++)\r\n        {\r\n            uint license_id = i;\r\n            if (compareUint(license_id, L_id))\r\n            {\r\n                licenses[i].state = State.REJECTED;\r\n                return true;\r\n            }\r\n        }\r\n        return false;\r\n    }\r\n\r\n    function pending_to_renewal_license(uint L_id) public returns (bool) {\r\n        for (uint i = 0; i < licenses.length; i++)\r\n        {\r\n            uint license_id = i;\r\n            if (compareUint(license_id, L_id))\r\n            {\r\n                licenses[i].state = State.PENDING;\r\n                return true;\r\n            }\r\n        }\r\n        return false;\r\n    }\r\n\r\n    function renewal_license(uint passed_license_id, string memory exp) public returns (bool)\r\n    {\r\n        for (uint i = 0; i < licenses.length; i++)\r\n        {\r\n            uint license_id = i;\r\n            if (compareUint(license_id, passed_license_id))\r\n            {\r\n                //found license | edit\r\n                //edit only car and status\r\n                licenses[i].expireat = exp;\r\n                return true;\r\n            }\r\n        }\r\n        return false;\r\n    }\r\n\r\n\r\n    function add_traffic_violation(uint passed_vehicle_id, string memory vio_type, string memory vio_des, string memory vio_status) public returns (bool)\r\n    {\r\n        traffic_violation memory temp_violation = traffic_violation(passed_vehicle_id, vio_type, vio_des, vio_status);\r\n        traffic_violations.push(temp_violation);\r\n        return true;\r\n    }\r\n\r\n    function edit_traffic_violation(uint vio_id, /*uint passed_vehicle_id, */string memory vio_type, string memory vio_des, string memory vio_status) public returns (bool)\r\n    {\r\n        for (uint i = 0; i < traffic_violations.length; i++)\r\n        {\r\n            uint vio = i;\r\n            if (compareUint(vio, vio_id))\r\n            {\r\n                //found vio | edit\r\n                traffic_violations[i].violation_type = vio_type;\r\n                traffic_violations[i].violation_description = vio_des;\r\n                traffic_violations[i].violation_status = vio_status;\r\n                return true;\r\n            }\r\n        }\r\n        return false;\r\n    }\r\n\r\n    function add_transaction(uint passed_user_id, string memory passed_amount, string memory passed_status, uint passed_bank_id, string memory passed_created_at, string memory passed_updated_at) public returns (bool)\r\n    {\r\n        transaction memory temp_transaction = transaction(passed_user_id, passed_amount, passed_status, passed_bank_id, passed_created_at, passed_updated_at);\r\n        transactions.push(temp_transaction);\r\n        return true;\r\n    }\r\n\r\n    function edit_transaction(uint passed_trx_id, string memory passed_status, string memory passed_updated_at) public returns (bool)\r\n    {\r\n        for (uint i = 0; i < transactions.length; i++)\r\n        {\r\n            uint trx_id = i;\r\n            if (compareUint(trx_id, passed_trx_id))\r\n            {\r\n                //found -> edit\r\n                transactions[i].status = passed_status;\r\n                transactions[i].updated_at = passed_updated_at;\r\n                return true;\r\n            }\r\n        }\r\n        return false;\r\n    }\r\n\r\n    function request_to_remove_block(uint v_id) public view returns (bool)\r\n    {\r\n        for (uint i = 0; i < vehicles.length; i++) {\r\n            if (compareUint(v_id, i)) {\r\n                add_transaction;\r\n                return true;\r\n            }\r\n        }\r\n        return false;\r\n    }\r\n\r\n    function accept_to_remove_block(uint v_id, uint user_id) public returns (bool) {\r\n        bool ok = false;\r\n        for (uint i = 0; i < banks.length; i++) {\r\n            if (compareUint(user_id, banks[i].user_id)) {\r\n                ok = true;\r\n            }\r\n        }\r\n        require(ok == true, \"Sorry Only A Bank Can Accept A Request !\");\r\n        for (uint i = 0; i < vehicles.length; i++) {\r\n            if (compareUint(v_id, i)) {\r\n                vehicles[i].state = State.ACCEPTED;\r\n                return true;\r\n            }\r\n        }\r\n        return false;\r\n    }\r\n\r\n    function reject_to_remove_block(uint v_id, uint user_id) public returns (bool) {\r\n        bool ok = false;\r\n        for (uint i = 0; i < banks.length; i++) {\r\n            if (compareUint(user_id, banks[i].user_id)) {\r\n                ok = true;\r\n            }\r\n        }\r\n        require(ok == true, \"Sorry Only A Bank Can Reject A Request !\");\r\n        for (uint i = 0; i < vehicles.length; i++) {\r\n            if (compareUint(v_id, i)) {\r\n                vehicles[i].state = State.REJECTED;\r\n                return true;\r\n            }\r\n        }\r\n        return false;\r\n    }\r\n\r\n    function pending_to_remove_block(uint v_id, uint user_id) public returns (bool) {\r\n        bool ok = false;\r\n        for (uint i = 0; i < banks.length; i++) {\r\n            if (compareUint(user_id, banks[i].user_id)) {\r\n                ok = true;\r\n            }\r\n        }\r\n        require(ok == true, \"Sorry Only A Bank Can Pending A Request !\");\r\n        for (uint i = 0; i < vehicles.length; i++) {\r\n            if (compareUint(v_id, i)) {\r\n                vehicles[i].state = State.PENDING;\r\n                return true;\r\n            }\r\n        }\r\n        return false;\r\n    }\r\n\r\n    function add_bank_data(uint user_id, string memory name) public onlyDeployer {\r\n        bank memory bank_1 = bank(user_id, name);\r\n        banks.push(bank_1);\r\n    }\r\n\r\n    function edit_bank(uint bank_id, uint user_id, string memory name) public onlyDeployer returns (bool)\r\n    {\r\n        for (uint i = 0; i < banks.length; i++) {\r\n            if (compareUint(bank_id, i)) {\r\n                banks[i].user_id = user_id;\r\n                banks[i].bank_name = name;\r\n                return true;\r\n            }\r\n        }\r\n        return false;\r\n    }\r\n\r\n    function add_vehicle(uint manufacture_user_id, string memory vehicle_name, string memory vehicle_type, string memory vehicle_model, string memory vehicle_motor_number, string memory vehicle_chase_number, string memory vehicle_color, string memory vehicle_production_Year, bool isBlocked, State vehicle_state) public {\r\n        bool ok = false;\r\n        for (uint i = 0; i < manufactures.length; i++) {\r\n            if (compareUint(manufacture_user_id, manufactures[i].user_id)) {\r\n                ok = true;\r\n            }\r\n        }\r\n        require(ok == true, \"Sorry Only A Manufacture Can Add vehicle !\");\r\n        vehicle memory vehicle_1 = vehicle(vehicle_name, vehicle_type, vehicle_model, vehicle_motor_number, vehicle_chase_number, manufacture_user_id, vehicle_color, vehicle_production_Year, isBlocked, manufacture_user_id, vehicle_state);\r\n        vehicles.push(vehicle_1);\r\n    }\r\n\r\n    function edit_vehicle(uint manufacture_user_id, uint vehicle_id, string memory vehicle_color, bool isBlocked, State vehicle_state) public returns (bool)\r\n    {\r\n        bool ok = false;\r\n        for (uint i = 0; i < manufactures.length; i++) {\r\n            if (compareUint(manufacture_user_id, manufactures[i].user_id)) {\r\n                ok = true;\r\n            }\r\n        }\r\n        require(ok == true, \"Sorry Only A Manufacture Can Edit A vehicle !\");\r\n        for (uint i = 0; i < vehicles.length; i++) {\r\n            if (compareUint(vehicle_id, i)) {\r\n                vehicles[i].vehicle_color = vehicle_color;\r\n                vehicles[i].state = vehicle_state;\r\n                vehicles[i].isBlocked = isBlocked;\r\n                return true;\r\n            }\r\n        }\r\n        return false;\r\n\r\n    }\r\n\r\n    function change_ownership(uint new_owner_user_id, uint old_owner_user_id, uint vehicle_id) public {\r\n        for (uint i = 0; i < vehicles.length; i++) {\r\n            if (compareUint(vehicle_id, i)) {\r\n                if (compareUint(old_owner_user_id, vehicles[i].user_id)) {\r\n                    vehicles[i].user_id = new_owner_user_id;\r\n                }\r\n            }\r\n        }\r\n    }\r\n\r\n    function car_change_block_status(uint bank_user_id, uint vehicle_id, bool blocked) public {\r\n        bool ok = false;\r\n        for (uint i = 0; i < banks.length; i++) {\r\n            if (compareUint(bank_user_id, banks[i].user_id)) {\r\n                ok = true;\r\n            }\r\n        }\r\n        require(ok == true, \"Sorry Only A Bank Can block A Car !\");\r\n        for (uint i = 0; i < vehicles.length; i++) {\r\n            if (compareUint(vehicle_id, i)) {\r\n                vehicles[i].isBlocked = blocked;\r\n            }\r\n        }\r\n    }\r\n\r\n    function users_length() public view returns (uint){\r\n        return users.length;\r\n    }\r\n\r\n    function vehicles_length() public view returns (uint){\r\n        return vehicles.length;\r\n    }\r\n\r\n    function banks_length() public view returns (uint){\r\n        return banks.length;\r\n    }\r\n\r\n    function traffic_violations_length() public view returns (uint){\r\n        return traffic_violations.length;\r\n    }\r\n\r\n    function manufactures_length() public view returns (uint){\r\n        return manufactures.length;\r\n    }\r\n\r\n    function transactions_length() public view returns (uint){\r\n        return transactions.length;\r\n    }\r\n\r\n    function licenses_length() public view returns (uint){\r\n        return licenses.length;\r\n    }\r\n\r\n    modifier onlyDeployer() {\r\n        require(msg.sender == deployer, \"Access denied!\");\r\n        _;\r\n    }\r\n    function compareAddress(address a, address b) public pure returns (bool) {\r\n        return (keccak256(abi.encodePacked((a))) == keccak256(abi.encodePacked((b))));\r\n    }\r\n\r\n    function compareUint(uint a, uint b) public pure returns (bool) {\r\n        return (keccak256(abi.encodePacked((a))) == keccak256(abi.encodePacked((b))));\r\n    }\r\n\r\n    function compareStrings(string memory a, string memory b) public pure returns (bool) {\r\n        return (keccak256(abi.encodePacked((a))) == keccak256(abi.encodePacked((b))));}\r\n}\r\n",
  "sourcePath": "C:\\Users\\Mina\\OneDrive\\Desktop\\blockchain-projects\\Back-end\\contracts\\VehicleSystem.sol",
  "compiler": {
    "name": "solc",
    "version": "0.8.14+commit.80d49f37.Emscripten.clang"
  },
  "schemaVersion": "3.4.7",
  "updatedAt": "2022-06-13T03:52:38.783Z",
  "networkType": "ethereum",
  "devdoc": {
    "kind": "dev",
    "methods": {},
    "version": 1
  },
  "userdoc": {
    "kind": "user",
    "methods": {},
    "version": 1
  }
}